{"abi":[{"type":"constructor","inputs":[{"name":"name","type":"string","internalType":"string"},{"name":"symbol","type":"string","internalType":"string"},{"name":"offset","type":"uint96","internalType":"uint96"},{"name":"delegates","type":"address[]","internalType":"address[]"},{"name":"receivers","type":"address[]","internalType":"address[]"},{"name":"amounts","type":"uint96[]","internalType":"uint96[]"}],"stateMutability":"nonpayable"},{"type":"function","name":"CLOCK_MODE","inputs":[],"outputs":[{"name":"","type":"string","internalType":"string"}],"stateMutability":"view"},{"type":"function","name":"approve","inputs":[{"name":"to","type":"address","internalType":"address"},{"name":"tokenId","type":"uint256","internalType":"uint256"}],"outputs":[],"stateMutability":"nonpayable"},{"type":"function","name":"balanceOf","inputs":[{"name":"owner","type":"address","internalType":"address"}],"outputs":[{"name":"","type":"uint256","internalType":"uint256"}],"stateMutability":"view"},{"type":"function","name":"clock","inputs":[],"outputs":[{"name":"","type":"uint48","internalType":"uint48"}],"stateMutability":"view"},{"type":"function","name":"delegate","inputs":[{"name":"delegatee","type":"address","internalType":"address"}],"outputs":[],"stateMutability":"nonpayable"},{"type":"function","name":"delegateBySig","inputs":[{"name":"delegatee","type":"address","internalType":"address"},{"name":"nonce","type":"uint256","internalType":"uint256"},{"name":"expiry","type":"uint256","internalType":"uint256"},{"name":"v","type":"uint8","internalType":"uint8"},{"name":"r","type":"bytes32","internalType":"bytes32"},{"name":"s","type":"bytes32","internalType":"bytes32"}],"outputs":[],"stateMutability":"nonpayable"},{"type":"function","name":"delegates","inputs":[{"name":"account","type":"address","internalType":"address"}],"outputs":[{"name":"","type":"address","internalType":"address"}],"stateMutability":"view"},{"type":"function","name":"eip712Domain","inputs":[],"outputs":[{"name":"fields","type":"bytes1","internalType":"bytes1"},{"name":"name","type":"string","internalType":"string"},{"name":"version","type":"string","internalType":"string"},{"name":"chainId","type":"uint256","internalType":"uint256"},{"name":"verifyingContract","type":"address","internalType":"address"},{"name":"salt","type":"bytes32","internalType":"bytes32"},{"name":"extensions","type":"uint256[]","internalType":"uint256[]"}],"stateMutability":"view"},{"type":"function","name":"getApproved","inputs":[{"name":"tokenId","type":"uint256","internalType":"uint256"}],"outputs":[{"name":"","type":"address","internalType":"address"}],"stateMutability":"view"},{"type":"function","name":"getPastTotalSupply","inputs":[{"name":"timepoint","type":"uint256","internalType":"uint256"}],"outputs":[{"name":"","type":"uint256","internalType":"uint256"}],"stateMutability":"view"},{"type":"function","name":"getPastVotes","inputs":[{"name":"account","type":"address","internalType":"address"},{"name":"timepoint","type":"uint256","internalType":"uint256"}],"outputs":[{"name":"","type":"uint256","internalType":"uint256"}],"stateMutability":"view"},{"type":"function","name":"getVotes","inputs":[{"name":"account","type":"address","internalType":"address"}],"outputs":[{"name":"","type":"uint256","internalType":"uint256"}],"stateMutability":"view"},{"type":"function","name":"isApprovedForAll","inputs":[{"name":"owner","type":"address","internalType":"address"},{"name":"operator","type":"address","internalType":"address"}],"outputs":[{"name":"","type":"bool","internalType":"bool"}],"stateMutability":"view"},{"type":"function","name":"name","inputs":[],"outputs":[{"name":"","type":"string","internalType":"string"}],"stateMutability":"view"},{"type":"function","name":"nonces","inputs":[{"name":"owner","type":"address","internalType":"address"}],"outputs":[{"name":"","type":"uint256","internalType":"uint256"}],"stateMutability":"view"},{"type":"function","name":"ownerOf","inputs":[{"name":"tokenId","type":"uint256","internalType":"uint256"}],"outputs":[{"name":"","type":"address","internalType":"address"}],"stateMutability":"view"},{"type":"function","name":"paused","inputs":[],"outputs":[{"name":"","type":"bool","internalType":"bool"}],"stateMutability":"view"},{"type":"function","name":"safeTransferFrom","inputs":[{"name":"from","type":"address","internalType":"address"},{"name":"to","type":"address","internalType":"address"},{"name":"tokenId","type":"uint256","internalType":"uint256"}],"outputs":[],"stateMutability":"nonpayable"},{"type":"function","name":"safeTransferFrom","inputs":[{"name":"from","type":"address","internalType":"address"},{"name":"to","type":"address","internalType":"address"},{"name":"tokenId","type":"uint256","internalType":"uint256"},{"name":"data","type":"bytes","internalType":"bytes"}],"outputs":[],"stateMutability":"nonpayable"},{"type":"function","name":"setApprovalForAll","inputs":[{"name":"operator","type":"address","internalType":"address"},{"name":"approved","type":"bool","internalType":"bool"}],"outputs":[],"stateMutability":"nonpayable"},{"type":"function","name":"supportsInterface","inputs":[{"name":"interfaceId","type":"bytes4","internalType":"bytes4"}],"outputs":[{"name":"","type":"bool","internalType":"bool"}],"stateMutability":"view"},{"type":"function","name":"symbol","inputs":[],"outputs":[{"name":"","type":"string","internalType":"string"}],"stateMutability":"view"},{"type":"function","name":"tokenURI","inputs":[{"name":"tokenId","type":"uint256","internalType":"uint256"}],"outputs":[{"name":"","type":"string","internalType":"string"}],"stateMutability":"view"},{"type":"function","name":"transferFrom","inputs":[{"name":"from","type":"address","internalType":"address"},{"name":"to","type":"address","internalType":"address"},{"name":"tokenId","type":"uint256","internalType":"uint256"}],"outputs":[],"stateMutability":"nonpayable"},{"type":"event","name":"Approval","inputs":[{"name":"owner","type":"address","indexed":true,"internalType":"address"},{"name":"approved","type":"address","indexed":true,"internalType":"address"},{"name":"tokenId","type":"uint256","indexed":true,"internalType":"uint256"}],"anonymous":false},{"type":"event","name":"ApprovalForAll","inputs":[{"name":"owner","type":"address","indexed":true,"internalType":"address"},{"name":"operator","type":"address","indexed":true,"internalType":"address"},{"name":"approved","type":"bool","indexed":false,"internalType":"bool"}],"anonymous":false},{"type":"event","name":"ConsecutiveTransfer","inputs":[{"name":"fromTokenId","type":"uint256","indexed":true,"internalType":"uint256"},{"name":"toTokenId","type":"uint256","indexed":false,"internalType":"uint256"},{"name":"fromAddress","type":"address","indexed":true,"internalType":"address"},{"name":"toAddress","type":"address","indexed":true,"internalType":"address"}],"anonymous":false},{"type":"event","name":"DelegateChanged","inputs":[{"name":"delegator","type":"address","indexed":true,"internalType":"address"},{"name":"fromDelegate","type":"address","indexed":true,"internalType":"address"},{"name":"toDelegate","type":"address","indexed":true,"internalType":"address"}],"anonymous":false},{"type":"event","name":"DelegateVotesChanged","inputs":[{"name":"delegate","type":"address","indexed":true,"internalType":"address"},{"name":"previousVotes","type":"uint256","indexed":false,"internalType":"uint256"},{"name":"newVotes","type":"uint256","indexed":false,"internalType":"uint256"}],"anonymous":false},{"type":"event","name":"EIP712DomainChanged","inputs":[],"anonymous":false},{"type":"event","name":"Paused","inputs":[{"name":"account","type":"address","indexed":false,"internalType":"address"}],"anonymous":false},{"type":"event","name":"Transfer","inputs":[{"name":"from","type":"address","indexed":true,"internalType":"address"},{"name":"to","type":"address","indexed":true,"internalType":"address"},{"name":"tokenId","type":"uint256","indexed":true,"internalType":"uint256"}],"anonymous":false},{"type":"event","name":"Unpaused","inputs":[{"name":"account","type":"address","indexed":false,"internalType":"address"}],"anonymous":false},{"type":"error","name":"CheckpointUnorderedInsertion","inputs":[]},{"type":"error","name":"ECDSAInvalidSignature","inputs":[]},{"type":"error","name":"ECDSAInvalidSignatureLength","inputs":[{"name":"length","type":"uint256","internalType":"uint256"}]},{"type":"error","name":"ECDSAInvalidSignatureS","inputs":[{"name":"s","type":"bytes32","internalType":"bytes32"}]},{"type":"error","name":"ERC5805FutureLookup","inputs":[{"name":"timepoint","type":"uint256","internalType":"uint256"},{"name":"clock","type":"uint48","internalType":"uint48"}]},{"type":"error","name":"ERC6372InconsistentClock","inputs":[]},{"type":"error","name":"ERC721ExceededMaxBatchMint","inputs":[{"name":"batchSize","type":"uint256","internalType":"uint256"},{"name":"maxBatch","type":"uint256","internalType":"uint256"}]},{"type":"error","name":"ERC721ForbiddenBatchBurn","inputs":[]},{"type":"error","name":"ERC721ForbiddenBatchMint","inputs":[]},{"type":"error","name":"ERC721ForbiddenMint","inputs":[]},{"type":"error","name":"ERC721IncorrectOwner","inputs":[{"name":"sender","type":"address","internalType":"address"},{"name":"tokenId","type":"uint256","internalType":"uint256"},{"name":"owner","type":"address","internalType":"address"}]},{"type":"error","name":"ERC721InsufficientApproval","inputs":[{"name":"operator","type":"address","internalType":"address"},{"name":"tokenId","type":"uint256","internalType":"uint256"}]},{"type":"error","name":"ERC721InvalidApprover","inputs":[{"name":"approver","type":"address","internalType":"address"}]},{"type":"error","name":"ERC721InvalidOperator","inputs":[{"name":"operator","type":"address","internalType":"address"}]},{"type":"error","name":"ERC721InvalidOwner","inputs":[{"name":"owner","type":"address","internalType":"address"}]},{"type":"error","name":"ERC721InvalidReceiver","inputs":[{"name":"receiver","type":"address","internalType":"address"}]},{"type":"error","name":"ERC721InvalidSender","inputs":[{"name":"sender","type":"address","internalType":"address"}]},{"type":"error","name":"ERC721NonexistentToken","inputs":[{"name":"tokenId","type":"uint256","internalType":"uint256"}]},{"type":"error","name":"EnforcedPause","inputs":[]},{"type":"error","name":"ExpectedPause","inputs":[]},{"type":"error","name":"InvalidAccountNonce","inputs":[{"name":"account","type":"address","internalType":"address"},{"name":"currentNonce","type":"uint256","internalType":"uint256"}]},{"type":"error","name":"InvalidShortString","inputs":[]},{"type":"error","name":"SafeCastOverflowedUintDowncast","inputs":[{"name":"bits","type":"uint8","internalType":"uint8"},{"name":"value","type":"uint256","internalType":"uint256"}]},{"type":"error","name":"StringTooLong","inputs":[{"name":"str","type":"string","internalType":"string"}]},{"type":"error","name":"VotesExpiredSignature","inputs":[{"name":"expiry","type":"uint256","internalType":"uint256"}]}],"bytecode":{"object":"0x6101806040523461007c57610021610015610220565b9493909392919261032a565b604051611e1f90816112348239608051816117d4015260a05181611891015260c0518161179e015260e0518161182301526101005181611849015261012051816107b9015261014051816107e201526101605181611aec0152f35b5f80fd5b634e487b7160e01b5f52604160045260245ffd5b601f909101601f19168101906001600160401b038211908210176100b757604052565b610080565b604051906100cb604083610094565b565b81601f8201121561007c578051906001600160401b0382116100b75760405192610101601f8401601f191660200185610094565b8284526020838301011161007c57815f9260208093018386015e8301015290565b51906001600160601b038216820361007c57565b6001600160401b0381116100b75760051b60200190565b9080601f8301121561007c5781519061016582610136565b926101736040519485610094565b82845260208085019360051b82010191821161007c57602001915b81831061019b5750505090565b82516001600160a01b038116810361007c5781526020928301920161018e565b9080601f8301121561007c5781516101d281610136565b926101e06040519485610094565b81845260208085019260051b82010192831161007c57602001905b8282106102085750505090565b6020809161021584610122565b8152019101906101fb565b6130939081380380604051936102368286610094565b843982019160c08184031261007c5780516001600160401b03811161007c57836102619183016100cd565b60208201519093906001600160401b03811161007c57816102839184016100cd565b9361029060408401610122565b60608401519094906001600160401b03811161007c57836102b291860161014d565b60808501519094906001600160401b03811161007c57846102d491830161014d565b60a08201519094906001600160401b03811161007c576102f492016101bb565b91959493929190565b634e487b7160e01b5f52603260045260245ffd5b80518210156103255760209160051b010190565b6102fd565b9061035791969396959495604051610343604082610094565b60018152603160f81b6020820152816103ef565b610160525f5b845181101561039f578061039961038661037960019489610311565b516001600160a01b031690565b610393610379848a610311565b90610708565b0161035d565b50919092505f5b81518110156103e957806103e26103c261037960019486610311565b6103dc6103cf8489610311565b516001600160601b031690565b906107de565b50016103a6565b50509050565b8251919390929091906001600160401b0382116100b757610419826104145f5461053b565b610573565b602090601f83116001146104a357918061044d9261045495945f92610498575b50508160011b915f199060031b1c19161790565b5f5561062f565b61045d816108cf565b6101205261046a826109c4565b610140526020815191012060e05260208151910120610100524660a05261048f610ab6565b6080523060c052565b015190505f80610439565b5f8052601f19831691907f290decd9548b62a8d60345a988386fc84ba6bc95484008f6362f93160ef3e563925f5b8181106105105750916001939185610454979694106104f8575b505050811b015f5561062f565b01515f1960f88460031b161c191690555f80806104eb565b929360206001819287860151815501950193016104d1565b634e487b7160e01b5f525f60045260245ffd5b90600182811c92168015610569575b602083101461055557565b634e487b7160e01b5f52602260045260245ffd5b91607f169161054a565b90601f8211610580575050565b80821161058b575050565b5f805260205f206020601f830160051c92106105c9575b81601f9101920160051c03905f5b8281106105bc57505050565b5f828201556001016105b0565b5f91506105a2565b919091601f83116105e2575b505050565b8183116105ee57505050565b5f5260205f206020601f830160051c9210610627575b81601f9101920160051c03905f5b828110156105dd575f82820155600101610612565b5f9150610604565b80519091906001600160401b0381116100b7576106588161065160015461053b565b60016105d1565b602092601f821160011461068c57610687929382915f926104985750508160011b915f199060031b1c19161790565b600155565b60015f52601f198216937fb10e2d527612073b26eecdfd717e6a320cf44b4afac2b0732d9fcbe2b7fa0cf6915f5b8681106106f057508360019596106106d8575b505050811b01600155565b01515f1960f88460031b161c191690555f80806106cd565b919260206001819286850151815501940192016106ba565b6001600160a01b039081165f818152600c6020526040812080548585166001600160a01b0319821681179092559294929093169290839085907f3134e8a2e6d97e929a7e54011ea5485d7d196dd5f0ba4d4ef95803e8e3fc257f9080a48215610781576100cb925f52600360205260405f205491610b14565b6322718ad960e21b5f525f60045260245ffd5b634e487b7160e01b5f52601160045260245ffd5b6001600160601b0391821690821601919082116107c157565b610794565b6001600160601b039081165f1901919082116107c157565b906107e7610c10565b916001600160601b038216806107fe575b50505090565b303b6108c0576001600160a01b0382169283156108ac5761138880831161088c57505f929161083861083361084a93886107a8565b6107c6565b926108438685610ed8565b5050610fd7565b6040516001600160601b039182168152908416907fdeaa91b6123d068f5821d0fb0678463d1a8a6079fe8af5de3ce5e896dcf9133d90602090a45f80806107f8565b6308f58e5760e41b5f526001600160601b0390911660045260245260445ffd5b633250574960e11b5f90815260045260245ffd5b6329cfc83160e11b5f5260045ffd5b908151602081105f146108ea5750906108e790610c48565b90565b6001600160401b0381116100b75761090e8161090760095461053b565b60096105d1565b602092601f82116001146109455761093d929382915f926104985750508160011b915f199060031b1c19161790565b60095560ff90565b60095f52601f198216937f6e1540171b6c0c960b71a7020d9f60077f6af931a8bbf590da0223dacf75c7af915f5b8681106109ac5750836001959610610994575b505050811b0160095560ff90565b01515f1960f88460031b161c191690555f8080610986565b91926020600181928685015181550194019201610973565b908151602081105f146109dc5750906108e790610c48565b6001600160401b0381116100b757610a00816109f9600a5461053b565b600a6105d1565b602092601f8211600114610a3757610a2f929382915f926104985750508160011b915f199060031b1c19161790565b600a5560ff90565b600a5f52601f198216937fc65a7bb8d6351c1cf70c95a316cc6a92839c986682d98bc35f958f4883f9d2a8915f5b868110610a9e5750836001959610610a86575b505050811b01600a5560ff90565b01515f1960f88460031b161c191690555f8080610a78565b91926020600181928685015181550194019201610a65565b60e051610100516040519060208201927f8b73c3c69bb8fe3d512ecc4cf759cc79239f7b179b0ffacaa9a75d522b39400f8452604083015260608201524660808201523060a082015260a08152610b0e60c082610094565b51902090565b6001600160a01b03808316939291908116908185141580610c07575b610b3c575b5050505050565b81610bad575b505082610b51575b8080610b35565b6001600160a01b03165f908152600d602052604090205f5160206130735f395f51905f5291610b8a91610b849091610cb3565b90610d5c565b604080516001600160d01b039384168152919092166020820152a25f8080610b4a565b6001600160a01b03165f908152600d602052604090205f5160206130735f395f51905f5290610be590610bdf86610cb3565b90610ce4565b604080516001600160d01b039384168152919092166020820152a25f80610b42565b50831515610b30565b610c18610e19565b509015610c37576001600160601b039081166001019081116107c15790565b50610160516001600160601b031690565b601f815111610c73576020815191015160208210610c64571790565b5f198260200360031b1b161790565b604460209160405192839163305a27a960e01b83528160048401528051918291826024860152018484015e5f828201840152601f01601f19168101030190fd5b6001600160d01b038111610ccd576001600160d01b031690565b6306dfcc6560e41b5f5260d060045260245260445ffd5b65ffffffffffff4311610d4457805480610d1d5750610d09610d19925f5b60026111d7565b9065ffffffffffff431690611119565b9091565b805f198101116107c1575f82815260209020015f190154610d1992610d099160301c610d02565b6306dfcc6560e41b5f5260306004524360245260445ffd5b65ffffffffffff4311610d4457805480610d815750610d09610d19925f5b60016111d7565b805f198101116107c1575f82815260209020015f190154610d1992610d099160301c610d7a565b65ffffffffffff4311610d4457600e5480610ddd5750610dcd610d19915f60026111d7565b65ffffffffffff4316600e611119565b805f198101116107c157600e5f525f5160206130535f395f51905f520154610d1991610dcd9160301c610d02565b5f198101919082116107c157565b60065480610e2a57505f905f905f90565b805f198101116107c15760065f527ff652222313e28459528d920b65115c16c04f3efc82aaedc97be59f3f377c0d3e01546001916001600160601b0382169160601c90565b8054821015610325575f5260205f2001905f90565b8054680100000000000000008110156100b757610ea691600182018155610e6f565b610ed357815160209092015160601b6001600160601b0319166001600160601b0392909216919091179055565b610528565b6006549192918015610fae57610ef0610f1991610e0b565b60065f527ff652222313e28459528d920b65115c16c04f3efc82aaedc97be59f3f377c0d3f0190565b8054606081901c92916001600160601b03918216918316808311610f9f57869203610f685780546001600160601b031660609290921b6001600160601b031916919091179055509190565b9190565b5050610f6490610f88610f796100bc565b6001600160601b039092168252565b6001600160a01b03851660208201525b6006610e84565b632520601d60e01b5f5260045ffd5b50610fd290610fbe610f796100bc565b6001600160a01b0384166020820152610f98565b5f9190565b6001600160a01b03165f81815260036020526040902080546001600160801b0390931692830190559061100981610cb3565b9165ffffffffffff4311610d4457600e54806110965750611032610dcd6100cb945f60016111d7565b5050801561107e575b600c6020527f13649b2456f1b42fef0f0040b3aaeabcd21a76a0f3f5defd4f583839455116e8545f9182526040909120546001600160a01b039081169116610b14565b61108f61108a83610cb3565b610da8565b505061103b565b92835f198101116107c157600e5f525f5160206130535f395f51905f52909301546100cb9361103291610dcd919060301c610d7a565b8054680100000000000000008110156100b7576110ee91600182018155610e6f565b610ed357815160209092015160301b65ffffffffffff191665ffffffffffff92909216919091179055565b805492939280156111b25761113061113b91610e0b565b825f5260205f200190565b8054603081901c9365ffffffffffff91821692918116808411610f9f5787930361117e5750610f6492509065ffffffffffff82549181199060301b169116179055565b915050610f649161119e6111906100bc565b65ffffffffffff9093168352565b6001600160d01b03861660208301526110cc565b5090610fd2916111c36111906100bc565b6001600160d01b03851660208301526110cc565b91909180600214611216576001146111fd57634e487b7160e01b5f52605160045260245ffd5b6001600160d01b03918216908216019081116107c15790565b506001600160d01b03908116918116919091039081116107c1579056fe60806040526004361015610011575f80fd5b5f3560e01c806301ffc9a71461019457806306fdde031461018f578063081812fc1461018a578063095ea7b31461018557806323b872dd146101805780633a46b1a81461017b57806342842e0e146101765780634bf5d7e914610171578063587cde1e1461016c5780635c19a95c146101675780635c975abb146101625780636352211e1461015d57806370a08231146101585780637ecebe001461015357806384b0196e1461014e5780638e539e8c1461014957806391ddadf41461014457806395d89b411461013f5780639ab24eb01461013a578063a22cb46514610135578063b88d4fde14610130578063c3cda5201461012b578063c87b56dd146101265763e985e9c514610121575f80fd5b610d6b565b610d16565b610c32565b610baa565b610a74565b610a2d565b610988565b61095d565b61089e565b6107a1565b610769565b61073e565b61070e565b6106ec565b6106ca565b61068a565b6105fa565b6105d1565b6104ec565b6104d5565b610394565b61032c565b610255565b6101af565b6001600160e01b03198116036101ab57565b5f80fd5b346101ab5760203660031901126101ab5760206004356101ce81610199565b63ffffffff60e01b166380ac58cd60e01b811490811561020c575b81156101fb575b506040519015158152f35b6301ffc9a760e01b1490505f6101f0565b635b5e139f60e01b811491506101e9565b805180835260209291819084018484015e5f828201840152601f01601f1916010190565b90602061025292818152019061021d565b90565b346101ab575f3660031901126101ab576040515f5f5461027481610ddb565b808452906001811690811561030857506001146102ac575b6102a88361029c81850382610b56565b60405191829182610241565b0390f35b5f8080527f290decd9548b62a8d60345a988386fc84ba6bc95484008f6362f93160ef3e563939250905b8082106102ee5750909150810160200161029c61028c565b9192600181602092548385880101520191019092916102d6565b60ff191660208086019190915291151560051b8401909101915061029c905061028c565b346101ab5760203660031901126101ab57600435610349816111bc565b505f526004602052602060018060a01b0360405f205416604051908152f35b600435906001600160a01b03821682036101ab57565b602435906001600160a01b03821682036101ab57565b346101ab5760403660031901126101ab576103ad610368565b602435906103ba826111bc565b33151580610488575b8061044a575b61043757610435926104169181906001600160a01b0385811691167f8c5be1e5ebec7d5bd14f71427d1e84f3dd0314c0f7b2291e5b200ac8c7c3b9255f80a45f52600460205260405f2090565b80546001600160a01b0319166001600160a01b03909216919091179055565b005b63a9fbf51f60e01b5f523360045260245ffd5b5060ff6104803361046b8460018060a01b03165f52600560205260405f2090565b9060018060a01b03165f5260205260405f2090565b5416156103c9565b506001600160a01b0381163314156103c3565b60609060031901126101ab576004356001600160a01b03811681036101ab57906024356001600160a01b03811681036101ab579060443590565b346101ab576104356104e63661049b565b91610e94565b346101ab5760403660031901126101ab57610505610368565b6001600160a01b03165f908152600d602052604090206105266024356111eb565b8154905f829160058411610579575b61054093508461159c565b908161055e57505060205f5b6040516001600160d01b039091168152f35b610569602092611224565b905f52815f20015460301c61054c565b91926105848161143e565b81039081116105cc5761054093855f5265ffffffffffff8260205f2001541665ffffffffffff8516105f146105ba575091610535565b9291506105c690611232565b90610535565b610dc7565b346101ab576104356105e23661049b565b90604051926105f2602085610b56565b5f84526110c1565b346101ab575f3660031901126101ab576106134361140f565b65ffffffffffff806106244361140f565b1691160361067b576102a860405161063d604082610b56565b601d81527f6d6f64653d626c6f636b6e756d6265722666726f6d3d64656661756c74000000602082015260405191829160208352602083019061021d565b6301bfc1c560e61b5f5260045ffd5b346101ab5760203660031901126101ab576001600160a01b036106ab610368565b165f52600c602052602060018060a01b0360405f205416604051908152f35b346101ab5760203660031901126101ab576104356106e6610368565b33611240565b346101ab575f3660031901126101ab57602060ff600854166040519015158152f35b346101ab5760203660031901126101ab57602061072c6004356111bc565b6040516001600160a01b039091168152f35b346101ab5760203660031901126101ab57602061076161075c610368565b611090565b604051908152f35b346101ab5760203660031901126101ab576001600160a01b0361078a610368565b165f52600b602052602060405f2054604051908152f35b346101ab575f3660031901126101ab576108456107dd7f000000000000000000000000000000000000000000000000000000000000000061171a565b6108067f000000000000000000000000000000000000000000000000000000000000000061176b565b60206040516108158282610b56565b5f81528161085381830194601f198301368737604051978897600f60f81b895260e0858a015260e089019061021d565b90878203604089015261021d565b914660608701523060808701525f60a087015285830360c087015251918281520192915f5b82811061088757505050500390f35b835185528695509381019392810192600101610878565b346101ab5760203660031901126101ab576108ba6004356111eb565b600e54905f829160058411610909575b6108d69350600e61159c565b806108e757506040515f8152602090f35b6109046108f5602092611224565b600e5f52825f20015460301c90565b61054c565b91926109148161143e565b81039081116105cc576108d693600e5f5265ffffffffffff8260205f2001541665ffffffffffff8516105f1461094b5750916108ca565b92915061095790611232565b906108ca565b346101ab575f3660031901126101ab5760206109784361140f565b65ffffffffffff60405191168152f35b346101ab575f3660031901126101ab576040515f6001546109a881610ddb565b808452906001811690811561030857506001146109cf576102a88361029c81850382610b56565b60015f9081527fb10e2d527612073b26eecdfd717e6a320cf44b4afac2b0732d9fcbe2b7fa0cf6939250905b808210610a135750909150810160200161029c61028c565b9192600181602092548385880101520191019092916109fb565b346101ab5760203660031901126101ab576001600160a01b03610a4e610368565b165f52600d602052602060018060d01b03610a6b60405f206112b3565b16604051908152f35b346101ab5760403660031901126101ab57610a8d610368565b60243580151581036101ab573315610b2f576001600160a01b038216918215610b1c5781610ad9610aea92335f52600560205260405f209060018060a01b03165f5260205260405f2090565b9060ff801983541691151516179055565b604051901515815233907f17307eab39ab6107e8899845ad3d59bd9653f200f220920489ca2b5937696c3190602090a3005b82630b61174360e31b5f5260045260245ffd5b63a9fbf51f60e01b5f525f60045260245ffd5b634e487b7160e01b5f52604160045260245ffd5b90601f8019910116810190811067ffffffffffffffff821117610b7857604052565b610b42565b60405190610b8c604083610b56565b565b67ffffffffffffffff8111610b7857601f01601f191660200190565b346101ab5760803660031901126101ab57610bc3610368565b610bcb61037e565b906044356064359267ffffffffffffffff84116101ab57366023850112156101ab57836004013592610bfc84610b8e565b93610c0a6040519586610b56565b80855236602482880101116101ab576020815f926024610435990183890137860101526110c1565b346101ab5760c03660031901126101ab57610c4b610368565b6044359060243560643560ff811681036101ab5760843560a43591854211610d035791610cf791610cfe9360426104359860405160208101917fe48329057bfd03d55e49b547132e39cffd9c1820ad7b9d4c5307691425d15adf835260018060a01b038b166040830152896060830152608082015260808152610ccf60a082610b56565b519020610cda61179b565b906040519161190160f01b83526002830152602282015220611352565b918261136a565b611240565b85632341d78760e11b5f5260045260245ffd5b346101ab5760203660031901126101ab57610d326004356111bc565b505f604051610d42602082610b56565b526102a8604051610d54602082610b56565b5f815260405191829160208352602083019061021d565b346101ab5760403660031901126101ab57602060ff610dbb610d8b610368565b610d9361037e565b6001600160a01b039182165f9081526005865260408082209290931681526020919091522090565b54166040519015158152f35b634e487b7160e01b5f52601160045260245ffd5b90600182811c92168015610e09575b6020831014610df557565b634e487b7160e01b5f52602260045260245ffd5b91607f1691610dea565b5f9291815491610e2283610ddb565b8083529260018116908115610e775750600114610e3e57505050565b5f9081526020812093945091925b838310610e5d575060209250010190565b600181602092949394548385870101520191019190610e4c565b915050602093945060ff929192191683830152151560051b010190565b9091906001600160a01b038316801561107d5760ff6008541661106e57610eba836119de565b9333151580610fc8575b506001600160a01b0385169182159085908215610f9c575b6001600160a01b0384165f90815260036020526040902060018154019055610f1084610416845f52600260205260405f2090565b847fddf252ad1be2c89b69c2b068fc378daa952ba7f163c4a11628f55a4df523b3ef5f80a480610f93575b610f8457610f499085611b23565b6001600160a01b03821603610f5d57505050565b6364283d7b60e01b5f526001600160a01b039081166004526024919091521660445260645ffd5b6356c4a82960e11b5f5260045ffd5b50303b15610f3b565b610fa5826113ed565b6001600160a01b0388165f90815260036020526040902080545f19019055610edc565b80611010575b15610fd9575f610ec4565b836001600160a01b038616610ffa57637e27328960e01b5f5260045260245ffd5b63177e802f60e01b5f523360045260245260445ffd5b506001600160a01b03851633811490811561104b575b5080610fce57505f848152600460205260409020546001600160a01b03163314610fce565b5f90815260056020908152604080832033845290915281205460ff169150611026565b63d93c066560e01b5f5260045ffd5b633250574960e11b5f525f60045260245ffd5b6001600160a01b031680156110ae575f52600360205260405f205490565b6322718ad960e21b5f525f60045260245ffd5b9092916110cf818584610e94565b833b6110dc575b50505050565b6020916110fe6040519485938493630a85bd0160e11b855233600486016112f2565b03815f6001600160a01b0387165af15f918161118b575b5061114f5750611123611323565b805191908261114857633250574960e11b5f526001600160a01b03821660045260245ffd5b6020915001fd5b6001600160e01b03191663757a42ff60e11b0161117057505f8080806110d6565b633250574960e11b5f526001600160a01b031660045260245ffd5b6111ae91925060203d6020116111b5575b6111a68183610b56565b8101906112dd565b905f611115565b503d61119c565b6111c5816119de565b906001600160a01b038216156111d9575090565b637e27328960e01b5f5260045260245ffd5b65ffffffffffff6111fb4361140f565b168082101561120e57506102529061140f565b90637669fc0f60e11b5f5260045260245260445ffd5b5f198101919082116105cc57565b90600182018092116105cc57565b6001600160a01b038181165f818152600c6020526040902080546001600160a01b0319811684871617909155610b8c949216926112ad916001600160a01b0384169085907f3134e8a2e6d97e929a7e54011ea5485d7d196dd5f0ba4d4ef95803e8e3fc257f5f80a4611090565b916115f8565b805490816112c15750505f90565b815f198101116105cc575f525f199060205f2001015460301c90565b908160209103126101ab575161025281610199565b6001600160a01b0391821681529116602082015260408101919091526080606082018190526102529291019061021d565b3d1561134d573d9061133482610b8e565b916113426040519384610b56565b82523d5f602084013e565b606090565b916102529391611361936118b7565b90929192611962565b6001600160a01b03165f818152600b6020526040902080546001810190915591829003611395575050565b6301d4b62360e61b5f5260045260245260445ffd5b604080519091906113bb8382610b56565b60208152918290601f190190369060200137565b81156113d9570490565b634e487b7160e01b5f52601260045260245ffd5b6113ff905f52600460205260405f2090565b80546001600160a01b0319169055565b65ffffffffffff81116114275765ffffffffffff1690565b6306dfcc6560e41b5f52603060045260245260445ffd5b600181111561025257806001600160801b82101561155f575b6115056114fb6114f16114e76114dd6114d36114c261150c9760048a600160401b6115119c1015611552575b640100000000811015611545575b62010000811015611538575b61010081101561152b575b601081101561151e575b1015611516575b60030260011c90565b6114cc818b6113cf565b0160011c90565b6114cc818a6113cf565b6114cc81896113cf565b6114cc81886113cf565b6114cc81876113cf565b6114cc81866113cf565b80936113cf565b821190565b900390565b60011b6114b9565b60041c9160021b916114b2565b60081c9160041b916114a8565b60101c9160081b9161149d565b60201c9160101b91611491565b60401c9160201b91611483565b505061151161150c6115056114fb6114f16114e76114dd6114d36114c26115868a60801c90565b9850600160401b97506114579650505050505050565b905b8383106115ab5750505090565b90919280841860011c8185160190835f5265ffffffffffff8260205f2001541665ffffffffffff8416105f146115e55750925b919061159e565b935060018101809111156115de57610dc7565b6001600160a01b03808316939291908116908185141580611711575b611620575b5050505050565b816116a4575b505082611635575b8080611619565b6001600160a01b03165f908152600d602052604090207fdec2bacdd2f05b59de34da9b523dff8be42e5e38e818c82fdb0bae774387a724916116819161167b9091611bdf565b90611c48565b604080516001600160d01b039384168152919092166020820152a25f808061162e565b6001600160a01b03165f908152600d602052604090207fdec2bacdd2f05b59de34da9b523dff8be42e5e38e818c82fdb0bae774387a724906116ef906116e986611bdf565b90611c10565b604080516001600160d01b039384168152919092166020820152a25f80611626565b50831515611614565b60ff81146117515760ff811690601f8211611742576117376113aa565b918252602082015290565b632cd44ac360e21b5f5260045ffd5b5060405161025281611764816009610e13565b0382610b56565b60ff81146117885760ff811690601f8211611742576117376113aa565b506040516102528161176481600a610e13565b307f00000000000000000000000000000000000000000000000000000000000000006001600160a01b0316148061188e575b156117f6577f000000000000000000000000000000000000000000000000000000000000000090565b60405160208101907f8b73c3c69bb8fe3d512ecc4cf759cc79239f7b179b0ffacaa9a75d522b39400f82527f000000000000000000000000000000000000000000000000000000000000000060408201527f000000000000000000000000000000000000000000000000000000000000000060608201524660808201523060a082015260a0815261188860c082610b56565b51902090565b507f000000000000000000000000000000000000000000000000000000000000000046146117cd565b91907f7fffffffffffffffffffffffffffffff5d576e7357a4501ddfe92f46681b20a08411611939579160209360809260ff5f9560405194855216868401526040830152606082015282805260015afa1561192e575f516001600160a01b0381161561192457905f905f90565b505f906001905f90565b6040513d5f823e3d90fd5b5050505f9160039190565b6004111561194e57565b634e487b7160e01b5f52602160045260245ffd5b61196b81611944565b80611974575050565b61197d81611944565b600181036119945763f645eedf60e01b5f5260045ffd5b61199d81611944565b600281036119b8575063fce698f760e01b5f5260045260245ffd5b806119c4600392611944565b146119cc5750565b6335e2f38360e21b5f5260045260245ffd5b5f818152600260205260409020546001600160a01b03168015801590611b13575b8015611ae1575b611adc5750611a2c8160ff6001918060081c5f526007602052161b60405f205416151590565b15611a3657505f90565b6001600160601b03166006549081905f5b838110611a9b5750508103611a6857506102525f5b6001600160a01b031690565b60065f527ff652222313e28459528d920b65115c16c04f3efc82aaedc97be59f3f377c0d3f01546102529060601c611a5c565b80841681851860011c019060065f52826001600160601b038360205f20015416105f14611ad457506001810180911115611a4757610dc7565b935092611a47565b905090565b506001600160601b037f0000000000000000000000000000000000000000000000000000000000000000168210611a06565b506001600160601b0382116119ff565b6001600160a01b0316908115611b8b575b610b8c916001916001600160a01b0316908115611b73575b5f908152600c60205260408082205492825290205460a083901b83900390811691166115f8565b611b84611b7f84611bdf565b611c7c565b5050611b4c565b611b956001611bdf565b91611b9f4361140f565b92611baa600e6112b3565b6001600160d01b0391821690821601929083116105cc57610b8c93600193611bd391600e611d13565b90505091509150611b34565b6001600160d01b038111611bf9576001600160d01b031690565b6306dfcc6560e41b5f5260d060045260245260445ffd5b90611c1a4361140f565b90611c24836112b3565b6001600160d01b0391821690821603919082116105cc57611c4492611d13565b9091565b90611c524361140f565b90611c5c836112b3565b6001600160d01b0391821690821601919082116105cc57611c4492611d13565b611c854361140f565b90611c90600e6112b3565b6001600160d01b03918216908216039081116105cc57611c4491600e611d13565b908154600160401b811015610b785760018101808455811015611cff575f9283526020928390208251929093015160301b65ffffffffffff191665ffffffffffff9290921691909117910155565b634e487b7160e01b5f52603260045260245ffd5b80549293928015611dbf57611d2a611d3591611224565b825f5260205f200190565b8054603081901c9365ffffffffffff91821692918116808411611db057879303611d7c5750611d7892509065ffffffffffff82549181199060301b169116179055565b9190565b915050611d7891611d9c611d8e610b7d565b65ffffffffffff9093168352565b6001600160d01b0386166020830152611cb1565b632520601d60e01b5f5260045ffd5b5090611de491611dd0611d8e610b7d565b6001600160d01b0385166020830152611cb1565b5f919056fea2646970667358221220b876334ae85cb3d0d3816c3db019ef31e5808bce91616404e6ad31f666c8058664736f6c63430008210033bb7b4a454dc3493923482f07822329ed19e8244eff582cc204f8554c3620c3fcdec2bacdd2f05b59de34da9b523dff8be42e5e38e818c82fdb0bae774387a724","linkReferences":{}},"methodIdentifiers":{"CLOCK_MODE()":"4bf5d7e9","approve(address,uint256)":"095ea7b3","balanceOf(address)":"70a08231","clock()":"91ddadf4","delegate(address)":"5c19a95c","delegateBySig(address,uint256,uint256,uint8,bytes32,bytes32)":"c3cda520","delegates(address)":"587cde1e","eip712Domain()":"84b0196e","getApproved(uint256)":"081812fc","getPastTotalSupply(uint256)":"8e539e8c","getPastVotes(address,uint256)":"3a46b1a8","getVotes(address)":"9ab24eb0","isApprovedForAll(address,address)":"e985e9c5","name()":"06fdde03","nonces(address)":"7ecebe00","ownerOf(uint256)":"6352211e","paused()":"5c975abb","safeTransferFrom(address,address,uint256)":"42842e0e","safeTransferFrom(address,address,uint256,bytes)":"b88d4fde","setApprovalForAll(address,bool)":"a22cb465","supportsInterface(bytes4)":"01ffc9a7","symbol()":"95d89b41","tokenURI(uint256)":"c87b56dd","transferFrom(address,address,uint256)":"23b872dd"},"id":261}