{"abi":[{"type":"function","name":"allowance","inputs":[{"name":"owner","type":"address","internalType":"address"},{"name":"spender","type":"address","internalType":"address"}],"outputs":[{"name":"","type":"uint256","internalType":"uint256"}],"stateMutability":"view"},{"type":"function","name":"approve","inputs":[{"name":"spender","type":"address","internalType":"address"},{"name":"value","type":"uint256","internalType":"uint256"}],"outputs":[{"name":"","type":"bool","internalType":"bool"}],"stateMutability":"nonpayable"},{"type":"function","name":"balanceOf","inputs":[{"name":"account","type":"address","internalType":"address"}],"outputs":[{"name":"","type":"uint256","internalType":"uint256"}],"stateMutability":"view"},{"type":"function","name":"decimals","inputs":[],"outputs":[{"name":"","type":"uint8","internalType":"uint8"}],"stateMutability":"view"},{"type":"function","name":"functionCall","inputs":[{"name":"target","type":"address","internalType":"address"},{"name":"data","type":"bytes","internalType":"bytes"}],"outputs":[{"name":"","type":"bytes","internalType":"bytes"}],"stateMutability":"nonpayable"},{"type":"function","name":"name","inputs":[],"outputs":[{"name":"","type":"string","internalType":"string"}],"stateMutability":"view"},{"type":"function","name":"scheduleReenter","inputs":[{"name":"when","type":"uint8","internalType":"enum ERC20Reentrant.Type"},{"name":"target","type":"address","internalType":"address"},{"name":"data","type":"bytes","internalType":"bytes"}],"outputs":[],"stateMutability":"nonpayable"},{"type":"function","name":"symbol","inputs":[],"outputs":[{"name":"","type":"string","internalType":"string"}],"stateMutability":"view"},{"type":"function","name":"totalSupply","inputs":[],"outputs":[{"name":"","type":"uint256","internalType":"uint256"}],"stateMutability":"view"},{"type":"function","name":"transfer","inputs":[{"name":"to","type":"address","internalType":"address"},{"name":"value","type":"uint256","internalType":"uint256"}],"outputs":[{"name":"","type":"bool","internalType":"bool"}],"stateMutability":"nonpayable"},{"type":"function","name":"transferFrom","inputs":[{"name":"from","type":"address","internalType":"address"},{"name":"to","type":"address","internalType":"address"},{"name":"value","type":"uint256","internalType":"uint256"}],"outputs":[{"name":"","type":"bool","internalType":"bool"}],"stateMutability":"nonpayable"},{"type":"event","name":"Approval","inputs":[{"name":"owner","type":"address","indexed":true,"internalType":"address"},{"name":"spender","type":"address","indexed":true,"internalType":"address"},{"name":"value","type":"uint256","indexed":false,"internalType":"uint256"}],"anonymous":false},{"type":"event","name":"Transfer","inputs":[{"name":"from","type":"address","indexed":true,"internalType":"address"},{"name":"to","type":"address","indexed":true,"internalType":"address"},{"name":"value","type":"uint256","indexed":false,"internalType":"uint256"}],"anonymous":false},{"type":"error","name":"AddressEmptyCode","inputs":[{"name":"target","type":"address","internalType":"address"}]},{"type":"error","name":"ERC20InsufficientAllowance","inputs":[{"name":"spender","type":"address","internalType":"address"},{"name":"allowance","type":"uint256","internalType":"uint256"},{"name":"needed","type":"uint256","internalType":"uint256"}]},{"type":"error","name":"ERC20InsufficientBalance","inputs":[{"name":"sender","type":"address","internalType":"address"},{"name":"balance","type":"uint256","internalType":"uint256"},{"name":"needed","type":"uint256","internalType":"uint256"}]},{"type":"error","name":"ERC20InvalidApprover","inputs":[{"name":"approver","type":"address","internalType":"address"}]},{"type":"error","name":"ERC20InvalidReceiver","inputs":[{"name":"receiver","type":"address","internalType":"address"}]},{"type":"error","name":"ERC20InvalidSender","inputs":[{"name":"sender","type":"address","internalType":"address"}]},{"type":"error","name":"ERC20InvalidSpender","inputs":[{"name":"spender","type":"address","internalType":"address"}]},{"type":"error","name":"FailedCall","inputs":[]},{"type":"error","name":"InsufficientBalance","inputs":[{"name":"balance","type":"uint256","internalType":"uint256"},{"name":"needed","type":"uint256","internalType":"uint256"}]}],"bytecode":{"object":"0x60806040523461032357604080519081016001600160401b0381118282101761022b5760409081526004825263151154d560e21b602083015280519081016001600160401b0381118282101761022b5760405260038152621514d560ea1b602082015281516001600160401b03811161022b57600354600181811c91168015610319575b602082101461020d57601f81116102ab575b50602092601f821160011461024a57928192935f9261023f575b50508160011b915f199060031b1c1916176003555b80516001600160401b03811161022b57600454600181811c91168015610221575b602082101461020d57601f811161019f575b50602091601f821160011461013f579181925f92610134575b50508160011b915f199060031b1c1916176004555b604051610a5590816103288239f35b015190505f80610110565b601f1982169260045f52805f20915f5b8581106101875750836001951061016f575b505050811b01600455610125565b01515f1960f88460031b161c191690555f8080610161565b9192602060018192868501518155019401920161014f565b818111156100f75760045f52601f820160051c7f8a35acfbc15ff81a39ae7d344fd709f28e8600b4aa8c65c6b64bfe7fe36bd19b60208410610205575b81601f9101920160051c03905f5b8281106101f85750506100f7565b5f828201556001016101ea565b5f91506101dc565b634e487b7160e01b5f52602260045260245ffd5b90607f16906100e5565b634e487b7160e01b5f52604160045260245ffd5b015190505f806100af565b601f1982169360035f52805f20915f5b868110610293575083600195961061027b575b505050811b016003556100c4565b01515f1960f88460031b161c191690555f808061026d565b9192602060018192868501518155019401920161025a565b818111156100955760035f52601f820160051c7fc2575a0e9e593c00f959f8c92f12db2869c3395a3b0502d05e2516446f71f85b60208410610311575b81601f9101920160051c03905f5b828110610304575050610095565b5f828201556001016102f6565b5f91506102e8565b90607f1690610083565b5f80fdfe6080806040526004361015610012575f80fd5b5f3560e01c90816306fdde031461063a57508063095ea7b3146105b857806318160ddd1461059b57806323b872dd146104bc578063313ce567146104a157806370a082311461046a57806395d89b41146103a0578063a0b5ffb0146102e6578063a9059cbb146102b5578063cd594b63146100e95763dd62ed3e14610095575f80fd5b346100e55760403660031901126100e5576100ae610700565b6100b6610716565b6001600160a01b039182165f908152600160209081526040808320949093168252928352819020549051908152f35b5f80fd5b346100e55760603660031901126100e55760043560038110156100e55761010e610716565b906044359167ffffffffffffffff83116100e557366023840112156100e55782600401359167ffffffffffffffff83116100e55736602484860101116100e557600580546001600160a81b03191660ff929092169190911760089290921b610100600160a81b03169190911790556006546101889061074e565b601f811161024b575b505f601f82116001146101cd5781925f926101bf575b50505f19600383901b1c191660019190911b17600655005b6024925001013582806101a7565b601f198216927ff652222313e28459528d920b65115c16c04f3efc82aaedc97be59f3f377c0d3f915f5b85811061023057508360019510610214575b505050811b01600655005b01602401355f19600384901b60f8161c19169055828080610209565b909260206001819260248787010135815501940191016101f7565b8181111561019157601f820160051c90602083106102ad575b601f82910160051c03905f5b82811061027e575050610191565b5f8282017ff652222313e28459528d920b65115c16c04f3efc82aaedc97be59f3f377c0d3f0155600101610270565b5f9150610264565b346100e55760403660031901126100e5576102db6102d1610700565b6024359033610786565b602060405160018152f35b346100e55760403660031901126100e5576102ff610700565b60243567ffffffffffffffff81116100e557366023820112156100e55780600401359167ffffffffffffffff831161038c5760405190610349601f8501601f19166020018361072c565b83825236602485850101116100e5575f60208561038896602461037497018387013784010152610992565b6040519182916020835260208301906106dc565b0390f35b634e487b7160e01b5f52604160045260245ffd5b346100e5575f3660031901126100e5576040515f6004546103c08161074e565b808452906001811690811561044657506001146103e8575b610388836103748185038261072c565b91905060045f527f8a35acfbc15ff81a39ae7d344fd709f28e8600b4aa8c65c6b64bfe7fe36bd19b915f905b80821061042c575090915081016020016103746103d8565b919260018160209254838588010152019101909291610414565b60ff191660208086019190915291151560051b8401909101915061037490506103d8565b346100e55760203660031901126100e5576001600160a01b0361048b610700565b165f525f602052602060405f2054604051908152f35b346100e5575f3660031901126100e557602060405160128152f35b346100e55760603660031901126100e5576104d5610700565b6104dd610716565b6001600160a01b0382165f818152600160209081526040808320338452909152902054909260443592915f19811061051b575b506102db9350610786565b83811061058057841561056d57331561055a576102db945f52600160205260405f2060018060a01b0333165f526020528360405f209103905584610510565b634a1406b160e11b5f525f60045260245ffd5b63e602df0560e01b5f525f60045260245ffd5b8390637dc7a0d960e11b5f523360045260245260445260645ffd5b346100e5575f3660031901126100e5576020600254604051908152f35b346100e55760403660031901126100e5576105d1610700565b60243590331561056d576001600160a01b031690811561055a57335f52600160205260405f20825f526020528060405f20556040519081527f8c5be1e5ebec7d5bd14f71427d1e84f3dd0314c0f7b2291e5b200ac8c7c3b92560203392a3602060405160018152f35b346100e5575f3660031901126100e5575f6003546106578161074e565b8084529060018116908115610446575060011461067e57610388836103748185038261072c565b91905060035f527fc2575a0e9e593c00f959f8c92f12db2869c3395a3b0502d05e2516446f71f85b915f905b8082106106c2575090915081016020016103746103d8565b9192600181602092548385880101520191019092916106aa565b805180835260209291819084018484015e5f828201840152601f01601f1916010190565b600435906001600160a01b03821682036100e557565b602435906001600160a01b03821682036100e557565b90601f8019910116810190811067ffffffffffffffff82111761038c57604052565b90600182811c9216801561077c575b602083101461076857565b634e487b7160e01b5f52602260045260245ffd5b91607f169161075d565b6001600160a01b03169081156108c8576001600160a01b03169182156108b55760ff60055416600381101561085e5760011461088b575b815f525f60205260405f205481811061087257817fddf252ad1be2c89b69c2b068fc378daa952ba7f163c4a11628f55a4df523b3ef92602092855f525f84520360405f2055845f525f825260405f20818154019055604051908152a360ff60055416600381101561085e5760021461083157565b6005805460ff19811690915561085b9060081c6001600160a01b03166108556108db565b90610992565b50565b634e487b7160e01b5f52602160045260245ffd5b8263391434e360e21b5f5260045260245260445260645ffd5b6005805460ff1981169091556108af9060081c6001600160a01b03166108556108db565b506107bd565b63ec442f0560e01b5f525f60045260245ffd5b634b637e8f60e11b5f525f60045260245ffd5b604051905f82600654916108ee8361074e565b80835292600181169081156109735750600114610914575b6109129250038361072c565b565b5060065f90815290917ff652222313e28459528d920b65115c16c04f3efc82aaedc97be59f3f377c0d3f5b81831061095757505090602061091292820101610906565b602091935080600191548385890101520191019091849261093f565b6020925061091294915060ff191682840152151560051b820101610906565b905f809160208151910182855af18080610a0c575b156109c75750506040513d81523d5f602083013e60203d82010160405290565b156109ec57639996b31560e01b5f9081526001600160a01b0391909116600452602490fd5b3d156109fd576040513d5f823e3d90fd5b63d6bda27560e01b5f5260045ffd5b503d1515806109a75750813b15156109a756fea2646970667358221220864a191a85a0ec4719617468b6c7bb25cf033a1d57b7813c938a228b3077abdf64736f6c63430008210033","linkReferences":{}},"methodIdentifiers":{"allowance(address,address)":"dd62ed3e","approve(address,uint256)":"095ea7b3","balanceOf(address)":"70a08231","decimals()":"313ce567","functionCall(address,bytes)":"a0b5ffb0","name()":"06fdde03","scheduleReenter(uint8,address,bytes)":"cd594b63","symbol()":"95d89b41","totalSupply()":"18160ddd","transfer(address,uint256)":"a9059cbb","transferFrom(address,address,uint256)":"23b872dd"},"id":241}