{"abi":[{"type":"constructor","inputs":[{"name":"_apToken","type":"address","internalType":"address"},{"name":"_monToken","type":"address","internalType":"address"},{"name":"_trustedSigner","type":"address","internalType":"address"},{"name":"_treasury","type":"address","internalType":"address"}],"stateMutability":"nonpayable"},{"type":"function","name":"MAX_CLAIMS_PER_HOUR","inputs":[],"outputs":[{"name":"","type":"uint256","internalType":"uint256"}],"stateMutability":"view"},{"type":"function","name":"apToken","inputs":[],"outputs":[{"name":"","type":"address","internalType":"contract APToken"}],"stateMutability":"view"},{"type":"function","name":"canPlay","inputs":[{"name":"user","type":"address","internalType":"address"}],"outputs":[{"name":"","type":"bool","internalType":"bool"}],"stateMutability":"view"},{"type":"function","name":"claimReward","inputs":[{"name":"sessionId","type":"bytes32","internalType":"bytes32"},{"name":"monReward","type":"uint256","internalType":"uint256"},{"name":"score","type":"uint256","internalType":"uint256"},{"name":"deadline","type":"uint256","internalType":"uint256"},{"name":"signature","type":"bytes","internalType":"bytes"}],"outputs":[],"stateMutability":"nonpayable"},{"type":"function","name":"completedSessions","inputs":[{"name":"","type":"bytes32","internalType":"bytes32"}],"outputs":[{"name":"","type":"bool","internalType":"bool"}],"stateMutability":"view"},{"type":"function","name":"debugVerifySignature","inputs":[{"name":"sessionId","type":"bytes32","internalType":"bytes32"},{"name":"player","type":"address","internalType":"address"},{"name":"monReward","type":"uint256","internalType":"uint256"},{"name":"score","type":"uint256","internalType":"uint256"},{"name":"deadline","type":"uint256","internalType":"uint256"},{"name":"signature","type":"bytes","internalType":"bytes"}],"outputs":[{"name":"computedStructHash","type":"bytes32","internalType":"bytes32"},{"name":"computedDigest","type":"bytes32","internalType":"bytes32"},{"name":"recoveredSigner","type":"address","internalType":"address"}],"stateMutability":"view"},{"type":"function","name":"emergencyWithdraw","inputs":[{"name":"amount","type":"uint256","internalType":"uint256"}],"outputs":[],"stateMutability":"nonpayable"},{"type":"function","name":"getDomainSeparator","inputs":[],"outputs":[{"name":"","type":"bytes32","internalType":"bytes32"}],"stateMutability":"view"},{"type":"function","name":"getRemainingPlays","inputs":[{"name":"user","type":"address","internalType":"address"}],"outputs":[{"name":"","type":"uint256","internalType":"uint256"}],"stateMutability":"view"},{"type":"function","name":"getUserStats","inputs":[{"name":"user","type":"address","internalType":"address"}],"outputs":[{"name":"gamesPlayed","type":"uint256","internalType":"uint256"},{"name":"gamesWon","type":"uint256","internalType":"uint256"},{"name":"totalAPSpent","type":"uint256","internalType":"uint256"},{"name":"totalMONEarned","type":"uint256","internalType":"uint256"}],"stateMutability":"view"},{"type":"function","name":"hourlyClaims","inputs":[{"name":"","type":"address","internalType":"address"},{"name":"","type":"uint256","internalType":"uint256"}],"outputs":[{"name":"","type":"uint256","internalType":"uint256"}],"stateMutability":"view"},{"type":"function","name":"monToken","inputs":[],"outputs":[{"name":"","type":"address","internalType":"address"}],"stateMutability":"view"},{"type":"function","name":"nonces","inputs":[{"name":"","type":"address","internalType":"address"}],"outputs":[{"name":"","type":"uint256","internalType":"uint256"}],"stateMutability":"view"},{"type":"function","name":"owner","inputs":[],"outputs":[{"name":"","type":"address","internalType":"address"}],"stateMutability":"view"},{"type":"function","name":"paused","inputs":[],"outputs":[{"name":"","type":"bool","internalType":"bool"}],"stateMutability":"view"},{"type":"function","name":"renounceOwnership","inputs":[],"outputs":[],"stateMutability":"nonpayable"},{"type":"function","name":"setPaused","inputs":[{"name":"_paused","type":"bool","internalType":"bool"}],"outputs":[],"stateMutability":"nonpayable"},{"type":"function","name":"setTreasury","inputs":[{"name":"_treasury","type":"address","internalType":"address"}],"outputs":[],"stateMutability":"nonpayable"},{"type":"function","name":"setTrustedSigner","inputs":[{"name":"_signer","type":"address","internalType":"address"}],"outputs":[],"stateMutability":"nonpayable"},{"type":"function","name":"startGame","inputs":[{"name":"sessionId","type":"bytes32","internalType":"bytes32"},{"name":"gameType","type":"string","internalType":"string"},{"name":"difficulty","type":"string","internalType":"string"}],"outputs":[],"stateMutability":"nonpayable"},{"type":"function","name":"transferOwnership","inputs":[{"name":"newOwner","type":"address","internalType":"address"}],"outputs":[],"stateMutability":"nonpayable"},{"type":"function","name":"treasury","inputs":[],"outputs":[{"name":"","type":"address","internalType":"address"}],"stateMutability":"view"},{"type":"function","name":"trustedSigner","inputs":[],"outputs":[{"name":"","type":"address","internalType":"address"}],"stateMutability":"view"},{"type":"function","name":"userStats","inputs":[{"name":"","type":"address","internalType":"address"}],"outputs":[{"name":"gamesPlayed","type":"uint256","internalType":"uint256"},{"name":"gamesWon","type":"uint256","internalType":"uint256"},{"name":"totalAPSpent","type":"uint256","internalType":"uint256"},{"name":"totalMONEarned","type":"uint256","internalType":"uint256"}],"stateMutability":"view"},{"type":"event","name":"ConfigUpdated","inputs":[{"name":"signer","type":"address","indexed":false,"internalType":"address"},{"name":"treasury","type":"address","indexed":false,"internalType":"address"}],"anonymous":false},{"type":"event","name":"ContractPaused","inputs":[{"name":"paused","type":"bool","indexed":false,"internalType":"bool"}],"anonymous":false},{"type":"event","name":"GameCompleted","inputs":[{"name":"sessionId","type":"bytes32","indexed":true,"internalType":"bytes32"},{"name":"player","type":"address","indexed":true,"internalType":"address"},{"name":"score","type":"uint256","indexed":false,"internalType":"uint256"},{"name":"monReward","type":"uint256","indexed":false,"internalType":"uint256"}],"anonymous":false},{"type":"event","name":"GameStarted","inputs":[{"name":"sessionId","type":"bytes32","indexed":true,"internalType":"bytes32"},{"name":"player","type":"address","indexed":true,"internalType":"address"},{"name":"gameType","type":"string","indexed":false,"internalType":"string"},{"name":"difficulty","type":"string","indexed":false,"internalType":"string"},{"name":"apCost","type":"uint256","indexed":false,"internalType":"uint256"}],"anonymous":false},{"type":"event","name":"OwnershipTransferred","inputs":[{"name":"previousOwner","type":"address","indexed":true,"internalType":"address"},{"name":"newOwner","type":"address","indexed":true,"internalType":"address"}],"anonymous":false},{"type":"event","name":"RewardClaimed","inputs":[{"name":"sessionId","type":"bytes32","indexed":true,"internalType":"bytes32"},{"name":"player","type":"address","indexed":true,"internalType":"address"},{"name":"monAmount","type":"uint256","indexed":false,"internalType":"uint256"}],"anonymous":false},{"type":"error","name":"ECDSAInvalidSignature","inputs":[]},{"type":"error","name":"ECDSAInvalidSignatureLength","inputs":[{"name":"length","type":"uint256","internalType":"uint256"}]},{"type":"error","name":"ECDSAInvalidSignatureS","inputs":[{"name":"s","type":"bytes32","internalType":"bytes32"}]},{"type":"error","name":"Expired","inputs":[]},{"type":"error","name":"InsufficientBalance","inputs":[]},{"type":"error","name":"InvalidSignature","inputs":[]},{"type":"error","name":"OwnableInvalidOwner","inputs":[{"name":"owner","type":"address","internalType":"address"}]},{"type":"error","name":"OwnableUnauthorizedAccount","inputs":[{"name":"account","type":"address","internalType":"address"}]},{"type":"error","name":"Paused","inputs":[]},{"type":"error","name":"RateLimitExceeded","inputs":[]},{"type":"error","name":"SessionAlreadyCompleted","inputs":[]},{"type":"error","name":"Unauthorized","inputs":[]},{"type":"error","name":"ZeroAddress","inputs":[]}],"bytecode":{"object":"0x60e0806040523461024d576080816115f5803803809161001f8285610251565b83398101031261024d5761003281610288565b9061003f60208201610288565b90610058606061005160408401610288565b9201610288565b91331561023a575f8054336001600160a01b0319821681178355604051969290916001600160a01b0316907f8be0079c531659141344cd1fd0a4f28419497f9722a3daafe3b4186f6b6457e09080a36001600160a01b031680158015610229575b8015610218575b8015610207575b6101f85760a05260c05260018060a01b031660018060a01b0319600154161760015560018060a01b031660018060a01b0319600254161760025560208101907f8b73c3c69bb8fe3d512ecc4cf759cc79239f7b179b0ffacaa9a75d522b39400f82527f9e846002686752c5b25db15895b37b96ccedf55567ab23a3c699854e276f62cb60408201527fc89efdaa54c0f20c7adf612882df0950f5a951637e0307cdcb4c672f298b8bc660608201524660808201523060a082015260a0815261019060c082610251565b519020608052604051611358908161029d82396080518181816102870152818161038f0152610761015260a05181818161093d0152818161097a01528181610b1e01528181610ba40152610e03015260c05181818161050801528181610c060152610d750152f35b63d92e233d60e01b5f5260045ffd5b506001600160a01b038416156100c7565b506001600160a01b038316156100c0565b506001600160a01b038216156100b9565b631e4fbdf760e01b5f525f60045260245ffd5b5f80fd5b601f909101601f19168101906001600160401b0382119082101761027457604052565b634e487b7160e01b5f52604160045260245ffd5b51906001600160a01b038216820361024d5756fe6080806040526004361015610012575f80fd5b5f905f3560e01c9081630823d5f314610fa65750806316c38b3c14610f3a578063290cfdca14610f0b5780634cdeabfc14610ee05780634e43603a14610e3257806351982f5e14610dee5780635312ea8e14610d1a57806356a1c70114610c825780635c975abb14610c5d57806361d027b314610c3557806363eb9f9014610bf157806366d21dfc1461088e578063684b8a301461084b578063715018a6146107f1578063789dc1dd146107d55780637c8f31ac146106ba5780637ecebe00146106815780638a65d874146106165780638da5cb5b146105ef578063d22afcf2146102aa578063ed24911d1461026f578063f0f44260146101d7578063f2fde38b146101515763f74d548014610126575f80fd5b3461014e578060031936011261014e576001546040516001600160a01b039091168152602090f35b80fd5b503461014e57602036600319011261014e5761016b610fea565b6101736111cc565b6001600160a01b031680156101c35781546001600160a01b03198116821783556001600160a01b03167f8be0079c531659141344cd1fd0a4f28419497f9722a3daafe3b4186f6b6457e08380a380f35b631e4fbdf760e01b82526004829052602482fd5b503461014e57602036600319011261014e576101f1610fea565b6101f96111cc565b6001600160a01b038116801561026057600280546001600160a01b031916919091179055600154604080516001600160a01b0392831681529290911660208301527fea9a7da9c4054031a9816b908a6093b0a82d886ebc33d18f74f2e159c37ed93b91a180f35b63d92e233d60e01b8352600483fd5b503461014e578060031936011261014e5760206040517f00000000000000000000000000000000000000000000000000000000000000008152f35b503461014e5760a036600319011261014e5760243560043560443560643560843567ffffffffffffffff81116105eb576102e8903690600401611000565b9060ff60025460a01c166105dc578242116105cd57848752600460205260ff6040882054166105be57610e104204923388526005602052604088208489526020526014604089205410156105af57916103d36103d992878761037a8b61036c6103e2998f60409033815260036020522054604051958694602086019833908a611176565b03601f19810183528261102e565b51902060405161190160f01b602082019081527f0000000000000000000000000000000000000000000000000000000000000000602283015260428201929092526103c8816062810161036c565b51902092369161106c565b906111f2565b9092919261122c565b6001546001600160a01b039081169116036105a057828552600460205260408520600160ff19825416179055338552600360205260408520610424815461113b565b905533855260056020526040852090855260205260408420610446815461113b565b905580610580575b338452600660205260036040852001610468848254611149565b9055826104d2575b604051908152826020820152817f5a4ae1b35b2a1c5b557f83e772d0683c7974f8d7e6ffe663b0be3f306ae4338960403393a36040519182527ffe236dfc7ce073698734b89da1aee0e7551c9c6d264404c502e6e8fefc1132a860203393a380f35b60405163a9059cbb60e01b60208201908152336024830152604482018590528591829190610503816064810161036c565b5190827f00000000000000000000000000000000000000000000000000000000000000005af16105316110f4565b9015908115610550575b501561047057631e9acf1760e31b8452600484fd5b8051801515925082610565575b50505f61053b565b6105789250602080918301019101611123565b155f8061055d565b338452600660205260016040852001610599815461113b565b905561044e565b638baa579f60e01b8552600485fd5b63a74c1c5f60e01b8852600488fd5b630ae9b8e960e41b8752600487fd5b630407b05b60e31b8752600487fd5b6313d0ff5960e31b8752600487fd5b8580fd5b503461014e578060031936011261014e57546040516001600160a01b039091168152602090f35b503461014e57602036600319011261014e576040906001600160a01b0361063b610fea565b168152600660205220805461067d6001830154926003600282015491015490604051948594859094939260609260808301968352602083015260408201520152565b0390f35b503461014e57602036600319011261014e576020906040906001600160a01b036106a9610fea565b168152600383522054604051908152f35b503461014e5760c036600319011261014e576024356001600160a01b038116908181036107d15760a43567ffffffffffffffff81116107cd57366023820112156107cd579061036c61074c60406060966107216107b396369060248160040135910161106c565b968152600360205220549260405192839160208301956084359160643590604435906004358a611176565b51902060405161190160f01b602082019081527f00000000000000000000000000000000000000000000000000000000000000006022830152604282018390529193916107aa916107a0816062810161036c565b51902091826111f2565b9093919361122c565b604051928352602083015260018060a01b03166040820152f35b8380fd5b8280fd5b503461014e578060031936011261014e57602060405160148152f35b503461014e578060031936011261014e5761080a6111cc565b80546001600160a01b03198116825581906001600160a01b03167f8be0079c531659141344cd1fd0a4f28419497f9722a3daafe3b4186f6b6457e08280a380f35b503461014e57604036600319011261014e576020906040906001600160a01b03610873610fea565b16815260058352818120602435825283522054604051908152f35b5034610a99576060366003190112610a995760243567ffffffffffffffff8111610a99576108c0903690600401611000565b9060443567ffffffffffffffff8111610a99576108e1903690600401611000565b60ff60025460a01c16610be2577f0a01cba7422a89a19bace6c46301e386db8ec6061193e795f52650bcb70d25c361091a36838561106c565b60208151910120145f14610acf576040516304ccb12960e11b81526020816004817f00000000000000000000000000000000000000000000000000000000000000006001600160a01b03165afa908115610a8e575f91610a9d575b50925b7f00000000000000000000000000000000000000000000000000000000000000006001600160a01b0316803b15610a995760405163079cc67960e41b815233600482015260248101869052905f908290604490829084905af18015610a8e57610a6e575b5090610a2c610a3a93923388526006602052604088206109fc815461113b565b9055338852600660205260026040892001610a18878254611149565b905560405196606088526060880191611156565b918583036020870152611156565b9060408301527f03c218644767c3a3ca58955ab40b078127f56c545d3be91a567e58cf78ff0d44339280600435930390a380f35b610a3a93929196505f610a809161102e565b610a2c5f96919293506109dc565b6040513d5f823e3d90fd5b5f80fd5b90506020813d602011610ac7575b81610ab86020938361102e565b81010312610a9957515f610975565b3d9150610aab565b7f3ab0b67412918f8f1210e41bc8a2ff98ed67dd7036f38cf7d1bc582ed1fd38dd610afb36838561106c565b60208151910120145f14610b8f57604051632f82cc6360e11b81526020816004817f00000000000000000000000000000000000000000000000000000000000000006001600160a01b03165afa908115610a8e575f91610b5d575b5092610978565b90506020813d602011610b87575b81610b786020938361102e565b81010312610a9957515f610b56565b3d9150610b6b565b604051635be7eb5f60e11b81526020816004817f00000000000000000000000000000000000000000000000000000000000000006001600160a01b03165afa908115610a8e575f91610b5d575092610978565b6313d0ff5960e31b5f5260045ffd5b34610a99575f366003190112610a99576040517f00000000000000000000000000000000000000000000000000000000000000006001600160a01b03168152602090f35b34610a99575f366003190112610a99576002546040516001600160a01b039091168152602090f35b34610a99575f366003190112610a9957602060ff60025460a01c166040519015158152f35b34610a99576020366003190112610a9957610c9b610fea565b610ca36111cc565b6001600160a01b038116908115610d0b57600180546001600160a01b03191692909217909155600254604080516001600160a01b0393841681529290911660208301527fea9a7da9c4054031a9816b908a6093b0a82d886ebc33d18f74f2e159c37ed93b91a1005b63d92e233d60e01b5f5260045ffd5b34610a99576020366003190112610a9957610d336111cc565b5f805460405163a9059cbb60e01b602082019081526001600160a01b0390921660248201526004356044820152829190610d70816064810161036c565b5190827f00000000000000000000000000000000000000000000000000000000000000005af1610d9e6110f4565b9015908115610dbe575b50610daf57005b631e9acf1760e31b5f5260045ffd5b8051801515925082610dd3575b505081610da8565b610de69250602080918301019101611123565b158180610dcb565b34610a99575f366003190112610a99576040517f00000000000000000000000000000000000000000000000000000000000000006001600160a01b03168152602090f35b34610a99576020366003190112610a99576001600160a01b03610e53610fea565b165f52600660205260405f20604051906080820182811067ffffffffffffffff821117610ecc5760405261067d6060825492838552600181015494856020820152600360028301549283604084015201549283910152604051948594859094939260609260808301968352602083015260408201520152565b634e487b7160e01b5f52604160045260245ffd5b34610a99576020366003190112610a99576020610f03610efe610fea565b6110a2565b604051908152f35b34610a99576020366003190112610a99576004355f526004602052602060ff60405f2054166040519015158152f35b34610a99576020366003190112610a9957600435801515809103610a995760207f752d7e161ff5146f80e3820893176eb40532811e5e20400dfdde57455213706a91610f846111cc565b6002805460ff60a01b191660a083901b60ff60a01b16179055604051908152a1005b34610a99576020366003190112610a99576020906001600160a01b03610fca610fea565b165f526005825260405f20610e1042045f528252601460405f2054108152f35b600435906001600160a01b0382168203610a9957565b9181601f84011215610a995782359167ffffffffffffffff8311610a995760208381860195010111610a9957565b90601f8019910116810190811067ffffffffffffffff821117610ecc57604052565b67ffffffffffffffff8111610ecc57601f01601f191660200190565b92919261107882611050565b91611086604051938461102e565b829481845281830111610a99578281602093845f960137010152565b60018060a01b03165f52600560205260405f20610e1042045f5260205260405f205460148110156110ef57601403601481116110db5790565b634e487b7160e01b5f52601160045260245ffd5b505f90565b3d1561111e573d9061110582611050565b91611113604051938461102e565b82523d5f602084013e565b606090565b90816020910312610a9957518015158103610a995790565b5f1981146110db5760010190565b919082018092116110db57565b908060209392818452848401375f828201840152601f01601f1916010190565b9260c094919796959260e08501987f79ecb468b04d3dc12bd07abc1e1f3f0a2899e044b1ffa999b4d1350fd9380e788652602086015260018060a01b031660408501526060840152608083015260a08201520152565b5f546001600160a01b031633036111df57565b63118cdaa760e01b5f523360045260245ffd5b81519190604183036112225761121b9250602082015190606060408401519301515f1a906112a0565b9192909190565b50505f9160029190565b600481101561128c578061123e575050565b600181036112555763f645eedf60e01b5f5260045ffd5b60028103611270575063fce698f760e01b5f5260045260245ffd5b60031461127a5750565b6335e2f38360e21b5f5260045260245ffd5b634e487b7160e01b5f52602160045260245ffd5b91907f7fffffffffffffffffffffffffffffff5d576e7357a4501ddfe92f46681b20a08411611317579160209360809260ff5f9560405194855216868401526040830152606082015282805260015afa15610a8e575f516001600160a01b0381161561130d57905f905f90565b505f906001905f90565b5050505f916003919056fea26469706673582212207d06441886c2a69e71c62068f738f2ccde9bf02cb2b02878f786926173cd94a064736f6c63430008210033","linkReferences":{}},"methodIdentifiers":{"MAX_CLAIMS_PER_HOUR()":"789dc1dd","apToken()":"51982f5e","canPlay(address)":"0823d5f3","claimReward(bytes32,uint256,uint256,uint256,bytes)":"d22afcf2","completedSessions(bytes32)":"290cfdca","debugVerifySignature(bytes32,address,uint256,uint256,uint256,bytes)":"7c8f31ac","emergencyWithdraw(uint256)":"5312ea8e","getDomainSeparator()":"ed24911d","getRemainingPlays(address)":"4cdeabfc","getUserStats(address)":"4e43603a","hourlyClaims(address,uint256)":"684b8a30","monToken()":"63eb9f90","nonces(address)":"7ecebe00","owner()":"8da5cb5b","paused()":"5c975abb","renounceOwnership()":"715018a6","setPaused(bool)":"16c38b3c","setTreasury(address)":"f0f44260","setTrustedSigner(address)":"56a1c701","startGame(bytes32,string,string)":"66d21dfc","transferOwnership(address)":"f2fde38b","treasury()":"61d027b3","trustedSigner()":"f74d5480","userStats(address)":"8a65d874"},"id":5}