{"abi":[{"type":"function","name":"get","inputs":[],"outputs":[{"name":"","type":"bool","internalType":"bool"}],"stateMutability":"pure"},{"type":"function","name":"initialize","inputs":[{"name":"_value","type":"uint256","internalType":"uint256"},{"name":"_text","type":"string","internalType":"string"},{"name":"_values","type":"uint256[]","internalType":"uint256[]"}],"outputs":[],"stateMutability":"nonpayable"},{"type":"function","name":"initializeNonPayable","inputs":[],"outputs":[],"stateMutability":"nonpayable"},{"type":"function","name":"initializeNonPayableWithValue","inputs":[{"name":"_value","type":"uint256","internalType":"uint256"}],"outputs":[],"stateMutability":"nonpayable"},{"type":"function","name":"initializePayable","inputs":[],"outputs":[],"stateMutability":"payable"},{"type":"function","name":"initializePayableWithValue","inputs":[{"name":"_value","type":"uint256","internalType":"uint256"}],"outputs":[],"stateMutability":"payable"},{"type":"function","name":"migrate","inputs":[{"name":"newVal","type":"uint256","internalType":"uint256"}],"outputs":[],"stateMutability":"payable"},{"type":"function","name":"reverts","inputs":[],"outputs":[],"stateMutability":"pure"},{"type":"function","name":"text","inputs":[],"outputs":[{"name":"","type":"string","internalType":"string"}],"stateMutability":"view"},{"type":"function","name":"unsafeOverrideAdmin","inputs":[{"name":"newAdmin","type":"address","internalType":"address"}],"outputs":[],"stateMutability":"nonpayable"},{"type":"function","name":"value","inputs":[],"outputs":[{"name":"","type":"uint256","internalType":"uint256"}],"stateMutability":"view"},{"type":"function","name":"values","inputs":[{"name":"","type":"uint256","internalType":"uint256"}],"outputs":[{"name":"","type":"uint256","internalType":"uint256"}],"stateMutability":"view"},{"type":"function","name":"version","inputs":[],"outputs":[{"name":"","type":"string","internalType":"string"}],"stateMutability":"pure"}],"bytecode":{"object":"0x60808060405234601557610742908161001a8239f35b5f80fdfe6080806040526004361015610012575f80fd5b5f3560e01c90816319af86e7146105da5781631f1bd6921461050757508063227367d5146104f15780633bccbbc91461049c5780633fa4f24514610480578063454b0608146100ab57806354fd4d50146104405780635e383d21146103f05780636d4ce63c146103d5578063763e2831146103bd5780639fba1f9a146103ac578063d31f8b6b146100b05763e79f5bee146100ab575f80fd5b6106de565b346103a85760603660031901126103a85760243567ffffffffffffffff81116103a857366023820112156103a857806004013567ffffffffffffffff8111610298576040519161010a601f8301601f191660200184610692565b81835236602483830101116103a857815f92602460209301838601378301015260443567ffffffffffffffff81116103a857366023820112156103a857806004013567ffffffffffffffff8111610298578060051b91604051916101716020850184610692565b82526020820160248194830101913683116103a857602401905b828210610398575050506004355f55825167ffffffffffffffff8111610298576101b660015461065a565b601f8111610338575b506020601f82116001146102b757819293945f926102ac575b50508160011b915f199060031b1c1916176001555b519067ffffffffffffffff821161029857680100000000000000008211610298576002548260025582818110610264575b50509060025f525f5b81811061023057005b60019060208451940193817f405787fa12a823e0f2b7631cc41b3ba8828b3321ca811111fa75cd3aa3bb5ace015501610227565b6102919103837f405787fa12a823e0f2b7631cc41b3ba8828b3321ca811111fa75cd3aa3bb5ace016106f1565b828261021e565b634e487b7160e01b5f52604160045260245ffd5b0151905084806101d8565b601f1982169060015f527fb10e2d527612073b26eecdfd717e6a320cf44b4afac2b0732d9fcbe2b7fa0cf6915f5b81811061032057509583600195969710610308575b505050811b016001556101ed565b01515f1960f88460031b161c191690558480806102fa565b9192602060018192868b0151815501940192016102e5565b818111156101bf5761038a9060015f52601f830160051c9060208410610390575b601f82910160051c03907fb10e2d527612073b26eecdfd717e6a320cf44b4afac2b0732d9fcbe2b7fa0cf6016106f1565b846101bf565b5f9150610359565b813581526020918201910161018b565b5f80fd5b5f3660031901126103a85760645f55005b346103a85760203660031901126103a8576004355f55005b346103a8575f3660031901126103a857602060405160018152f35b346103a85760203660031901126103a8576004356002548110156103a85760209060025f527f405787fa12a823e0f2b7631cc41b3ba8828b3321ca811111fa75cd3aa3bb5ace0154604051908152f35b346103a8575f3660031901126103a85761047c604051610461604082610692565b60028152612b1960f11b6020820152604051918291826106b4565b0390f35b346103a8575f3660031901126103a85760205f54604051908152f35b346103a8575f3660031901126103a85760405162461bcd60e51b815260206004820152601c60248201527f44756d6d79496d706c656d656e746174696f6e207265766572746564000000006044820152606490fd5b346103a8575f3660031901126103a857600a5f55005b346103a8575f3660031901126103a8575f6001546105248161065a565b80845290600181169081156105b65750600114610558575b61047c8361054c81850382610692565b604051918291826106b4565b91905060015f527fb10e2d527612073b26eecdfd717e6a320cf44b4afac2b0732d9fcbe2b7fa0cf6915f905b80821061059c5750909150810160200161054c61053c565b919260018160209254838588010152019101909291610584565b60ff191660208086019190915291151560051b8401909101915061054c905061053c565b346103a85760203660031901126103a8576004356001600160a01b038116908190036103a8576bffffffffffffffffffffffff60a01b7fb53127684a568b3173ae13b9f8a6016e243e63b6e8ee1178d6a717850b5d61035416177fb53127684a568b3173ae13b9f8a6016e243e63b6e8ee1178d6a717850b5d6103555f80f35b90600182811c92168015610688575b602083101461067457565b634e487b7160e01b5f52602260045260245ffd5b91607f1691610669565b90601f8019910116810190811067ffffffffffffffff82111761029857604052565b602060409281835280519182918282860152018484015e5f828201840152601f01601f1916010190565b60203660031901126103a8576004355f55005b5f5b8281106106ff57505050565b5f828201556001016106f356fea264697066735822122030c4bb3c70c0a3d5da28a8d4c6e8942d0a673a94498f34072d39ba8915b30b0a64736f6c63430008210033","linkReferences":{}},"methodIdentifiers":{"get()":"6d4ce63c","initialize(uint256,string,uint256[])":"d31f8b6b","initializeNonPayable()":"227367d5","initializeNonPayableWithValue(uint256)":"763e2831","initializePayable()":"9fba1f9a","initializePayableWithValue(uint256)":"e79f5bee","migrate(uint256)":"454b0608","reverts()":"3bccbbc9","text()":"1f1bd692","unsafeOverrideAdmin(address)":"19af86e7","value()":"3fa4f245","values(uint256)":"5e383d21","version()":"54fd4d50"},"id":152}