{"abi":[{"type":"function","name":"get","inputs":[],"outputs":[{"name":"","type":"bool","internalType":"bool"}],"stateMutability":"pure"},{"type":"function","name":"initialize","inputs":[{"name":"_value","type":"uint256","internalType":"uint256"},{"name":"_text","type":"string","internalType":"string"},{"name":"_values","type":"uint256[]","internalType":"uint256[]"}],"outputs":[],"stateMutability":"nonpayable"},{"type":"function","name":"initializeNonPayable","inputs":[],"outputs":[],"stateMutability":"nonpayable"},{"type":"function","name":"initializeNonPayableWithValue","inputs":[{"name":"_value","type":"uint256","internalType":"uint256"}],"outputs":[],"stateMutability":"nonpayable"},{"type":"function","name":"initializePayable","inputs":[],"outputs":[],"stateMutability":"payable"},{"type":"function","name":"initializePayableWithValue","inputs":[{"name":"_value","type":"uint256","internalType":"uint256"}],"outputs":[],"stateMutability":"payable"},{"type":"function","name":"reverts","inputs":[],"outputs":[],"stateMutability":"pure"},{"type":"function","name":"text","inputs":[],"outputs":[{"name":"","type":"string","internalType":"string"}],"stateMutability":"view"},{"type":"function","name":"unsafeOverrideAdmin","inputs":[{"name":"newAdmin","type":"address","internalType":"address"}],"outputs":[],"stateMutability":"nonpayable"},{"type":"function","name":"value","inputs":[],"outputs":[{"name":"","type":"uint256","internalType":"uint256"}],"stateMutability":"view"},{"type":"function","name":"values","inputs":[{"name":"","type":"uint256","internalType":"uint256"}],"outputs":[{"name":"","type":"uint256","internalType":"uint256"}],"stateMutability":"view"},{"type":"function","name":"version","inputs":[],"outputs":[{"name":"","type":"string","internalType":"string"}],"stateMutability":"pure"}],"bytecode":{"object":"0x60808060405234601557610732908161001a8239f35b5f80fdfe6080806040526004361015610012575f80fd5b5f3560e01c90816319af86e7146105dd5781631f1bd6921461050a57508063227367d5146104f45780633bccbbc91461049f5780633fa4f2451461048357806354fd4d50146104435780635e383d21146103f35780636d4ce63c146103d8578063763e2831146103c05780639fba1f9a146103af578063d31f8b6b146100b75763e79f5bee146100a0575f80fd5b60203660031901126100b3576004355f55005b5f80fd5b346100b35760603660031901126100b35760243567ffffffffffffffff81116100b357366023820112156100b357806004013567ffffffffffffffff811161029f5760405191610111601f8301601f191660200184610695565b81835236602483830101116100b357815f92602460209301838601378301015260443567ffffffffffffffff81116100b357366023820112156100b357806004013567ffffffffffffffff811161029f578060051b91604051916101786020850184610695565b82526020820160248194830101913683116100b357602401905b82821061039f575050506004355f55825167ffffffffffffffff811161029f576101bd60015461065d565b601f811161033f575b506020601f82116001146102be57819293945f926102b3575b50508160011b915f199060031b1c1916176001555b519067ffffffffffffffff821161029f5768010000000000000000821161029f57600254826002558281811061026b575b50509060025f525f5b81811061023757005b60019060208451940193817f405787fa12a823e0f2b7631cc41b3ba8828b3321ca811111fa75cd3aa3bb5ace01550161022e565b6102989103837f405787fa12a823e0f2b7631cc41b3ba8828b3321ca811111fa75cd3aa3bb5ace016106e1565b8282610225565b634e487b7160e01b5f52604160045260245ffd5b0151905084806101df565b601f1982169060015f527fb10e2d527612073b26eecdfd717e6a320cf44b4afac2b0732d9fcbe2b7fa0cf6915f5b8181106103275750958360019596971061030f575b505050811b016001556101f4565b01515f1960f88460031b161c19169055848080610301565b9192602060018192868b0151815501940192016102ec565b818111156101c6576103919060015f52601f830160051c9060208410610397575b601f82910160051c03907fb10e2d527612073b26eecdfd717e6a320cf44b4afac2b0732d9fcbe2b7fa0cf6016106e1565b846101c6565b5f9150610360565b8135815260209182019101610192565b5f3660031901126100b35760645f55005b346100b35760203660031901126100b3576004355f55005b346100b3575f3660031901126100b357602060405160018152f35b346100b35760203660031901126100b3576004356002548110156100b35760209060025f527f405787fa12a823e0f2b7631cc41b3ba8828b3321ca811111fa75cd3aa3bb5ace0154604051908152f35b346100b3575f3660031901126100b35761047f604051610464604082610695565b6002815261563160f01b6020820152604051918291826106b7565b0390f35b346100b3575f3660031901126100b35760205f54604051908152f35b346100b3575f3660031901126100b35760405162461bcd60e51b815260206004820152601c60248201527f44756d6d79496d706c656d656e746174696f6e207265766572746564000000006044820152606490fd5b346100b3575f3660031901126100b357600a5f55005b346100b3575f3660031901126100b3575f6001546105278161065d565b80845290600181169081156105b9575060011461055b575b61047f8361054f81850382610695565b604051918291826106b7565b91905060015f527fb10e2d527612073b26eecdfd717e6a320cf44b4afac2b0732d9fcbe2b7fa0cf6915f905b80821061059f5750909150810160200161054f61053f565b919260018160209254838588010152019101909291610587565b60ff191660208086019190915291151560051b8401909101915061054f905061053f565b346100b35760203660031901126100b3576004356001600160a01b038116908190036100b3576bffffffffffffffffffffffff60a01b7fb53127684a568b3173ae13b9f8a6016e243e63b6e8ee1178d6a717850b5d61035416177fb53127684a568b3173ae13b9f8a6016e243e63b6e8ee1178d6a717850b5d6103555f80f35b90600182811c9216801561068b575b602083101461067757565b634e487b7160e01b5f52602260045260245ffd5b91607f169161066c565b90601f8019910116810190811067ffffffffffffffff82111761029f57604052565b602060409281835280519182918282860152018484015e5f828201840152601f01601f1916010190565b5f5b8281106106ef57505050565b5f828201556001016106e356fea264697066735822122023ff4b06247c45645b537a3aae994ccce18047f208047f7aadad7311549e908064736f6c63430008210033","linkReferences":{}},"methodIdentifiers":{"get()":"6d4ce63c","initialize(uint256,string,uint256[])":"d31f8b6b","initializeNonPayable()":"227367d5","initializeNonPayableWithValue(uint256)":"763e2831","initializePayable()":"9fba1f9a","initializePayableWithValue(uint256)":"e79f5bee","reverts()":"3bccbbc9","text()":"1f1bd692","unsafeOverrideAdmin(address)":"19af86e7","value()":"3fa4f245","values(uint256)":"5e383d21","version()":"54fd4d50"},"id":162}