{"abi":[{"type":"function","name":"current","inputs":[],"outputs":[{"name":"","type":"uint256","internalType":"uint256"}],"stateMutability":"view"},{"type":"function","name":"increment","inputs":[],"outputs":[],"stateMutability":"nonpayable"}],"bytecode":{"object":"0x6080806040523460135760b2908160188239f35b5f80fdfe60808060405260043610156011575f80fd5b5f3560e01c9081639fa6a6e3146065575063d09de08a14602f575f80fd5b346061575f3660031901126061575f545f198114604d576001015f55005b634e487b7160e01b5f52601160045260245ffd5b5f80fd5b346061575f3660031901126061576020905f548152f3fea26469706673582212206f0f9d37b3e482e2605b9332836caebcfc1c0cf5f567b37dccdade82c611404164736f6c63430008210033","linkReferences":{}},"methodIdentifiers":{"current()":"9fa6a6e3","increment()":"d09de08a"},"id":224}