{"abi":[{"type":"constructor","inputs":[{"name":"_monToken","type":"address","internalType":"address"},{"name":"_treasury","type":"address","internalType":"address"}],"stateMutability":"nonpayable"},{"type":"function","name":"INITIAL_AIRDROP","inputs":[],"outputs":[{"name":"","type":"uint256","internalType":"uint256"}],"stateMutability":"view"},{"type":"function","name":"PURCHASE_COST","inputs":[],"outputs":[{"name":"","type":"uint256","internalType":"uint256"}],"stateMutability":"view"},{"type":"function","name":"PURCHASE_RATE","inputs":[],"outputs":[{"name":"","type":"uint256","internalType":"uint256"}],"stateMutability":"view"},{"type":"function","name":"allowance","inputs":[{"name":"owner","type":"address","internalType":"address"},{"name":"spender","type":"address","internalType":"address"}],"outputs":[{"name":"","type":"uint256","internalType":"uint256"}],"stateMutability":"view"},{"type":"function","name":"approve","inputs":[{"name":"spender","type":"address","internalType":"address"},{"name":"value","type":"uint256","internalType":"uint256"}],"outputs":[{"name":"","type":"bool","internalType":"bool"}],"stateMutability":"nonpayable"},{"type":"function","name":"balanceOf","inputs":[{"name":"account","type":"address","internalType":"address"}],"outputs":[{"name":"","type":"uint256","internalType":"uint256"}],"stateMutability":"view"},{"type":"function","name":"burn","inputs":[{"name":"amount","type":"uint256","internalType":"uint256"}],"outputs":[],"stateMutability":"nonpayable"},{"type":"function","name":"burnFrom","inputs":[{"name":"user","type":"address","internalType":"address"},{"name":"amount","type":"uint256","internalType":"uint256"}],"outputs":[],"stateMutability":"nonpayable"},{"type":"function","name":"calculateAPForMON","inputs":[{"name":"monAmount","type":"uint256","internalType":"uint256"}],"outputs":[{"name":"","type":"uint256","internalType":"uint256"}],"stateMutability":"pure"},{"type":"function","name":"calculateMONForAP","inputs":[{"name":"apAmount","type":"uint256","internalType":"uint256"}],"outputs":[{"name":"","type":"uint256","internalType":"uint256"}],"stateMutability":"pure"},{"type":"function","name":"canClaimAirdrop","inputs":[{"name":"user","type":"address","internalType":"address"}],"outputs":[{"name":"","type":"bool","internalType":"bool"}],"stateMutability":"view"},{"type":"function","name":"claimInitialAirdrop","inputs":[],"outputs":[],"stateMutability":"nonpayable"},{"type":"function","name":"decimals","inputs":[],"outputs":[{"name":"","type":"uint8","internalType":"uint8"}],"stateMutability":"view"},{"type":"function","name":"easyGameCost","inputs":[],"outputs":[{"name":"","type":"uint256","internalType":"uint256"}],"stateMutability":"view"},{"type":"function","name":"emergencyMint","inputs":[{"name":"to","type":"address","internalType":"address"},{"name":"amount","type":"uint256","internalType":"uint256"}],"outputs":[],"stateMutability":"nonpayable"},{"type":"function","name":"gameRewardsContract","inputs":[],"outputs":[{"name":"","type":"address","internalType":"address"}],"stateMutability":"view"},{"type":"function","name":"hardGameCost","inputs":[],"outputs":[{"name":"","type":"uint256","internalType":"uint256"}],"stateMutability":"view"},{"type":"function","name":"hasClaimedInitialAirdrop","inputs":[{"name":"","type":"address","internalType":"address"}],"outputs":[{"name":"","type":"bool","internalType":"bool"}],"stateMutability":"view"},{"type":"function","name":"mediumGameCost","inputs":[],"outputs":[{"name":"","type":"uint256","internalType":"uint256"}],"stateMutability":"view"},{"type":"function","name":"monToken","inputs":[],"outputs":[{"name":"","type":"address","internalType":"address"}],"stateMutability":"view"},{"type":"function","name":"multiplayerStationContract","inputs":[],"outputs":[{"name":"","type":"address","internalType":"address"}],"stateMutability":"view"},{"type":"function","name":"name","inputs":[],"outputs":[{"name":"","type":"string","internalType":"string"}],"stateMutability":"view"},{"type":"function","name":"owner","inputs":[],"outputs":[{"name":"","type":"address","internalType":"address"}],"stateMutability":"view"},{"type":"function","name":"purchaseAP","inputs":[{"name":"monAmount","type":"uint256","internalType":"uint256"}],"outputs":[],"stateMutability":"nonpayable"},{"type":"function","name":"renounceOwnership","inputs":[],"outputs":[],"stateMutability":"nonpayable"},{"type":"function","name":"setGameCosts","inputs":[{"name":"_easy","type":"uint256","internalType":"uint256"},{"name":"_medium","type":"uint256","internalType":"uint256"},{"name":"_hard","type":"uint256","internalType":"uint256"}],"outputs":[],"stateMutability":"nonpayable"},{"type":"function","name":"setGameRewardsContract","inputs":[{"name":"_gameRewards","type":"address","internalType":"address"}],"outputs":[],"stateMutability":"nonpayable"},{"type":"function","name":"setMultiplayerStationContract","inputs":[{"name":"_multiplayerStation","type":"address","internalType":"address"}],"outputs":[],"stateMutability":"nonpayable"},{"type":"function","name":"setTreasury","inputs":[{"name":"_treasury","type":"address","internalType":"address"}],"outputs":[],"stateMutability":"nonpayable"},{"type":"function","name":"symbol","inputs":[],"outputs":[{"name":"","type":"string","internalType":"string"}],"stateMutability":"view"},{"type":"function","name":"totalSupply","inputs":[],"outputs":[{"name":"","type":"uint256","internalType":"uint256"}],"stateMutability":"view"},{"type":"function","name":"transfer","inputs":[{"name":"to","type":"address","internalType":"address"},{"name":"value","type":"uint256","internalType":"uint256"}],"outputs":[{"name":"","type":"bool","internalType":"bool"}],"stateMutability":"nonpayable"},{"type":"function","name":"transferFrom","inputs":[{"name":"from","type":"address","internalType":"address"},{"name":"to","type":"address","internalType":"address"},{"name":"value","type":"uint256","internalType":"uint256"}],"outputs":[{"name":"","type":"bool","internalType":"bool"}],"stateMutability":"nonpayable"},{"type":"function","name":"transferOwnership","inputs":[{"name":"newOwner","type":"address","internalType":"address"}],"outputs":[],"stateMutability":"nonpayable"},{"type":"function","name":"treasury","inputs":[],"outputs":[{"name":"","type":"address","internalType":"address"}],"stateMutability":"view"},{"type":"event","name":"APBurned","inputs":[{"name":"user","type":"address","indexed":true,"internalType":"address"},{"name":"amount","type":"uint256","indexed":false,"internalType":"uint256"},{"name":"reason","type":"string","indexed":false,"internalType":"string"}],"anonymous":false},{"type":"event","name":"APPurchased","inputs":[{"name":"buyer","type":"address","indexed":true,"internalType":"address"},{"name":"monSpent","type":"uint256","indexed":false,"internalType":"uint256"},{"name":"apReceived","type":"uint256","indexed":false,"internalType":"uint256"}],"anonymous":false},{"type":"event","name":"Approval","inputs":[{"name":"owner","type":"address","indexed":true,"internalType":"address"},{"name":"spender","type":"address","indexed":true,"internalType":"address"},{"name":"value","type":"uint256","indexed":false,"internalType":"uint256"}],"anonymous":false},{"type":"event","name":"GameCostsUpdated","inputs":[{"name":"easy","type":"uint256","indexed":false,"internalType":"uint256"},{"name":"medium","type":"uint256","indexed":false,"internalType":"uint256"},{"name":"hard","type":"uint256","indexed":false,"internalType":"uint256"}],"anonymous":false},{"type":"event","name":"GameRewardsContractUpdated","inputs":[{"name":"newContract","type":"address","indexed":true,"internalType":"address"}],"anonymous":false},{"type":"event","name":"InitialAirdropClaimed","inputs":[{"name":"user","type":"address","indexed":true,"internalType":"address"},{"name":"amount","type":"uint256","indexed":false,"internalType":"uint256"}],"anonymous":false},{"type":"event","name":"MultiplayerStationContractUpdated","inputs":[{"name":"newContract","type":"address","indexed":true,"internalType":"address"}],"anonymous":false},{"type":"event","name":"OwnershipTransferred","inputs":[{"name":"previousOwner","type":"address","indexed":true,"internalType":"address"},{"name":"newOwner","type":"address","indexed":true,"internalType":"address"}],"anonymous":false},{"type":"event","name":"Transfer","inputs":[{"name":"from","type":"address","indexed":true,"internalType":"address"},{"name":"to","type":"address","indexed":true,"internalType":"address"},{"name":"value","type":"uint256","indexed":false,"internalType":"uint256"}],"anonymous":false},{"type":"event","name":"TreasuryUpdated","inputs":[{"name":"newTreasury","type":"address","indexed":true,"internalType":"address"}],"anonymous":false},{"type":"error","name":"AlreadyClaimedAirdrop","inputs":[]},{"type":"error","name":"ERC20InsufficientAllowance","inputs":[{"name":"spender","type":"address","internalType":"address"},{"name":"allowance","type":"uint256","internalType":"uint256"},{"name":"needed","type":"uint256","internalType":"uint256"}]},{"type":"error","name":"ERC20InsufficientBalance","inputs":[{"name":"sender","type":"address","internalType":"address"},{"name":"balance","type":"uint256","internalType":"uint256"},{"name":"needed","type":"uint256","internalType":"uint256"}]},{"type":"error","name":"ERC20InvalidApprover","inputs":[{"name":"approver","type":"address","internalType":"address"}]},{"type":"error","name":"ERC20InvalidReceiver","inputs":[{"name":"receiver","type":"address","internalType":"address"}]},{"type":"error","name":"ERC20InvalidSender","inputs":[{"name":"sender","type":"address","internalType":"address"}]},{"type":"error","name":"ERC20InvalidSpender","inputs":[{"name":"spender","type":"address","internalType":"address"}]},{"type":"error","name":"InsufficientAPBalance","inputs":[]},{"type":"error","name":"InsufficientMONBalance","inputs":[]},{"type":"error","name":"OwnableInvalidOwner","inputs":[{"name":"owner","type":"address","internalType":"address"}]},{"type":"error","name":"OwnableUnauthorizedAccount","inputs":[{"name":"account","type":"address","internalType":"address"}]},{"type":"error","name":"TransferFailed","inputs":[]},{"type":"error","name":"UnauthorizedBurner","inputs":[]},{"type":"error","name":"ZeroAddress","inputs":[]}],"bytecode":{"object":"0x60a060405234610436576116276040813803918261001c8161043a565b9384928339810103126104365761003e60206100378361045f565b920161045f565b610048604061043a565b91600f83526e416374697669747920506f696e747360881b602084015261006f604061043a565b6002815261041560f41b602082015283519092906001600160401b03811161033c57600354600181811c9116801561042c575b602082101461031e57601f81116103be575b50602094601f821160011461035b579481929394955f92610350575b50508160011b915f199060031b1c1916176003555b82516001600160401b03811161033c57600454600181811c91168015610332575b602082101461031e57601f81116102b0575b506020601f821160011461024d57819293945f92610242575b50508160011b915f199060031b1c1916176004555b331561022f5760058054336001600160a01b0319821681179092556040519391906001600160a01b03167f8be0079c531659141344cd1fd0a4f28419497f9722a3daafe3b4186f6b6457e05f80a3678ac7230489e8000060065568015af1d78b58c400006007556802b5e3af16b18800006008556001600160a01b03811615801561021e575b61020f57608052600c80546001600160a01b0319166001600160a01b03929092169190911790556111b39081610474823960805181818161048d01526109800152f35b63d92e233d60e01b5f5260045ffd5b506001600160a01b038216156101cc565b631e4fbdf760e01b5f525f60045260245ffd5b015190505f80610131565b601f1982169060045f52805f20915f5b81811061029857509583600195969710610280575b505050811b01600455610146565b01515f1960f88460031b161c191690555f8080610272565b9192602060018192868b01518155019401920161025d565b818111156101185760045f52601f820160051c7f8a35acfbc15ff81a39ae7d344fd709f28e8600b4aa8c65c6b64bfe7fe36bd19b60208410610316575b81601f9101920160051c03905f5b828110610309575050610118565b5f828201556001016102fb565b5f91506102ed565b634e487b7160e01b5f52602260045260245ffd5b90607f1690610106565b634e487b7160e01b5f52604160045260245ffd5b015190505f806100d0565b601f1982169560035f52805f20915f5b8881106103a65750836001959697981061038e575b505050811b016003556100e5565b01515f1960f88460031b161c191690555f8080610380565b9192602060018192868501518155019401920161036b565b818111156100b45760035f52601f820160051c7fc2575a0e9e593c00f959f8c92f12db2869c3395a3b0502d05e2516446f71f85b60208410610424575b81601f9101920160051c03905f5b8281106104175750506100b4565b5f82820155600101610409565b5f91506103fb565b90607f16906100a2565b5f80fd5b6040519190601f01601f191682016001600160401b0381118382101761033c57604052565b51906001600160a01b03821682036104365756fe6080806040526004361015610012575f80fd5b5f3560e01c90816306fdde0314610e2757508063095ea7b314610da55780630999625214610d8857806318160ddd14610d6b5780631ae2712114610d0357806323b872dd14610c24578063313ce56714610c095780634211d28214610bcc57806342966c6814610b6057806343785dc914610b315780634a69262614610b095780635146330d14610a5c57806354185f36146109f45780635f0598c6146109d757806361d027b3146109af57806363eb9f901461096b57806367ffe017146109495780636c6718c91461092357806370a08231146108ec578063715018a61461089157806379cc6790146107d157806384ad45fb146107865780638da5cb5b1461075e578063952ee28b1461073657806395d89b4114610632578063a9059cbb14610601578063a94c1106146103f1578063b5922a2b146103ce578063b7cfd6be146103b1578063c14a62571461034d578063d78bf55b14610311578063dd62ed3e146102c1578063e23c68d91461029e578063f0f44260146102275763f2fde38b1461019d575f80fd5b34610223576020366003190112610223576101b6610f09565b6101be610f9c565b6001600160a01b0316801561021057600580546001600160a01b0319811683179091556001600160a01b03167f8be0079c531659141344cd1fd0a4f28419497f9722a3daafe3b4186f6b6457e05f80a3005b631e4fbdf760e01b5f525f60045260245ffd5b5f80fd5b3461022357602036600319011261022357610240610f09565b610248610f9c565b6001600160a01b0316801561028f57600c80546001600160a01b031916821790557f7dae230f18360d76a040c81f050aa14eb9d6dc7901b20fc5d855e2a20fe814d15f80a2005b63d92e233d60e01b5f5260045ffd5b34610223575f3660031901126102235760206040516801a055690d9db800008152f35b34610223576040366003190112610223576102da610f09565b6102e2610f1f565b6001600160a01b039182165f908152600160209081526040808320949093168252928352819020549051908152f35b34610223576020366003190112610223576001600160a01b03610332610f09565b165f52600b602052602060ff60405f20541615604051908152f35b34610223576060366003190112610223577fe74ee3022961cf5f45f38309f79bf0d1afb5cb338291901033823e5af61186816060600435604435602435610392610f9c565b82600655806007558160085560405192835260208301526040820152a1005b34610223575f366003190112610223576020600854604051908152f35b34610223575f366003190112610223576020604051683635c9adc5dea000008152f35b34610223576020366003190112610223576004356729a2241af62c0000811080156105ee575b6105aa576729a2241af62c000081046801a055690d9db800008102908082046801a055690d9db800001490151715610596575f8060018060a01b03600c541660405160208101916323b872dd60e01b8352336024830152604482015285606482015260648152610488608482610f35565b5190827f00000000000000000000000000000000000000000000000000000000000000005af13d1561058e573d9067ffffffffffffffff821161057a57604051916104dd601f8201601f191660200184610f35565b82523d5f602084013e5b15908115610541575b50610532576104ff81336110f1565b60405191825260208201527f2c3df9340e4cf7b1572dde1f3d4a92515b0a7d5ad07c919cb1b1fcba2fd0c05760403392a2005b633103d19b60e11b5f5260045ffd5b8051801515925082610556575b5050836104f0565b8192509060209181010312610223576020015180159081150361022357838061054e565b634e487b7160e01b5f52604160045260245ffd5b6060906104e7565b634e487b7160e01b5f52601160045260245ffd5b606460405162461bcd60e51b815260206004820152602060248201527f416d6f756e74206d757374206265206d756c7469706c65206f662033204d4f4e6044820152fd5b506729a2241af62c000081061515610417565b346102235760403660031901126102235761062761061d610f09565b6024359033610fc3565b602060405160018152f35b34610223575f366003190112610223576040515f6004548060011c9060018116801561072c575b602083108114610718578285529081156106f45750600114610696575b6106928361068681850382610f35565b60405191829182610edf565b0390f35b91905060045f527f8a35acfbc15ff81a39ae7d344fd709f28e8600b4aa8c65c6b64bfe7fe36bd19b915f905b8082106106da57509091508101602001610686610676565b9192600181602092548385880101520191019092916106c2565b60ff191660208086019190915291151560051b840190910191506106869050610676565b634e487b7160e01b5f52602260045260245ffd5b91607f1691610659565b34610223575f36600319011261022357600a546040516001600160a01b039091168152602090f35b34610223575f366003190112610223576005546040516001600160a01b039091168152602090f35b34610223576020366003190112610223576004356729a2241af62c00008102908082046729a2241af62c00001490151715610596576020906801a055690d9db8000060405191048152f35b34610223576040366003190112610223576107ea610f09565b600954602435906001600160a01b031633036108825760018060a01b03821691825f525f6020528160405f205410610873578161084a7f9909204bdeb9a4e577a3676289d37856605cfb8aadafba5e8b22fe94c85187029360809361106d565b60405190815260406020820152600960408201526867616d655f706c617960b81b6060820152a2005b632e46fba960e11b5f5260045ffd5b63a9c455db60e01b5f5260045ffd5b34610223575f366003190112610223576108a9610f9c565b600580546001600160a01b031981169091555f906001600160a01b03167f8be0079c531659141344cd1fd0a4f28419497f9722a3daafe3b4186f6b6457e08280a3005b34610223576020366003190112610223576001600160a01b0361090d610f09565b165f525f602052602060405f2054604051908152f35b34610223576020366003190112610223576020610941600435610f57565b604051908152f35b34610223575f3660031901126102235760206040516729a2241af62c00008152f35b34610223575f366003190112610223576040517f00000000000000000000000000000000000000000000000000000000000000006001600160a01b03168152602090f35b34610223575f36600319011261022357600c546040516001600160a01b039091168152602090f35b34610223575f366003190112610223576020600754604051908152f35b3461022357602036600319011261022357610a0d610f09565b610a15610f9c565b6001600160a01b0316801561028f57600980546001600160a01b031916821790557f980d2a3050627b95093d76418296b608147eae157276ac37b0b49bd29b33b57b5f80a2005b34610223575f36600319011261022357335f52600b60205260ff60405f205416610afa57335f52600b60205260405f20600160ff198254161790553315610ae757610ab0683635c9adc5dea000003361110c565b604051683635c9adc5dea0000081527ff2435f52d593328af070140c274d5d0090982fec07722e931041d00413e57bfc60203392a2005b63ec442f0560e01b5f525f60045260245ffd5b6348c9194f60e11b5f5260045ffd5b34610223575f366003190112610223576009546040516001600160a01b039091168152602090f35b3461022357604036600319011261022357610b5e610b4d610f09565b610b55610f9c565b602435906110f1565b005b3461022357602036600319011261022357600435610b7e813361106d565b60405190815260406020820152600960408201526839b2b6332fb13ab93760b91b60608201527f9909204bdeb9a4e577a3676289d37856605cfb8aadafba5e8b22fe94c851870260803392a2005b34610223576020366003190112610223576001600160a01b03610bed610f09565b165f52600b602052602060ff60405f2054166040519015158152f35b34610223575f36600319011261022357602060405160128152f35b3461022357606036600319011261022357610c3d610f09565b610c45610f1f565b6001600160a01b0382165f818152600160209081526040808320338452909152902054909260443592915f198110610c83575b506106279350610fc3565b838110610ce8578415610cd5573315610cc257610627945f52600160205260405f2060018060a01b0333165f526020528360405f209103905584610c78565b634a1406b160e11b5f525f60045260245ffd5b63e602df0560e01b5f525f60045260245ffd5b8390637dc7a0d960e11b5f523360045260245260445260645ffd5b3461022357602036600319011261022357610d1c610f09565b610d24610f9c565b6001600160a01b0316801561028f57600a80546001600160a01b031916821790557f53a51ed595ba97347518b056433b1bc57fcd7c158c272fd62ed6f7129b5098575f80a2005b34610223575f366003190112610223576020600254604051908152f35b34610223575f366003190112610223576020600654604051908152f35b3461022357604036600319011261022357610dbe610f09565b602435903315610cd5576001600160a01b0316908115610cc257335f52600160205260405f20825f526020528060405f20556040519081527f8c5be1e5ebec7d5bd14f71427d1e84f3dd0314c0f7b2291e5b200ac8c7c3b92560203392a3602060405160018152f35b34610223575f366003190112610223575f6003548060011c90600181168015610ed5575b602083108114610718578285529081156106f45750600114610e77576106928361068681850382610f35565b91905060035f527fc2575a0e9e593c00f959f8c92f12db2869c3395a3b0502d05e2516446f71f85b915f905b808210610ebb57509091508101602001610686610676565b919260018160209254838588010152019101909291610ea3565b91607f1691610e4b565b602060409281835280519182918282860152018484015e5f828201840152601f01601f1916010190565b600435906001600160a01b038216820361022357565b602435906001600160a01b038216820361022357565b90601f8019910116810190811067ffffffffffffffff82111761057a57604052565b6729a2241af62c00008110610f97576729a2241af62c000090046801a055690d9db800008102908082046801a055690d9db8000014901517156105965790565b505f90565b6005546001600160a01b03163303610fb057565b63118cdaa760e01b5f523360045260245ffd5b6001600160a01b031690811561105a576001600160a01b0316918215610ae757815f525f60205260405f205481811061104157817fddf252ad1be2c89b69c2b068fc378daa952ba7f163c4a11628f55a4df523b3ef92602092855f525f84520360405f2055845f525f825260405f20818154019055604051908152a3565b8263391434e360e21b5f5260045260245260445260645ffd5b634b637e8f60e11b5f525f60045260245ffd5b9091906001600160a01b0316801561105a57805f525f60205260405f20548381106110d7576020845f94957fddf252ad1be2c89b69c2b068fc378daa952ba7f163c4a11628f55a4df523b3ef938587528684520360408620558060025403600255604051908152a3565b915063391434e360e21b5f5260045260245260445260645ffd5b906001600160a01b03821615610ae75761110a9161110c565b565b60025490828201809211610596576002919091556001600160a01b0316905f907fddf252ad1be2c89b69c2b068fc378daa952ba7f163c4a11628f55a4df523b3ef90602090846111685780600254036002555b604051908152a3565b8484528382526040842081815401905561115f56fea2646970667358221220bc7d12d47261244973f0a68cafbbfb4f82d104fbcd2fc5f2632eeb67d1accd7d64736f6c63430008210033","linkReferences":{}},"methodIdentifiers":{"INITIAL_AIRDROP()":"b5922a2b","PURCHASE_COST()":"67ffe017","PURCHASE_RATE()":"e23c68d9","allowance(address,address)":"dd62ed3e","approve(address,uint256)":"095ea7b3","balanceOf(address)":"70a08231","burn(uint256)":"42966c68","burnFrom(address,uint256)":"79cc6790","calculateAPForMON(uint256)":"6c6718c9","calculateMONForAP(uint256)":"84ad45fb","canClaimAirdrop(address)":"d78bf55b","claimInitialAirdrop()":"5146330d","decimals()":"313ce567","easyGameCost()":"09996252","emergencyMint(address,uint256)":"43785dc9","gameRewardsContract()":"4a692626","hardGameCost()":"b7cfd6be","hasClaimedInitialAirdrop(address)":"4211d282","mediumGameCost()":"5f0598c6","monToken()":"63eb9f90","multiplayerStationContract()":"952ee28b","name()":"06fdde03","owner()":"8da5cb5b","purchaseAP(uint256)":"a94c1106","renounceOwnership()":"715018a6","setGameCosts(uint256,uint256,uint256)":"c14a6257","setGameRewardsContract(address)":"54185f36","setMultiplayerStationContract(address)":"1ae27121","setTreasury(address)":"f0f44260","symbol()":"95d89b41","totalSupply()":"18160ddd","transfer(address,uint256)":"a9059cbb","transferFrom(address,address,uint256)":"23b872dd","transferOwnership(address)":"f2fde38b","treasury()":"61d027b3"},"id":0}