{"abi":[{"type":"function","name":"encode","inputs":[{"name":"input","type":"bytes","internalType":"bytes"}],"outputs":[{"name":"","type":"string","internalType":"string"}],"stateMutability":"pure"}],"bytecode":{"object":"0x608080604052346015576102ae908161001a8239f35b5f80fdfe60806040526004361015610011575f80fd5b5f3560e01c6312496a1b14610024575f80fd5b346101095760203660031901126101095760043567ffffffffffffffff8111610109573660238201121561010957806004013567ffffffffffffffff81116100f557610079601f8201601f191660200161010d565b91818352366024838301011161010957815f9260246020930183860137830101526040516020810181811067ffffffffffffffff8211176100f5576020926040926100c99284525f199052610133565b815192839181835280519182918282860152018484015e5f828201840152601f01601f19168101030190f35b634e487b7160e01b5f52604160045260245ffd5b5f80fd5b6040519190601f01601f1916820167ffffffffffffffff8111838210176100f557604052565b90815115610266578151600281018091116102525760039004600281901b91906001600160fe1b0381160361025257604051917f4142434445464748494a4b4c4d4e4f505152535455565758595a616263646566601f527f6768696a6b6c6d6e6f707172737475767778797a303132333435363738392b2f603f52602083018480518101602081018051915f82525b8089106102165750602095969750906003929152510680600114610201576002146101f4575b50808452830101604052565b603d905f1901535f6101e8565b50603d90815f1982015360011901535f6101e8565b939760036004910198603f8a51818160121c165183538181600c1c16516001840153818160061c165160028401531651600382015301936101c2565b634e487b7160e01b5f52601160045260245ffd5b9050610272602061010d565b5f81529056fea2646970667358221220ab917e8b3ba08684576a7fe2695730959a1e422d58b1b69af1b3fc36af3507dd64736f6c63430008210033","linkReferences":{}},"methodIdentifiers":{"encode(bytes)":"12496a1b"},"id":147}