{"abi":[{"type":"function","name":"disableReentrancy","inputs":[],"outputs":[],"stateMutability":"nonpayable"},{"type":"function","name":"enableReentrancy","inputs":[{"name":"target","type":"address","internalType":"address"},{"name":"data","type":"bytes","internalType":"bytes"}],"outputs":[],"stateMutability":"nonpayable"},{"type":"function","name":"reenter","inputs":[],"outputs":[],"stateMutability":"nonpayable"},{"type":"error","name":"AddressEmptyCode","inputs":[{"name":"target","type":"address","internalType":"address"}]},{"type":"error","name":"FailedCall","inputs":[]},{"type":"error","name":"InsufficientBalance","inputs":[{"name":"balance","type":"uint256","internalType":"uint256"},{"name":"needed","type":"uint256","internalType":"uint256"}]}],"bytecode":{"object":"0x60808060405234601557610418908161001a8239f35b5f80fdfe60806040526004361015610011575f80fd5b5f3560e01c806316b328371461016c578063a0fe97e31461005d5763cc23fb1c1461003a575f80fd5b34610059575f366003190112610059576002805460ff19166001179055005b5f80fd5b34610059575f3660031901126100595760025460ff81161561007b57005b60019060ff19161760025560018060a01b035f54166040515f6001546100a08161031d565b808452906001811690811561015057506001146100fb575b50819003601f01601f191681019167ffffffffffffffff8311828410176100e7576100e592604052610355565b005b634e487b7160e01b5f52604160045260245ffd5b905060015f527fb10e2d527612073b26eecdfd717e6a320cf44b4afac2b0732d9fcbe2b7fa0cf65f905b82821061013a575060209150820101836100b8565b6001816020925483858801015201910190610125565b90506020925060ff191682840152151560051b820101836100b8565b34610059576040366003190112610059576004356001600160a01b03811690819003610059576024359067ffffffffffffffff821161005957366023830112156100595781600401359067ffffffffffffffff8211610059573660248385010111610059576bffffffffffffffffffffffff60a01b5f5416175f556101f260015461031d565b601f81116102b3575b505f601f82116001146102355781925f92610227575b50505f19600383901b1c1916600191821b179055005b602492500101358280610211565b601f198216927fb10e2d527612073b26eecdfd717e6a320cf44b4afac2b0732d9fcbe2b7fa0cf6915f5b8581106102985750836001951061027c575b505050811b01600155005b01602401355f19600384901b60f8161c19169055828080610271565b9092602060018192602487870101358155019401910161025f565b818111156101fb57601f820160051c9060208310610315575b601f82910160051c03905f5b8281106102e65750506101fb565b5f8282017fb10e2d527612073b26eecdfd717e6a320cf44b4afac2b0732d9fcbe2b7fa0cf601556001016102d8565b5f91506102cc565b90600182811c9216801561034b575b602083101461033757565b634e487b7160e01b5f52602260045260245ffd5b91607f169161032c565b905f809160208151910182855af180806103cf575b1561038a5750506040513d81523d5f602083013e60203d82010160405290565b156103af57639996b31560e01b5f9081526001600160a01b0391909116600452602490fd5b3d156103c0576040513d5f823e3d90fd5b63d6bda27560e01b5f5260045ffd5b503d15158061036a5750813b151561036a56fea2646970667358221220ff1dc38427c8bb135cc96fd81e9f469c47c2a7f0125e9cc16419ec20db48b04d64736f6c63430008210033","linkReferences":{}},"methodIdentifiers":{"disableReentrancy()":"cc23fb1c","enableReentrancy(address,bytes)":"16b32837","reenter()":"a0fe97e3"},"id":172}