{"abi":[{"type":"constructor","inputs":[{"name":"_monToken","type":"address","internalType":"address"},{"name":"_treasury","type":"address","internalType":"address"},{"name":"_monPerCredit","type":"uint256","internalType":"uint256"},{"name":"_sellBackRate","type":"uint256","internalType":"uint256"}],"stateMutability":"nonpayable"},{"type":"function","name":"awardCredits","inputs":[{"name":"user","type":"address","internalType":"address"},{"name":"amount","type":"uint256","internalType":"uint256"}],"outputs":[],"stateMutability":"nonpayable"},{"type":"function","name":"batchSetCredits","inputs":[{"name":"users","type":"address[]","internalType":"address[]"},{"name":"amounts","type":"uint256[]","internalType":"uint256[]"}],"outputs":[],"stateMutability":"nonpayable"},{"type":"function","name":"buyCredits","inputs":[{"name":"creditsAmount","type":"uint256","internalType":"uint256"}],"outputs":[],"stateMutability":"nonpayable"},{"type":"function","name":"calculateBuyCost","inputs":[{"name":"creditsAmount","type":"uint256","internalType":"uint256"}],"outputs":[{"name":"","type":"uint256","internalType":"uint256"}],"stateMutability":"view"},{"type":"function","name":"calculateSellReturn","inputs":[{"name":"creditsAmount","type":"uint256","internalType":"uint256"}],"outputs":[{"name":"","type":"uint256","internalType":"uint256"}],"stateMutability":"view"},{"type":"function","name":"creditBalances","inputs":[{"name":"","type":"address","internalType":"address"}],"outputs":[{"name":"","type":"uint256","internalType":"uint256"}],"stateMutability":"view"},{"type":"function","name":"depositMON","inputs":[{"name":"amount","type":"uint256","internalType":"uint256"}],"outputs":[],"stateMutability":"nonpayable"},{"type":"function","name":"emergencyWithdraw","inputs":[{"name":"amount","type":"uint256","internalType":"uint256"}],"outputs":[],"stateMutability":"nonpayable"},{"type":"function","name":"getContractBalance","inputs":[],"outputs":[{"name":"","type":"uint256","internalType":"uint256"}],"stateMutability":"view"},{"type":"function","name":"getCredits","inputs":[{"name":"user","type":"address","internalType":"address"}],"outputs":[{"name":"","type":"uint256","internalType":"uint256"}],"stateMutability":"view"},{"type":"function","name":"maxPurchase","inputs":[],"outputs":[{"name":"","type":"uint256","internalType":"uint256"}],"stateMutability":"view"},{"type":"function","name":"minPurchase","inputs":[],"outputs":[{"name":"","type":"uint256","internalType":"uint256"}],"stateMutability":"view"},{"type":"function","name":"monPerCredit","inputs":[],"outputs":[{"name":"","type":"uint256","internalType":"uint256"}],"stateMutability":"view"},{"type":"function","name":"monToken","inputs":[],"outputs":[{"name":"","type":"address","internalType":"contract IERC20"}],"stateMutability":"view"},{"type":"function","name":"owner","inputs":[],"outputs":[{"name":"","type":"address","internalType":"address"}],"stateMutability":"view"},{"type":"function","name":"paused","inputs":[],"outputs":[{"name":"","type":"bool","internalType":"bool"}],"stateMutability":"view"},{"type":"function","name":"renounceOwnership","inputs":[],"outputs":[],"stateMutability":"nonpayable"},{"type":"function","name":"sellBackRate","inputs":[],"outputs":[{"name":"","type":"uint256","internalType":"uint256"}],"stateMutability":"view"},{"type":"function","name":"sellCredits","inputs":[{"name":"creditsAmount","type":"uint256","internalType":"uint256"}],"outputs":[],"stateMutability":"nonpayable"},{"type":"function","name":"setLimits","inputs":[{"name":"_minPurchase","type":"uint256","internalType":"uint256"},{"name":"_maxPurchase","type":"uint256","internalType":"uint256"}],"outputs":[],"stateMutability":"nonpayable"},{"type":"function","name":"setPaused","inputs":[{"name":"_paused","type":"bool","internalType":"bool"}],"outputs":[],"stateMutability":"nonpayable"},{"type":"function","name":"setRates","inputs":[{"name":"_monPerCredit","type":"uint256","internalType":"uint256"},{"name":"_sellBackRate","type":"uint256","internalType":"uint256"}],"outputs":[],"stateMutability":"nonpayable"},{"type":"function","name":"setTreasury","inputs":[{"name":"_treasury","type":"address","internalType":"address"}],"outputs":[],"stateMutability":"nonpayable"},{"type":"function","name":"spendCredits","inputs":[{"name":"user","type":"address","internalType":"address"},{"name":"amount","type":"uint256","internalType":"uint256"}],"outputs":[],"stateMutability":"nonpayable"},{"type":"function","name":"totalCredits","inputs":[],"outputs":[{"name":"","type":"uint256","internalType":"uint256"}],"stateMutability":"view"},{"type":"function","name":"transferOwnership","inputs":[{"name":"newOwner","type":"address","internalType":"address"}],"outputs":[],"stateMutability":"nonpayable"},{"type":"function","name":"treasury","inputs":[],"outputs":[{"name":"","type":"address","internalType":"address"}],"stateMutability":"view"},{"type":"event","name":"CreditsPurchased","inputs":[{"name":"buyer","type":"address","indexed":true,"internalType":"address"},{"name":"creditsAmount","type":"uint256","indexed":false,"internalType":"uint256"},{"name":"monPaid","type":"uint256","indexed":false,"internalType":"uint256"}],"anonymous":false},{"type":"event","name":"CreditsSold","inputs":[{"name":"seller","type":"address","indexed":true,"internalType":"address"},{"name":"creditsAmount","type":"uint256","indexed":false,"internalType":"uint256"},{"name":"monReceived","type":"uint256","indexed":false,"internalType":"uint256"}],"anonymous":false},{"type":"event","name":"LimitsUpdated","inputs":[{"name":"minPurchase","type":"uint256","indexed":false,"internalType":"uint256"},{"name":"maxPurchase","type":"uint256","indexed":false,"internalType":"uint256"}],"anonymous":false},{"type":"event","name":"OwnershipTransferred","inputs":[{"name":"previousOwner","type":"address","indexed":true,"internalType":"address"},{"name":"newOwner","type":"address","indexed":true,"internalType":"address"}],"anonymous":false},{"type":"event","name":"PausedStateChanged","inputs":[{"name":"isPaused","type":"bool","indexed":false,"internalType":"bool"}],"anonymous":false},{"type":"event","name":"RatesUpdated","inputs":[{"name":"newMonPerCredit","type":"uint256","indexed":false,"internalType":"uint256"},{"name":"newSellBackRate","type":"uint256","indexed":false,"internalType":"uint256"}],"anonymous":false},{"type":"event","name":"TreasuryUpdated","inputs":[{"name":"newTreasury","type":"address","indexed":false,"internalType":"address"}],"anonymous":false},{"type":"error","name":"AboveMaximum","inputs":[]},{"type":"error","name":"BelowMinimum","inputs":[]},{"type":"error","name":"ContractPaused","inputs":[]},{"type":"error","name":"InsufficientCredits","inputs":[]},{"type":"error","name":"InsufficientMON","inputs":[]},{"type":"error","name":"OwnableInvalidOwner","inputs":[{"name":"owner","type":"address","internalType":"address"}]},{"type":"error","name":"OwnableUnauthorizedAccount","inputs":[{"name":"account","type":"address","internalType":"address"}]},{"type":"error","name":"ReentrancyGuardReentrantCall","inputs":[]},{"type":"error","name":"TransferFailed","inputs":[]},{"type":"error","name":"ZeroAddress","inputs":[]},{"type":"error","name":"ZeroAmount","inputs":[]}],"bytecode":{"object":"0x60a03461018057601f6110ab38819003918201601f19168301916001600160401b03831184841017610184578084926080946040528339810103126101805761004781610198565b9061005460208201610198565b906060604082015191015191331561016d575f8054336001600160a01b0319821681178355604051969290916001600160a01b0316907f8be0079c531659141344cd1fd0a4f28419497f9722a3daafe3b4186f6b6457e09080a360017f9b779b17422d0df92223018b32b4d1fa46e071723d6817e2486d003becc55f0055600a6007556103e86008556001600160a01b03168015801561015c575b61014d57608052600180546001600160a01b0319166001600160a01b0392909216919091179055600255600355610efe90816101ad82396080518181816103c2015281816104cd015281816106bb015281816109480152610bb10152f35b63d92e233d60e01b5f5260045ffd5b506001600160a01b038216156100ef565b631e4fbdf760e01b5f525f60045260245ffd5b5f80fd5b634e487b7160e01b5f52604160045260245ffd5b51906001600160a01b03821682036101805756fe60806040526004361015610011575f80fd5b5f3560e01c80630c4dfe3f14610b45578063135a9c8114610b1b57806316c38b3c14610ab957806322ff23e3146108db5780632614d4a41461086757806333b5b62e1461084a5780633b66e9f6146107125780633ff3226d146107f55780634d4ccd5a146107d85780635312ea8e146107895780635b06faf71461076c5780635c975abb1461074a5780636009a2d81461071257806361d027b3146106ea57806363eb9f90146106a65780636e2949cb146105425780636f9fb98a146104a2578063715018a61461044b578063783d5152146103805780638da5cb5b14610359578063977b055b1461033c578063ac6af280146102ee578063b5bd3eb9146102d1578063bc3c39cb1461029e578063c4590d3f14610250578063f0f44260146101cb5763f2fde38b14610142575f80fd5b346101c75760203660031901126101c75761015b610d26565b610163610e82565b6001600160a01b031680156101b4575f80546001600160a01b03198116831782556001600160a01b0316907f8be0079c531659141344cd1fd0a4f28419497f9722a3daafe3b4186f6b6457e09080a3005b631e4fbdf760e01b5f525f60045260245ffd5b5f80fd5b346101c75760203660031901126101c7576101e4610d26565b6101ec610e82565b6001600160a01b03168015610241576020817f7dae230f18360d76a040c81f050aa14eb9d6dc7901b20fc5d855e2a20fe814d1926bffffffffffffffffffffffff60a01b6001541617600155604051908152a1005b63d92e233d60e01b5f5260045ffd5b346101c7577f4d4981437d0211f9e6843eb024d9ada1fa3a99514d4343d4aece106dd11524bb604061028136610d6d565b610289610e82565b816007558060085582519182526020820152a1005b346101c75760203660031901126101c7576020670de0b6b3a76400006102c8600354600435610d83565b04604051908152f35b346101c7575f3660031901126101c7576020600654604051908152f35b346101c7577f0cf6ce3db485f79e960e63b1550af071fe0c99c09834149273e0fa8b32018ff8604061031f36610d6d565b610327610e82565b816002558060035582519182526020820152a1005b346101c7575f3660031901126101c7576020600854604051908152f35b346101c7575f3660031901126101c7575f546040516001600160a01b039091168152602090f35b346101c75760203660031901126101c7576040516323b872dd60e01b81523360048083019190915230602483015235604482015260208180606481015b03815f7f00000000000000000000000000000000000000000000000000000000000000006001600160a01b03165af1908115610440575f91610411575b501561040257005b6312171d8360e31b5f5260045ffd5b610433915060203d602011610439575b61042b8183610daa565b810190610de0565b816103fa565b503d610421565b6040513d5f823e3d90fd5b346101c7575f3660031901126101c757610463610e82565b5f80546001600160a01b0319811682556001600160a01b03167f8be0079c531659141344cd1fd0a4f28419497f9722a3daafe3b4186f6b6457e08280a3005b346101c7575f3660031901126101c7576040516370a0823160e01b81523060048201526020816024817f00000000000000000000000000000000000000000000000000000000000000006001600160a01b03165afa8015610440575f9061050f575b602090604051908152f35b506020813d60201161053a575b8161052960209383610daa565b810103126101c75760209051610504565b3d915061051c565b346101c75760403660031901126101c75760043567ffffffffffffffff81116101c757610573903690600401610d3c565b9060243567ffffffffffffffff81116101c757610594903690600401610d3c565b91909261059f610e82565b82810361066f575f5b8181106105b157005b6001906001600160a01b036105cf6105ca838688610e12565b610e36565b165f52600560205260405f20546105e7828789610e12565b35838060a01b036105fc6105ca85888a610e12565b165f52600560205260405f20558061061583888a610e12565b3511156106465761063461063c9161062e84898b610e12565b35610e05565b600654610df8565b6006555b016105a8565b61065f6106679161065884898b610e12565b3590610e05565b600654610e05565b600655610640565b60405162461bcd60e51b815260206004820152600f60248201526e098cadccee8d040dad2e6dac2e8c6d608b1b6044820152606490fd5b346101c7575f3660031901126101c7576040517f00000000000000000000000000000000000000000000000000000000000000006001600160a01b03168152602090f35b346101c7575f3660031901126101c7576001546040516001600160a01b039091168152602090f35b346101c75760203660031901126101c7576001600160a01b03610733610d26565b165f526005602052602060405f2054604051908152f35b346101c7575f3660031901126101c757602060ff600454166040519015158152f35b346101c7575f3660031901126101c7576020600354604051908152f35b346101c75760203660031901126101c7576107a2610e82565b5f5460405163a9059cbb60e01b81526001600160a01b0390911660048083019190915235602482015260208180604481016103bd565b346101c7575f3660031901126101c7576020600254604051908152f35b346101c75760403660031901126101c757610845610811610d26565b6024359061081d610e82565b60018060a01b03165f52600560205260405f2061083b828254610df8565b9055600654610df8565b600655005b346101c7575f3660031901126101c7576020600754604051908152f35b346101c75760403660031901126101c757610880610d26565b6024359061088c610e82565b60018060a01b031690815f5260056020528060405f2054106108cc57610845915f52600560205260405f206108c2828254610e05565b9055600654610e05565b6343fb945360e01b5f5260045ffd5b346101c75760203660031901126101c7576004356108f7610e4a565b60ff60045416610aaa578015610a9b57335f5260056020528060405f2054106108cc57670de0b6b3a764000061092f60035483610d83565b6040516370a0823160e01b8152306004820152919004907f00000000000000000000000000000000000000000000000000000000000000006001600160a01b031690602081602481855afa80156104405783915f91610a66575b5010610a5757335f52600560205260405f206109a6848254610e05565b90556109b483600654610e05565b60065560405163a9059cbb60e01b81523360048201526024810183905290602090829060449082905f905af1908115610440575f91610a38575b50156104025760405191825260208201527fdba203466b79e47774f14c051bb95848307f0cfacde61767e2bbb883ad098b8060403392a260015f516020610ea95f395f51905f5255005b610a51915060203d6020116104395761042b8183610daa565b836109ee565b635eae596760e11b5f5260045ffd5b9150506020813d602011610a93575b81610a8260209383610daa565b810103126101c75782905185610989565b3d9150610a75565b631f2a200560e01b5f5260045ffd5b63ab35696f60e01b5f5260045ffd5b346101c75760203660031901126101c7576004358015158091036101c75760207f9e3a5e37224532dea67b89face185703738a228a6e8a23dee546960180d3be6491610b03610e82565b60ff196004541660ff821617600455604051908152a1005b346101c75760203660031901126101c7576020670de0b6b3a76400006102c8600254600435610d83565b346101c75760203660031901126101c757600435610b61610e4a565b60ff60045416610aaa578015610a9b576007548110610d17576008548111610d0857670de0b6b3a7640000610b9860025483610d83565b6040516370a0823160e01b8152336004820152919004907f00000000000000000000000000000000000000000000000000000000000000006001600160a01b031690602081602481855afa80156104405783915f91610cd3575b5010610a57576001546040516323b872dd60e01b81523360048201526001600160a01b0390911660248201526044810183905290602090829060649082905f905af1908115610440575f91610cb4575b501561040257335f52600560205260405f20610c5f838254610df8565b9055610c6d82600654610df8565b60065560405191825260208201527ffb82fc1c5adf84899709e87563b69dd5f4ac33320f1c60dbca744bec717eb90f60403392a260015f516020610ea95f395f51905f5255005b610ccd915060203d6020116104395761042b8183610daa565b83610c42565b9150506020813d602011610d00575b81610cef60209383610daa565b810103126101c75782905185610bf2565b3d9150610ce2565b63973f732360e01b5f5260045ffd5b63860b82a960e01b5f5260045ffd5b600435906001600160a01b03821682036101c757565b9181601f840112156101c75782359167ffffffffffffffff83116101c7576020808501948460051b0101116101c757565b60409060031901126101c7576004359060243590565b81810292918115918404141715610d9657565b634e487b7160e01b5f52601160045260245ffd5b90601f8019910116810190811067ffffffffffffffff821117610dcc57604052565b634e487b7160e01b5f52604160045260245ffd5b908160209103126101c7575180151581036101c75790565b91908201809211610d9657565b91908203918211610d9657565b9190811015610e225760051b0190565b634e487b7160e01b5f52603260045260245ffd5b356001600160a01b03811681036101c75790565b60025f516020610ea95f395f51905f525414610e735760025f516020610ea95f395f51905f5255565b633ee5aeb560e01b5f5260045ffd5b5f546001600160a01b03163303610e9557565b63118cdaa760e01b5f523360045260245ffdfe9b779b17422d0df92223018b32b4d1fa46e071723d6817e2486d003becc55f00a264697066735822122092df2c4170adee9355db90c9a7f6a4e9dc15eb989fec452ccbedf61e813f8e9e64736f6c63430008210033","linkReferences":{}},"methodIdentifiers":{"awardCredits(address,uint256)":"3ff3226d","batchSetCredits(address[],uint256[])":"6e2949cb","buyCredits(uint256)":"0c4dfe3f","calculateBuyCost(uint256)":"135a9c81","calculateSellReturn(uint256)":"bc3c39cb","creditBalances(address)":"6009a2d8","depositMON(uint256)":"783d5152","emergencyWithdraw(uint256)":"5312ea8e","getContractBalance()":"6f9fb98a","getCredits(address)":"3b66e9f6","maxPurchase()":"977b055b","minPurchase()":"33b5b62e","monPerCredit()":"4d4ccd5a","monToken()":"63eb9f90","owner()":"8da5cb5b","paused()":"5c975abb","renounceOwnership()":"715018a6","sellBackRate()":"5b06faf7","sellCredits(uint256)":"22ff23e3","setLimits(uint256,uint256)":"c4590d3f","setPaused(bool)":"16c38b3c","setRates(uint256,uint256)":"ac6af280","setTreasury(address)":"f0f44260","spendCredits(address,uint256)":"2614d4a4","totalCredits()":"b5bd3eb9","transferOwnership(address)":"f2fde38b","treasury()":"61d027b3"},"id":1}