{"abi":[{"type":"function","name":"getValue","inputs":[{"name":"_number","type":"uint256","internalType":"uint256"}],"outputs":[{"name":"","type":"uint256","internalType":"uint256"}],"stateMutability":"view"},{"type":"function","name":"initialize","inputs":[],"outputs":[],"stateMutability":"nonpayable"},{"type":"function","name":"setValue","inputs":[{"name":"_number","type":"uint256","internalType":"uint256"}],"outputs":[],"stateMutability":"nonpayable"},{"type":"event","name":"Initialized","inputs":[{"name":"version","type":"uint64","indexed":false,"internalType":"uint64"}],"anonymous":false},{"type":"error","name":"InvalidInitialization","inputs":[]},{"type":"error","name":"NotInitializing","inputs":[]}],"bytecode":{"object":"0x60808060405234601557610215908161001a8239f35b5f80fdfe6080806040526004361015610012575f80fd5b5f3560e01c9081630ff4c9161461018457508063552410771461016c57638129fc1c1461003d575f80fd5b34610168575f366003190112610168575f5160206101c05f395f51905f525460ff8160401c16159067ffffffffffffffff811680159081610160575b6001149081610156575b15908161014d575b5061013e5767ffffffffffffffff1981166001175f5160206101c05f395f51905f525581610112575b506100bb57005b68ff0000000000000000195f5160206101c05f395f51905f5254165f5160206101c05f395f51905f52557fc7f505b2f371ae2175ee4913f4499e1f2633a7b5936321eed1cdaeb6115181d2602060405160018152a1005b68ffffffffffffffffff191668010000000000000001175f5160206101c05f395f51905f52555f6100b4565b63f92ee8a960e01b5f5260045ffd5b9050155f61008b565b303b159150610083565b839150610079565b5f80fd5b34610168576020366003190112610168576004355f55005b34610168576020366003190112610168575f549060043582018092116101ab576020918152f35b634e487b7160e01b5f52601160045260245ffdfef0c57e16840df040f15088dc2f81fe391c3923bec73e23a9662efc9c229c6a00a264697066735822122071c2b171a2f166493e62acee1a552ded1b6becf93066e5b5e80efc02c2bf7bab64736f6c63430008210033","linkReferences":{}},"methodIdentifiers":{"getValue(uint256)":"0ff4c916","initialize()":"8129fc1c","setValue(uint256)":"55241077"},"id":168}