{"abi":[{"type":"fallback","stateMutability":"nonpayable"},{"type":"function","name":"getValue","inputs":[],"outputs":[{"name":"","type":"uint256","internalType":"uint256"}],"stateMutability":"view"},{"type":"function","name":"initialize","inputs":[],"outputs":[],"stateMutability":"nonpayable"},{"type":"function","name":"setValue","inputs":[{"name":"_number","type":"uint256","internalType":"uint256"}],"outputs":[],"stateMutability":"nonpayable"},{"type":"event","name":"Initialized","inputs":[{"name":"version","type":"uint64","indexed":false,"internalType":"uint64"}],"anonymous":false},{"type":"error","name":"InvalidInitialization","inputs":[]},{"type":"error","name":"NotInitializing","inputs":[]}],"bytecode":{"object":"0x608080604052346015576101fe908161001a8239f35b5f80fdfe608080604052600436101561001f575b503461001b5760015f55005b5f80fd5b5f3560e01c908163209652551461018f57508063552410771461017757638129fc1c1461004c575f61000f565b3461001b575f36600319011261001b575f5160206101a95f395f51905f525460ff8160401c16159067ffffffffffffffff81168015908161016f575b6001149081610165575b15908161015c575b5061014d5767ffffffffffffffff1981166001175f5160206101a95f395f51905f525581610121575b506100ca57005b68ff0000000000000000195f5160206101a95f395f51905f5254165f5160206101a95f395f51905f52557fc7f505b2f371ae2175ee4913f4499e1f2633a7b5936321eed1cdaeb6115181d2602060405160018152a1005b68ffffffffffffffffff191668010000000000000001175f5160206101a95f395f51905f52555f6100c3565b63f92ee8a960e01b5f5260045ffd5b9050155f61009a565b303b159150610092565b839150610088565b3461001b57602036600319011261001b576004355f55005b3461001b575f36600319011261001b576020905f548152f3fef0c57e16840df040f15088dc2f81fe391c3923bec73e23a9662efc9c229c6a00a2646970667358221220252efce4ced39620fc414dd673c3ff1cf56f2557989e9f1ad7ddf3f7f8da054964736f6c63430008210033","linkReferences":{}},"methodIdentifiers":{"getValue()":"20965255","initialize()":"8129fc1c","setValue(uint256)":"55241077"},"id":178}