{"abi":[{"type":"constructor","inputs":[{"name":"array","type":"address[]","internalType":"address[]"}],"stateMutability":"nonpayable"},{"type":"function","name":"length","inputs":[],"outputs":[{"name":"","type":"uint256","internalType":"uint256"}],"stateMutability":"view"},{"type":"function","name":"sort","inputs":[{"name":"array","type":"address[]","internalType":"address[]"}],"outputs":[{"name":"","type":"address[]","internalType":"address[]"}],"stateMutability":"pure"},{"type":"function","name":"sortReverse","inputs":[{"name":"array","type":"address[]","internalType":"address[]"}],"outputs":[{"name":"","type":"address[]","internalType":"address[]"}],"stateMutability":"pure"},{"type":"function","name":"unsafeAccess","inputs":[{"name":"pos","type":"uint256","internalType":"uint256"}],"outputs":[{"name":"","type":"address","internalType":"address"}],"stateMutability":"view"},{"type":"function","name":"unsafeSetLength","inputs":[{"name":"newLength","type":"uint256","internalType":"uint256"}],"outputs":[],"stateMutability":"nonpayable"}],"bytecode":{"object":"0x608060405234610176576104fb803803806100198161017a565b928339810190602081830312610176578051906001600160401b038211610176570181601f82011215610176578051906001600160401b038211610142578160051b92602061006981860161017a565b8094815201916020839582010191821161017657602001915b81831061015657505090519190506001600160401b03821161014257680100000000000000008211610142575f54825f55808310610118575b505f8080527f290decd9548b62a8d60345a988386fc84ba6bc95484008f6362f93160ef3e5639291905b8281106100fb5760405161035b90816101a08239f35b81516001600160a01b0316818501556020909101906001016100e5565b5f8052828060205f20019103905f5b8281106101355750506100bb565b5f82820155600101610127565b634e487b7160e01b5f52604160045260245ffd5b82516001600160a01b038116810361017657815260209283019201610082565b5f80fd5b6040519190601f01601f191682016001600160401b038111838210176101425760405256fe60806040526004361015610011575f80fd5b5f3560e01c8063128424a71461007f5780631f7b6d321461005f57806340aa934d1461005a57806346d1dbac146100555763e9fdbeba14610050575f80fd5b61024d565b610218565b6101d0565b3461007b575f36600319011261007b5760205f54604051908152f35b5f80fd5b3461007b576100a6610090366100d2565b6100998161025f565b506040519182918261017c565b0390f35b634e487b7160e01b5f52604160045260245ffd5b35906001600160a01b038216820361007b57565b602060031982011261007b576004359067ffffffffffffffff821161007b578060238301121561007b5781600401359167ffffffffffffffff8311610177578260051b9060405193601f19603f840116850185811067ffffffffffffffff8211176101775760405284526024602085019282010192831161007b57602401905b82821061015f5750505090565b6020809161016c846100be565b815201910190610152565b6100aa565b60206040818301928281528451809452019201905f5b81811061019f5750505090565b82516001600160a01b0316845260209384019390920191600101610192565b602090600319011261007b5760043590565b3461007b5760206101e0366101be565b5f80527f290decd9548b62a8d60345a988386fc84ba6bc95484008f6362f93160ef3e56301546040516001600160a01b039091168152f35b3461007b576100a6610229366100d2565b61024160016020835160051b8401016020840161027a565b6040519182918261017c565b3461007b5761025b366101be565b5f55005b61027760026020835160051b8401016020840161027a565b90565b91906040838203106103205782519282818095602084015b8581106102ba57505082518151845281526102ac9261027a565b60206102b8930161027a565b565b915091508051858060011461030c576002146102e457634e487b7160e01b5f52605160045260245ffd5b82115b6102f8575b60200184918691610292565b6020958601805182518252825295506102ec565b506001600160a01b038381169116116102e7565b50505056fea2646970667358221220e1025e2a9ecc69c693cc17561616dcdcd340202ec25ab858ee5784c8611e329564736f6c63430008210033","linkReferences":{}},"methodIdentifiers":{"length()":"1f7b6d32","sort(address[])":"128424a7","sortReverse(address[])":"46d1dbac","unsafeAccess(uint256)":"40aa934d","unsafeSetLength(uint256)":"e9fdbeba"},"id":145}