{"abi":[{"type":"constructor","inputs":[{"name":"array","type":"bytes32[]","internalType":"bytes32[]"}],"stateMutability":"nonpayable"},{"type":"function","name":"length","inputs":[],"outputs":[{"name":"","type":"uint256","internalType":"uint256"}],"stateMutability":"view"},{"type":"function","name":"sort","inputs":[{"name":"array","type":"bytes32[]","internalType":"bytes32[]"}],"outputs":[{"name":"","type":"bytes32[]","internalType":"bytes32[]"}],"stateMutability":"pure"},{"type":"function","name":"sortReverse","inputs":[{"name":"array","type":"bytes32[]","internalType":"bytes32[]"}],"outputs":[{"name":"","type":"bytes32[]","internalType":"bytes32[]"}],"stateMutability":"pure"},{"type":"function","name":"unsafeAccess","inputs":[{"name":"pos","type":"uint256","internalType":"uint256"}],"outputs":[{"name":"","type":"bytes32","internalType":"bytes32"}],"stateMutability":"view"},{"type":"function","name":"unsafeSetLength","inputs":[{"name":"newLength","type":"uint256","internalType":"uint256"}],"outputs":[],"stateMutability":"nonpayable"}],"bytecode":{"object":"0x60806040523461015e576104aa8038038061001981610162565b92833981019060208183031261015e578051906001600160401b03821161015e57019080601f8301121561015e578151906001600160401b03821161013a578160051b92602061006a818601610162565b8094815201906020829582010192831161015e57602001905b82821061014e57505090519190506001600160401b03821161013a5768010000000000000000821161013a575f54825f55808310610110575b505f8080527f290decd9548b62a8d60345a988386fc84ba6bc95484008f6362f93160ef3e5639291905b8281106100fc5760405161032290816101888239f35b6001906020835193019281860155016100e6565b5f8052828060205f20019103905f5b82811061012d5750506100bc565b5f8282015560010161011f565b634e487b7160e01b5f52604160045260245ffd5b8151815260209182019101610083565b5f80fd5b6040519190601f01601f191682016001600160401b0381118382101761013a5760405256fe60806040526004361015610011575f80fd5b5f3560e01c80631f7b6d321461009c578063216ee6551461005f57806340aa934d1461005a5780638ea613b7146100555763e9fdbeba14610050575f80fd5b61021d565b6101f6565b6101b8565b3461009857610094610070366100cb565b61008860016020835160051b8401016020840161024a565b6040519182918261016d565b0390f35b5f80fd5b34610098575f366003190112610098575f5460805260206080f35b634e487b7160e01b5f52604160045260245ffd5b6020600319820112610098576004359067ffffffffffffffff821161009857806023830112156100985781600401359167ffffffffffffffff8311610168578260051b9060405193601f19603f840116850185811067ffffffffffffffff8211176101685760405284526024602085019282010192831161009857602401905b8282106101585750505090565b813581526020918201910161014b565b6100b7565b60206040818301928281528451809452019201905f5b8181106101905750505090565b8251845260209384019390920191600101610183565b60209060031901126100985760043590565b346100985760206101c8366101a6565b5f80527f290decd9548b62a8d60345a988386fc84ba6bc95484008f6362f93160ef3e5630154604051908152f35b3461009857610094610207366100cb565b6102108161022f565b506040519182918261016d565b346100985761022b366101a6565b5f55005b61024760026020835160051b8401016020840161024a565b90565b91906040838203106102e75782519282818095602084015b85811061028a575050825181518452815261027c9261024a565b6020610288930161024a565b565b9150915080518583816001146102de57506002146102b657634e487b7160e01b5f52605160045260245ffd5b82115b6102ca575b60200184918691610262565b6020958601805182518252825295506102be565b919050116102b9565b50505056fea2646970667358221220f25cb9ec32bd4374bb5b539ded67c770f29674c6f82afa8b07c4fa093138fe6d64736f6c63430008210033","linkReferences":{}},"methodIdentifiers":{"length()":"1f7b6d32","sort(bytes32[])":"8ea613b7","sortReverse(bytes32[])":"216ee655","unsafeAccess(uint256)":"40aa934d","unsafeSetLength(uint256)":"e9fdbeba"},"id":155}