{"abi":[{"type":"constructor","inputs":[{"name":"array","type":"bytes[]","internalType":"bytes[]"}],"stateMutability":"nonpayable"},{"type":"function","name":"length","inputs":[],"outputs":[{"name":"","type":"uint256","internalType":"uint256"}],"stateMutability":"view"},{"type":"function","name":"unsafeAccess","inputs":[{"name":"pos","type":"uint256","internalType":"uint256"}],"outputs":[{"name":"","type":"bytes","internalType":"bytes"}],"stateMutability":"view"},{"type":"function","name":"unsafeSetLength","inputs":[{"name":"newLength","type":"uint256","internalType":"uint256"}],"outputs":[],"stateMutability":"nonpayable"}],"bytecode":{"object":"0x60806040523461030a57610578803803806100198161030e565b92833981019060208183031261030a578051906001600160401b03821161030a57019080601f8301121561030a578151906001600160401b038211610207578160051b92602061006a81860161030e565b8094815201602081958301019183831161030a5760208101915b83831061029957855187680100000000000000008211610207575f54825f5580831061021b575b505f8080527f290decd9548b62a8d60345a988386fc84ba6bc95484008f6362f93160ef3e56392915b8282106100ea576040516101f190816103878239f35b80518051906001600160401b038211610207576101078654610333565b601f81116101c4575b50602090601f831160011461015b5792826001949360209386955f92610150575b50505f19600383901b1c191690841b1787555b019401910190926100d4565b015190508980610131565b90601f19831691875f52815f20925f5b8181106101ac5750936020936001969387969383889510610194575b505050811b018755610144565b01515f1960f88460031b161c19169055898080610187565b9293602060018192878601518155019501930161016b565b82811115610110576101f990875f5260205f2090601f850160051c90602086106101ff575b601f82910160051c03910161036b565b86610110565b5f91506101e9565b634e487b7160e01b5f52604160045260245ffd5b5f8052828060205f20019103905f5b8281106102385750506100ab565b8060019183016102488154610333565b9081610257575b50500161022a565b81601f5f9311851461026d5750555b868061024f565b8183526020832061028991601f0160051c84190190860161036b565b8082528160208120915555610266565b82516001600160401b03811161030a57820185603f8201121561030a576020810151916001600160401b038311610207576102dd601f8401601f191660200161030e565b838152604083850101881061030a575f602085819660408397018386015e83010152815201920191610084565b5f80fd5b6040519190601f01601f191682016001600160401b0381118382101761020757604052565b90600182811c92168015610361575b602083101461034d57565b634e487b7160e01b5f52602260045260245ffd5b91607f1691610342565b5f5b82811061037957505050565b5f8282015560010161036d56fe6080806040526004361015610012575f80fd5b5f3560e01c9081631f7b6d32146101a25750806340aa934d146100595763e9fdbeba1461003d575f80fd5b34610055576020366003190112610055576004355f55005b5f80fd5b34610055576020366003190112610055575f80526004357f290decd9548b62a8d60345a988386fc84ba6bc95484008f6362f93160ef3e56301604051905f8154918260011c9060018416938415610198575b6020831085146101845782865260208601949081156101695750600114610131575b5050829003601f01601f191682019167ffffffffffffffff83118184101761011d576040918391828452602083525180918160208501528484015e5f828201840152601f01601f19168101030190f35b634e487b7160e01b5f52604160045260245ffd5b9091505f5260205f205f905b82821061015357506020915083010183806100cd565b600181602092548385890101520191019061013d565b60ff191685525050151560051b8301602001905083806100cd565b634e487b7160e01b5f52602260045260245ffd5b91607f16916100ab565b34610055575f366003190112610055576020905f548152f3fea264697066735822122079c2275d2467eb388298f3646d7dd29399ac497bd42377ee4e6b10c3992b48b764736f6c63430008210033","linkReferences":{}},"methodIdentifiers":{"length()":"1f7b6d32","unsafeAccess(uint256)":"40aa934d","unsafeSetLength(uint256)":"e9fdbeba"},"id":155}