{"abi":[{"type":"constructor","inputs":[{"name":"_token","type":"address","internalType":"address"},{"name":"_trustedSigner","type":"address","internalType":"address"},{"name":"_defaultExpiryHours","type":"uint24","internalType":"uint24"}],"stateMutability":"nonpayable"},{"type":"function","name":"claimBatch","inputs":[{"name":"epoch","type":"uint256","internalType":"uint256"},{"name":"dropIds","type":"bytes32[]","internalType":"bytes32[]"},{"name":"amounts","type":"uint256[]","internalType":"uint256[]"},{"name":"proofs","type":"bytes32[][]","internalType":"bytes32[][]"}],"outputs":[],"stateMutability":"nonpayable"},{"type":"function","name":"claimDropSimple","inputs":[{"name":"dropId","type":"bytes32","internalType":"bytes32"},{"name":"amount","type":"uint256","internalType":"uint256"}],"outputs":[],"stateMutability":"nonpayable"},{"type":"function","name":"claimGasless","inputs":[{"name":"claimer","type":"address","internalType":"address"},{"name":"dropId","type":"bytes32","internalType":"bytes32"},{"name":"amount","type":"uint256","internalType":"uint256"},{"name":"deadline","type":"uint256","internalType":"uint256"},{"name":"userNonce","type":"uint256","internalType":"uint256"},{"name":"signature","type":"bytes","internalType":"bytes"},{"name":"relayerSignature","type":"bytes","internalType":"bytes"}],"outputs":[],"stateMutability":"nonpayable"},{"type":"function","name":"claimSingle","inputs":[{"name":"dropIdSmall","type":"uint32","internalType":"uint32"},{"name":"amount","type":"uint256","internalType":"uint256"},{"name":"deadline","type":"uint256","internalType":"uint256"},{"name":"signature","type":"bytes","internalType":"bytes"}],"outputs":[],"stateMutability":"nonpayable"},{"type":"function","name":"claimWithHash","inputs":[{"name":"dropId","type":"bytes32","internalType":"bytes32"},{"name":"amount","type":"uint256","internalType":"uint256"},{"name":"deadline","type":"uint256","internalType":"uint256"},{"name":"signature","type":"bytes","internalType":"bytes"}],"outputs":[],"stateMutability":"nonpayable"},{"type":"function","name":"config","inputs":[],"outputs":[{"name":"owner","type":"address","internalType":"address"},{"name":"trustedSigner","type":"address","internalType":"address"},{"name":"paused","type":"bool","internalType":"bool"},{"name":"defaultExpiryHours","type":"uint24","internalType":"uint24"}],"stateMutability":"view"},{"type":"function","name":"createDrop","inputs":[{"name":"difficulty","type":"uint256","internalType":"uint256"},{"name":"dropName","type":"string","internalType":"string"}],"outputs":[{"name":"","type":"bytes32","internalType":"bytes32"}],"stateMutability":"nonpayable"},{"type":"function","name":"currentEpoch","inputs":[],"outputs":[{"name":"","type":"uint256","internalType":"uint256"}],"stateMutability":"view"},{"type":"function","name":"deposit","inputs":[{"name":"amount","type":"uint256","internalType":"uint256"}],"outputs":[],"stateMutability":"nonpayable"},{"type":"function","name":"emergencyWithdraw","inputs":[],"outputs":[],"stateMutability":"nonpayable"},{"type":"function","name":"epochMerkleRoots","inputs":[{"name":"","type":"uint256","internalType":"uint256"}],"outputs":[{"name":"","type":"bytes32","internalType":"bytes32"}],"stateMutability":"view"},{"type":"function","name":"getBalance","inputs":[],"outputs":[{"name":"","type":"uint256","internalType":"uint256"}],"stateMutability":"view"},{"type":"function","name":"getDomainSeparator","inputs":[],"outputs":[{"name":"","type":"bytes32","internalType":"bytes32"}],"stateMutability":"view"},{"type":"function","name":"isClaimedHash","inputs":[{"name":"dropId","type":"bytes32","internalType":"bytes32"},{"name":"user","type":"address","internalType":"address"}],"outputs":[{"name":"","type":"bool","internalType":"bool"}],"stateMutability":"view"},{"type":"function","name":"isClaimedSmall","inputs":[{"name":"dropId","type":"uint32","internalType":"uint32"}],"outputs":[{"name":"","type":"bool","internalType":"bool"}],"stateMutability":"view"},{"type":"function","name":"nonces","inputs":[{"name":"","type":"address","internalType":"address"}],"outputs":[{"name":"","type":"uint256","internalType":"uint256"}],"stateMutability":"view"},{"type":"function","name":"setConfig","inputs":[{"name":"signer","type":"address","internalType":"address"},{"name":"expiryHours","type":"uint24","internalType":"uint24"}],"outputs":[],"stateMutability":"nonpayable"},{"type":"function","name":"setMerkleRoot","inputs":[{"name":"root","type":"bytes32","internalType":"bytes32"}],"outputs":[],"stateMutability":"nonpayable"},{"type":"function","name":"setPaused","inputs":[{"name":"_paused","type":"bool","internalType":"bool"}],"outputs":[],"stateMutability":"nonpayable"},{"type":"function","name":"token","inputs":[],"outputs":[{"name":"","type":"address","internalType":"contract IERC20"}],"stateMutability":"view"},{"type":"function","name":"transferOwnership","inputs":[{"name":"newOwner","type":"address","internalType":"address"}],"outputs":[],"stateMutability":"nonpayable"},{"type":"function","name":"withdraw","inputs":[{"name":"amount","type":"uint256","internalType":"uint256"}],"outputs":[],"stateMutability":"nonpayable"},{"type":"event","name":"BatchClaimed","inputs":[{"name":"claimer","type":"address","indexed":true,"internalType":"address"},{"name":"totalAmount","type":"uint256","indexed":false,"internalType":"uint256"},{"name":"dropCount","type":"uint256","indexed":false,"internalType":"uint256"}],"anonymous":false},{"type":"event","name":"ConfigUpdated","inputs":[{"name":"signer","type":"address","indexed":false,"internalType":"address"},{"name":"expiryHours","type":"uint24","indexed":false,"internalType":"uint24"}],"anonymous":false},{"type":"event","name":"Deposited","inputs":[{"name":"from","type":"address","indexed":true,"internalType":"address"},{"name":"amount","type":"uint256","indexed":false,"internalType":"uint256"}],"anonymous":false},{"type":"event","name":"DropClaimed","inputs":[{"name":"dropId","type":"bytes32","indexed":true,"internalType":"bytes32"},{"name":"claimer","type":"address","indexed":true,"internalType":"address"},{"name":"amount","type":"uint256","indexed":false,"internalType":"uint256"},{"name":"epoch","type":"uint256","indexed":true,"internalType":"uint256"}],"anonymous":false},{"type":"event","name":"EpochUpdated","inputs":[{"name":"epoch","type":"uint256","indexed":true,"internalType":"uint256"},{"name":"merkleRoot","type":"bytes32","indexed":false,"internalType":"bytes32"}],"anonymous":false},{"type":"event","name":"Withdrawn","inputs":[{"name":"to","type":"address","indexed":true,"internalType":"address"},{"name":"amount","type":"uint256","indexed":false,"internalType":"uint256"}],"anonymous":false},{"type":"error","name":"AlreadyClaimed","inputs":[]},{"type":"error","name":"BatchTooLarge","inputs":[]},{"type":"error","name":"ECDSAInvalidSignature","inputs":[]},{"type":"error","name":"ECDSAInvalidSignatureLength","inputs":[{"name":"length","type":"uint256","internalType":"uint256"}]},{"type":"error","name":"ECDSAInvalidSignatureS","inputs":[{"name":"s","type":"bytes32","internalType":"bytes32"}]},{"type":"error","name":"Expired","inputs":[]},{"type":"error","name":"InsufficientBalance","inputs":[]},{"type":"error","name":"InvalidProof","inputs":[]},{"type":"error","name":"InvalidSignature","inputs":[]},{"type":"error","name":"Paused","inputs":[]},{"type":"error","name":"SafeERC20FailedOperation","inputs":[{"name":"token","type":"address","internalType":"address"}]},{"type":"error","name":"Unauthorized","inputs":[]},{"type":"error","name":"ZeroAddress","inputs":[]},{"type":"error","name":"ZeroAmount","inputs":[]}],"bytecode":{"object":"0x60c0806040523461021157606081611717803803809161001f8285610215565b8339810103126102115761003281610238565b90604061004160208301610238565b9101519162ffffff831690818403610211576001600160a01b031680158015610200575b6101f15760a0526040519160808301906001600160401b038211848310176101dd5760609160405233845260018060a01b0316928360208201525f604082015201523360018060a01b03195f5416175f5560018060a01b031960015416176001556001549062ffffff60a81b9060a81b169063ffffffff60a01b19161760015560405160208101907f8b73c3c69bb8fe3d512ecc4cf759cc79239f7b179b0ffacaa9a75d522b39400f82527faec4f904cf1bfead46b54d8ff855a280325c02d61af0f81a84da3cba9a296b3060408201527fad7c5bef027816a800da1736444fb58a807ef4c9603b7848673f7e3a68eb14a560608201524660808201523060a082015260a0815261017760c082610215565b5190206080526040516114ca908161024d82396080518181816102120152611294015260a05181818161012001528181610314015281816103c90152818161073f015281816107a501528181610a7a01528181610d7a01528181610ebb0152610fbb0152f35b634e487b7160e01b5f52604160045260245ffd5b63d92e233d60e01b5f5260045ffd5b506001600160a01b03831615610065565b5f80fd5b601f909101601f19168101906001600160401b038211908210176101dd57604052565b51906001600160a01b03821682036102115756fe60806040526004361015610011575f80fd5b5f3560e01c80630b4234771461105757806311594ece14610fdf57806311f2649814610f3057806312065fe014610e9057806316c38b3c14610e425780632817988f14610d9e5780632e1a7d4d14610d4d5780634ee0067a146109a7578063766718081461098a57806379502c551461093c5780637cb64759146108cf5780637ecebe0014610897578063b179f7d91461086d578063b6b55f251461078f578063be82808014610576578063c6eb296c14610484578063db2e21bc14610393578063eaf18ef614610235578063ed24911d146101fb578063f2fde38b14610193578063f905bf4c146101535763fc0c546a1461010b575f80fd5b3461014f575f36600319011261014f576040517f00000000000000000000000000000000000000000000000000000000000000006001600160a01b03168152602090f35b5f80fd5b3461014f57602036600319011261014f576020600160ff6101726110f6565b62ffffff8160081c165f5260038452161b60405f2054161515604051908152f35b3461014f57602036600319011261014f576101ac611136565b5f54906001600160a01b03821633036101ed576001600160a01b03169081156101de576001600160a01b031916175f55005b63d92e233d60e01b5f5260045ffd5b6282b42960e81b5f5260045ffd5b3461014f575f36600319011261014f5760206040517f00000000000000000000000000000000000000000000000000000000000000008152f35b3461014f57608036600319011261014f576004356024356044356064356001600160401b03811161014f5761026e903690600401611109565b9060ff60015460a01c16610384578242116103755783156103665760408051602081018781523360601b6001600160601b031916928201929092526102c081605481015b03601f19810183528261117c565b51902092835f52600460205260ff60405f205416610357576102fa935f52600460205260405f20600160ff19825416179055843387611206565b335f52600260205260405f206001815401905561033881337f00000000000000000000000000000000000000000000000000000000000000006112e3565b600654916040519182525f5160206114755f395f51905f5260203393a4005b630c8d9eab60e31b5f5260045ffd5b631f2a200560e01b5f5260045ffd5b630407b05b60e31b5f5260045ffd5b6313d0ff5960e31b5f5260045ffd5b3461014f575f36600319011261014f575f546001600160a01b031633036101ed576040516370a0823160e01b81523060048201527f00000000000000000000000000000000000000000000000000000000000000006020826024816001600160a01b0385165afa918215610479575f92610443575b50816104159133906112e3565b6040519081527f7084f5476618d8e60b11ef0d7d3f06914655adb8793e28ff7f018d4c76d505d560203392a2005b9091506020813d602011610471575b8161045f6020938361117c565b8101031261014f575190610415610408565b3d9150610452565b6040513d5f823e3d90fd5b3461014f57604036600319011261014f576004356024356001600160401b03811161014f576104b7903690600401611109565b5f54909291906001600160a01b031633036101ed57602092610500603485604051848195838301978837810142838201523360601b60408201520301601481018452018261117c565b51902090806105395750678ac7230489e800005b60065490604051908152825f5160206114755f395f51905f52853093a4604051908152f35b60018103610551575068015af1d78b58c40000610514565b600203610567576802b5e3af16b1880000610514565b68056bc75e2d63100000610514565b3461014f5760e036600319011261014f5761058f611136565b60443590608435906024359060643560a4356001600160401b03811161014f576105bd903690600401611109565b92909160c4356001600160401b03811161014f576105df903690600401611109565b94909360ff60015460a01c16610384578242116103755760018060a01b03841697885f5260026020528060405f2054036107805760408051602081018a8152606088901b6001600160601b0319169282019290925261064181605481016102b2565b51902092835f52600460205260ff60405f205416610357576106fb61070a938a8d610701958e985f52600460205260405f20600160ff198254161790556040519160208301938452604083015289606083015260808201524660a082015260a081526106ae60c08261117c565b51902060405160208101917f19457468657265756d205369676e6564204d6573736167653a0a3332000000008352603c820152603c81526106f0605c8261117c565b5190209236916111c1565b90611344565b9092919261137e565b6001600160a01b0316036107805761076393879361072a92858589611206565b845f52600260205260405f20600181540190557f00000000000000000000000000000000000000000000000000000000000000006112e3565b5f5160206114755f395f51905f52602060065494604051908152a4005b638baa579f60e01b5f5260045ffd5b3461014f57602036600319011261014f576004357f000000000000000000000000000000000000000000000000000000000000000090604051916323b872dd60e01b5f5233600452306024528160445260205f60648180855af160015f511481161561084e575b836040525f6060521561082e575081527f2da466a7b24304f47e87fa2e1e5a81b9831ce54fec19055ce277ca2f39ba42c460203392a2005b635274afe760e01b5f9081526001600160a01b0391909116600452602490fd5b600181151661086457813b15153d1516166107f6565b833d5f823e3d90fd5b3461014f57602036600319011261014f576004355f526005602052602060405f2054604051908152f35b3461014f57602036600319011261014f576001600160a01b036108b8611136565b165f526002602052602060405f2054604051908152f35b3461014f57602036600319011261014f575f54600435906001600160a01b031633036101ed57600160065401806006555f5260056020528060405f20557f5d3f1ec4849828a7f94a53805326ec42f5137742b2661b0d75129047b247785c602060065492604051908152a2005b3461014f575f36600319011261014f575f54600154604080516001600160a01b039384168152928216602084015260a082901c60ff1615159083015260a81c62ffffff166060820152608090f35b3461014f575f36600319011261014f576020600654604051908152f35b3461014f57608036600319011261014f576024356001600160401b03811161014f576109d790369060040161114c565b6044356001600160401b03811161014f576109f690369060040161114c565b926064356001600160401b03811161014f57610a1690369060040161114c565b9260ff60015460a01c1661038457600a8511610d3e57858514801590610d34575b610d01576004355f52600560205260405f2054928315610d0157939091955f965f915b878310610b44576040516370a0823160e01b8152306004820152899089907f0000000000000000000000000000000000000000000000000000000000000000906020816024816001600160a01b0386165afa80156104795784915f91610b0f575b5010610b005782610acd9133906112e3565b60405191825260208201527ff3f5e449de3de5506a6c5e1390e685f684feae755d32dc163dd4761b2ce5e86f60403392a2005b631e9acf1760e31b5f5260045ffd5b9150506020813d602011610b3c575b81610b2b6020938361117c565b8101031261014f5783905185610abb565b3d9150610b1e565b610b568389899b9697999a989a6111b1565b3595610b6384838a6111b1565b60408051602081018a81523360601b6001600160601b0319169282019290925291359791610b9481605481016102b2565b51902093845f52600460205260ff60405f2054166103575760405160208101908a82523360601b604082015289605482015260548152610bd560748261117c565b5190209982871015610d20578660051b8201359a601e19833603018c121561014f576001600160401b038c8401351161014f578b83013560051b360360208d8501011361014f576040519b610c338482013560051b6020018e61117c565b8381018035808f5260051b01602090810191908e019036831161014f578501602001905b828210610d1057505050945f955b8c51871015610ca75760208d8860051b010151908181105f14610c96575f52602052600160405f205b960195610c65565b905f52602052600160405f20610c8e565b90969299979d95508c9a949c9198939b5003610d015760019186915f52600460205260405f208360ff19825416179055019a0193604051908152600435915f5160206114755f395f51905f5260203393a495929390610a5a565b6309bde33960e01b5f5260045ffd5b8135815260209182019101610c57565b634e487b7160e01b5f52603260045260245ffd5b5083851415610a37565b6305beb17160e11b5f5260045ffd5b3461014f57602036600319011261014f575f54600435906001600160a01b031633036101ed5761041581337f00000000000000000000000000000000000000000000000000000000000000006112e3565b3461014f57604036600319011261014f57610db7611136565b60243562ffffff81169182820361014f575f546001600160a01b031633036101ed576001600160a01b031680156101de577fcc8e9dd39cbb5483f9871d396cd3ea9b69c1f3ec84be65aa2d9c1e997baf8f1292604092826001549162ffffff60a81b9060a81b16916bffffffffffffffff000000ff60a01b16171760015582519182526020820152a1005b3461014f57602036600319011261014f5760043580151580910361014f575f546001600160a01b031633036101ed576001805460ff60a01b191660a09290921b60ff60a01b16919091179055005b3461014f575f36600319011261014f576040516370a0823160e01b81523060048201526020816024817f00000000000000000000000000000000000000000000000000000000000000006001600160a01b03165afa8015610479575f90610efd575b602090604051908152f35b506020813d602011610f28575b81610f176020938361117c565b8101031261014f5760209051610ef2565b3d9150610f0a565b3461014f57604036600319011261014f5760043560243560ff60015460a01c166103845780156103665760408051602081018481523360601b6001600160601b03191692820192909252610f8781605481016102b2565b519020805f52600460205260ff60405f205416610357575f52600460205260405f20600160ff1982541617905561033881337f00000000000000000000000000000000000000000000000000000000000000006112e3565b3461014f57604036600319011261014f576024356001600160a01b038116810361014f57604051611039816102b2602082019460043586909160349282526bffffffffffffffffffffffff199060601b1660208201520190565b5190205f526004602052602060ff60405f2054166040519015158152f35b3461014f57608036600319011261014f576110706110f6565b602435604435916064356001600160401b03811161014f57611096903690600401611109565b9060ff60015460a01c16610384578442116103755783156103665763ffffffff831694600160ff62ffffff8660081c1695161b845f52600360205260405f2054818116610357576102fa955f5260036020521760405f2055843387611206565b6004359063ffffffff8216820361014f57565b9181601f8401121561014f578235916001600160401b03831161014f576020838186019501011161014f57565b600435906001600160a01b038216820361014f57565b9181601f8401121561014f578235916001600160401b03831161014f576020808501948460051b01011161014f57565b90601f801991011681019081106001600160401b0382111761119d57604052565b634e487b7160e01b5f52604160045260245ffd5b9190811015610d205760051b0190565b9291926001600160401b03821161119d57604051916111ea601f8201601f19166020018461117c565b82948184528183011161014f578281602093845f960137010152565b6106fb926112cc9694610701969360018060a01b031691825f52600260205260405f2054906040519360208501957f47fa442004d93b8712973b3444d754abfa475c18cddecdfa9c1e141c2b350a83875260408601526060850152608084015260a083015260c082015260c0815261127f60e08261117c565b519020604051602081019161190160f01b83527f000000000000000000000000000000000000000000000000000000000000000060228301526042820152604281526106f060628261117c565b6001546001600160a01b0390811691160361078057565b916040519163a9059cbb60e01b5f5260018060a01b031660045260245260205f60448180865af19060015f5114821615611323575b6040521561082e5750565b90600181151661133b57823b15153d15161690611318565b503d5f823e3d90fd5b81519190604183036113745761136d9250602082015190606060408401519301515f1a906113f2565b9192909190565b50505f9160029190565b60048110156113de5780611390575050565b600181036113a75763f645eedf60e01b5f5260045ffd5b600281036113c2575063fce698f760e01b5f5260045260245ffd5b6003146113cc5750565b6335e2f38360e21b5f5260045260245ffd5b634e487b7160e01b5f52602160045260245ffd5b91907f7fffffffffffffffffffffffffffffff5d576e7357a4501ddfe92f46681b20a08411611469579160209360809260ff5f9560405194855216868401526040830152606082015282805260015afa15610479575f516001600160a01b0381161561145f57905f905f90565b505f906001905f90565b5050505f916003919056fe3a14e212f2a854be2ef7350a0b0e9b4436bc1008d575b38e5a5fb7aec145d381a26469706673582212204295b976acdf71bcfe7844a2132082bfb41d99df151c57492b8acd1308dc79c264736f6c63430008210033","linkReferences":{}},"methodIdentifiers":{"claimBatch(uint256,bytes32[],uint256[],bytes32[][])":"4ee0067a","claimDropSimple(bytes32,uint256)":"11f26498","claimGasless(address,bytes32,uint256,uint256,uint256,bytes,bytes)":"be828080","claimSingle(uint32,uint256,uint256,bytes)":"0b423477","claimWithHash(bytes32,uint256,uint256,bytes)":"eaf18ef6","config()":"79502c55","createDrop(uint256,string)":"c6eb296c","currentEpoch()":"76671808","deposit(uint256)":"b6b55f25","emergencyWithdraw()":"db2e21bc","epochMerkleRoots(uint256)":"b179f7d9","getBalance()":"12065fe0","getDomainSeparator()":"ed24911d","isClaimedHash(bytes32,address)":"11594ece","isClaimedSmall(uint32)":"f905bf4c","nonces(address)":"7ecebe00","setConfig(address,uint24)":"2817988f","setMerkleRoot(bytes32)":"7cb64759","setPaused(bool)":"16c38b3c","token()":"fc0c546a","transferOwnership(address)":"f2fde38b","withdraw(uint256)":"2e1a7d4d"},"id":4}