{"abi":[{"type":"constructor","inputs":[{"name":"_apToken","type":"address","internalType":"address"},{"name":"_trustedSigner","type":"address","internalType":"address"}],"stateMutability":"nonpayable"},{"type":"function","name":"DEFAULT_STAKE","inputs":[],"outputs":[{"name":"","type":"uint256","internalType":"uint256"}],"stateMutability":"view"},{"type":"function","name":"GAME_COLOR_SEQUENCE","inputs":[],"outputs":[{"name":"","type":"uint8","internalType":"uint8"}],"stateMutability":"view"},{"type":"function","name":"GAME_MATH_CHALLENGE","inputs":[],"outputs":[{"name":"","type":"uint8","internalType":"uint8"}],"stateMutability":"view"},{"type":"function","name":"GAME_MEMORY_MATCH","inputs":[],"outputs":[{"name":"","type":"uint8","internalType":"uint8"}],"stateMutability":"view"},{"type":"function","name":"GAME_PATTERN_LOCK","inputs":[],"outputs":[{"name":"","type":"uint8","internalType":"uint8"}],"stateMutability":"view"},{"type":"function","name":"GAME_TIC_TAC_TOE","inputs":[],"outputs":[{"name":"","type":"uint8","internalType":"uint8"}],"stateMutability":"view"},{"type":"function","name":"GAME_TIMEOUT","inputs":[],"outputs":[{"name":"","type":"uint256","internalType":"uint256"}],"stateMutability":"view"},{"type":"function","name":"GAME_WORD_SCRAMBLE","inputs":[],"outputs":[{"name":"","type":"uint8","internalType":"uint8"}],"stateMutability":"view"},{"type":"function","name":"LOBBY_TIMEOUT","inputs":[],"outputs":[{"name":"","type":"uint256","internalType":"uint256"}],"stateMutability":"view"},{"type":"function","name":"MAX_PLAYERS","inputs":[],"outputs":[{"name":"","type":"uint256","internalType":"uint256"}],"stateMutability":"view"},{"type":"function","name":"MIN_PLAYERS","inputs":[],"outputs":[{"name":"","type":"uint256","internalType":"uint256"}],"stateMutability":"view"},{"type":"function","name":"NUM_GAME_TYPES","inputs":[],"outputs":[{"name":"","type":"uint8","internalType":"uint8"}],"stateMutability":"view"},{"type":"function","name":"apToken","inputs":[],"outputs":[{"name":"","type":"address","internalType":"address"}],"stateMutability":"view"},{"type":"function","name":"batchSettleGame","inputs":[{"name":"stationId","type":"bytes32","internalType":"bytes32"},{"name":"players","type":"address[]","internalType":"address[]"},{"name":"scores","type":"uint256[]","internalType":"uint256[]"},{"name":"signatures","type":"bytes[]","internalType":"bytes[]"}],"outputs":[],"stateMutability":"nonpayable"},{"type":"function","name":"cancelGame","inputs":[{"name":"stationId","type":"bytes32","internalType":"bytes32"},{"name":"reason","type":"string","internalType":"string"}],"outputs":[],"stateMutability":"nonpayable"},{"type":"function","name":"createStation","inputs":[{"name":"name","type":"string","internalType":"string"},{"name":"latitude","type":"int256","internalType":"int256"},{"name":"longitude","type":"int256","internalType":"int256"},{"name":"stakeAmount","type":"uint256","internalType":"uint256"},{"name":"minPlayers","type":"uint256","internalType":"uint256"},{"name":"maxPlayers","type":"uint256","internalType":"uint256"}],"outputs":[{"name":"","type":"bytes32","internalType":"bytes32"}],"stateMutability":"nonpayable"},{"type":"function","name":"forceCompleteGame","inputs":[{"name":"stationId","type":"bytes32","internalType":"bytes32"}],"outputs":[],"stateMutability":"nonpayable"},{"type":"function","name":"getAllStations","inputs":[],"outputs":[{"name":"","type":"bytes32[]","internalType":"bytes32[]"}],"stateMutability":"view"},{"type":"function","name":"getMinimumStake","inputs":[{"name":"stationId","type":"bytes32","internalType":"bytes32"}],"outputs":[{"name":"","type":"uint256","internalType":"uint256"}],"stateMutability":"view"},{"type":"function","name":"getPlayerScore","inputs":[{"name":"stationId","type":"bytes32","internalType":"bytes32"},{"name":"player","type":"address","internalType":"address"}],"outputs":[{"name":"","type":"uint256","internalType":"uint256"}],"stateMutability":"view"},{"type":"function","name":"getSessionInfo","inputs":[{"name":"stationId","type":"bytes32","internalType":"bytes32"}],"outputs":[{"name":"players","type":"address[]","internalType":"address[]"},{"name":"selectedGame","type":"uint8","internalType":"uint8"},{"name":"totalPool","type":"uint256","internalType":"uint256"},{"name":"startedAt","type":"uint256","internalType":"uint256"},{"name":"status","type":"uint8","internalType":"enum MultiplayerStation.StationStatus"}],"stateMutability":"view"},{"type":"function","name":"getStation","inputs":[{"name":"stationId","type":"bytes32","internalType":"bytes32"}],"outputs":[{"name":"","type":"tuple","internalType":"struct MultiplayerStation.Station","components":[{"name":"name","type":"string","internalType":"string"},{"name":"latitude","type":"int256","internalType":"int256"},{"name":"longitude","type":"int256","internalType":"int256"},{"name":"stakeAmount","type":"uint256","internalType":"uint256"},{"name":"minPlayers","type":"uint256","internalType":"uint256"},{"name":"maxPlayers","type":"uint256","internalType":"uint256"},{"name":"createdAt","type":"uint256","internalType":"uint256"},{"name":"creator","type":"address","internalType":"address"},{"name":"isActive","type":"bool","internalType":"bool"}]}],"stateMutability":"view"},{"type":"function","name":"getStationCount","inputs":[],"outputs":[{"name":"","type":"uint256","internalType":"uint256"}],"stateMutability":"view"},{"type":"function","name":"joinStation","inputs":[{"name":"stationId","type":"bytes32","internalType":"bytes32"}],"outputs":[],"stateMutability":"nonpayable"},{"type":"function","name":"joinWithSignature","inputs":[{"name":"stationId","type":"bytes32","internalType":"bytes32"},{"name":"player","type":"address","internalType":"address"},{"name":"signature","type":"bytes","internalType":"bytes"},{"name":"deadline","type":"uint256","internalType":"uint256"}],"outputs":[],"stateMutability":"nonpayable"},{"type":"function","name":"leaveStation","inputs":[{"name":"stationId","type":"bytes32","internalType":"bytes32"}],"outputs":[],"stateMutability":"nonpayable"},{"type":"function","name":"owner","inputs":[],"outputs":[{"name":"","type":"address","internalType":"address"}],"stateMutability":"view"},{"type":"function","name":"playerCurrentStation","inputs":[{"name":"","type":"address","internalType":"address"}],"outputs":[{"name":"","type":"bytes32","internalType":"bytes32"}],"stateMutability":"view"},{"type":"function","name":"renounceOwnership","inputs":[],"outputs":[],"stateMutability":"nonpayable"},{"type":"function","name":"setAPToken","inputs":[{"name":"_apToken","type":"address","internalType":"address"}],"outputs":[],"stateMutability":"nonpayable"},{"type":"function","name":"setTrustedSigner","inputs":[{"name":"_signer","type":"address","internalType":"address"}],"outputs":[],"stateMutability":"nonpayable"},{"type":"function","name":"stationIds","inputs":[{"name":"","type":"uint256","internalType":"uint256"}],"outputs":[{"name":"","type":"bytes32","internalType":"bytes32"}],"stateMutability":"view"},{"type":"function","name":"stations","inputs":[{"name":"","type":"bytes32","internalType":"bytes32"}],"outputs":[{"name":"name","type":"string","internalType":"string"},{"name":"latitude","type":"int256","internalType":"int256"},{"name":"longitude","type":"int256","internalType":"int256"},{"name":"stakeAmount","type":"uint256","internalType":"uint256"},{"name":"minPlayers","type":"uint256","internalType":"uint256"},{"name":"maxPlayers","type":"uint256","internalType":"uint256"},{"name":"createdAt","type":"uint256","internalType":"uint256"},{"name":"creator","type":"address","internalType":"address"},{"name":"isActive","type":"bool","internalType":"bool"}],"stateMutability":"view"},{"type":"function","name":"submitScore","inputs":[{"name":"stationId","type":"bytes32","internalType":"bytes32"},{"name":"player","type":"address","internalType":"address"},{"name":"score","type":"uint256","internalType":"uint256"},{"name":"signature","type":"bytes","internalType":"bytes"}],"outputs":[],"stateMutability":"nonpayable"},{"type":"function","name":"toggleStation","inputs":[{"name":"stationId","type":"bytes32","internalType":"bytes32"},{"name":"isActive","type":"bool","internalType":"bool"}],"outputs":[],"stateMutability":"nonpayable"},{"type":"function","name":"transferOwnership","inputs":[{"name":"newOwner","type":"address","internalType":"address"}],"outputs":[],"stateMutability":"nonpayable"},{"type":"function","name":"trustedSigner","inputs":[],"outputs":[{"name":"","type":"address","internalType":"address"}],"stateMutability":"view"},{"type":"event","name":"GameCancelled","inputs":[{"name":"stationId","type":"bytes32","indexed":true,"internalType":"bytes32"},{"name":"reason","type":"string","indexed":false,"internalType":"string"}],"anonymous":false},{"type":"event","name":"GameCompleted","inputs":[{"name":"stationId","type":"bytes32","indexed":true,"internalType":"bytes32"},{"name":"winner","type":"address","indexed":true,"internalType":"address"},{"name":"prizeAmount","type":"uint256","indexed":false,"internalType":"uint256"}],"anonymous":false},{"type":"event","name":"GameStarted","inputs":[{"name":"stationId","type":"bytes32","indexed":true,"internalType":"bytes32"},{"name":"selectedGame","type":"uint8","indexed":false,"internalType":"uint8"},{"name":"players","type":"address[]","indexed":false,"internalType":"address[]"}],"anonymous":false},{"type":"event","name":"OwnershipTransferred","inputs":[{"name":"previousOwner","type":"address","indexed":true,"internalType":"address"},{"name":"newOwner","type":"address","indexed":true,"internalType":"address"}],"anonymous":false},{"type":"event","name":"PlayerJoined","inputs":[{"name":"stationId","type":"bytes32","indexed":true,"internalType":"bytes32"},{"name":"player","type":"address","indexed":true,"internalType":"address"},{"name":"stakedAmount","type":"uint256","indexed":false,"internalType":"uint256"}],"anonymous":false},{"type":"event","name":"PlayerLeft","inputs":[{"name":"stationId","type":"bytes32","indexed":true,"internalType":"bytes32"},{"name":"player","type":"address","indexed":true,"internalType":"address"},{"name":"refundAmount","type":"uint256","indexed":false,"internalType":"uint256"}],"anonymous":false},{"type":"event","name":"ScoreSubmitted","inputs":[{"name":"stationId","type":"bytes32","indexed":true,"internalType":"bytes32"},{"name":"player","type":"address","indexed":true,"internalType":"address"},{"name":"score","type":"uint256","indexed":false,"internalType":"uint256"}],"anonymous":false},{"type":"event","name":"StationCreated","inputs":[{"name":"stationId","type":"bytes32","indexed":true,"internalType":"bytes32"},{"name":"name","type":"string","indexed":false,"internalType":"string"},{"name":"latitude","type":"int256","indexed":false,"internalType":"int256"},{"name":"longitude","type":"int256","indexed":false,"internalType":"int256"},{"name":"stakeAmount","type":"uint256","indexed":false,"internalType":"uint256"}],"anonymous":false},{"type":"error","name":"AlreadyInStation","inputs":[]},{"type":"error","name":"AlreadySubmitted","inputs":[]},{"type":"error","name":"GameAlreadyStarted","inputs":[]},{"type":"error","name":"GameNotStarted","inputs":[]},{"type":"error","name":"InsufficientStake","inputs":[]},{"type":"error","name":"InvalidSignature","inputs":[]},{"type":"error","name":"NotEnoughPlayers","inputs":[]},{"type":"error","name":"NotInStation","inputs":[]},{"type":"error","name":"OwnableInvalidOwner","inputs":[{"name":"owner","type":"address","internalType":"address"}]},{"type":"error","name":"OwnableUnauthorizedAccount","inputs":[{"name":"account","type":"address","internalType":"address"}]},{"type":"error","name":"ReentrancyGuardReentrantCall","inputs":[]},{"type":"error","name":"StationDoesNotExist","inputs":[]},{"type":"error","name":"StationFull","inputs":[]},{"type":"error","name":"StationNotActive","inputs":[]},{"type":"error","name":"TransferFailed","inputs":[]},{"type":"error","name":"Unauthorized","inputs":[]}],"bytecode":{"object":"0x608080604052346104ac57604081612eaa803803809161001f82856104b0565b8339810103126104ac5761003e6020610037836104d3565b92016104d3565b3315610499575f8054336001600160a01b0319821681178355604051949290916001600160a01b0316907f8be0079c531659141344cd1fd0a4f28419497f9722a3daafe3b4186f6b6457e09080a360017f9b779b17422d0df92223018b32b4d1fa46e071723d6817e2486d003becc55f0081905580546001600160a01b039283166001600160a01b03199182161790915560028054939092169216919091179055604081018181106001600160401b0382111761039f57604052600c815260208101906b4c4e4d494954204172656e6160a01b82526040516020810190610152606060208386518089885e810163019a616c83820152630484d1b460408201524284820152030160408101845201826104b0565b51902060405190929061012081016001600160401b0381118282101761039f576040528281526020810163019a616c81526040820191630484d1b48352606081016802b5e3af16b18800008152608082016002815260a08301906004825260c084019242845260e0850196338852610100860196600188528b5f52600360205260405f20965180519060018060401b03821161039f578854600181811c9116801561048f575b602082101461047b57601f811161042a575b50602090601f83116001146103be5760079998979695949392915f91836103b3575b50508160011b915f199060031b1c19161787555b516001870155516002860155516003850155516004808501919091559051600584015590516006830155935191018054925160ff60a01b90151560a01b166001600160a01b039092166001600160a81b031990931692909217179055546801000000000000000081101561039f57600181018060045581101561038b577f8a35acfbc15ff81a39ae7d344fd709f28e8600b4aa8c65c6b64bfe7fe36bd19b018390555f8381526005602052604090819020848155600901805460ff60a01b1916600160a01b17905551608080825292519281018390527f916d941cf97be3533c0fa11c6f714a3cb1bb8a70f783f70d9d54e29a8200935592909160a091839181908385015e5f82820184015263019a616c6020830152630484d1b460408301526802b5e3af16b18800006060830152601f01601f19168101030190a26040516129c290816104e88239f35b634e487b7160e01b5f52603260045260245ffd5b634e487b7160e01b5f52604160045260245ffd5b015190505f8061022c565b90601f198316918a5f52815f20925f5b818110610412575091600193918560079d9c9b9a9998979694106103fa575b505050811b018755610240565b01515f1960f88460031b161c191690555f80806103ed565b929360206001819287860151815501950193016103ce565b8281111561020a57895f5260205f20601f840160051c9060208510610473575b81601f9101920160051c03905f5b82811061046657505061020a565b5f82820155600101610458565b5f915061044a565b634e487b7160e01b5f52602260045260245ffd5b90607f16906101f8565b631e4fbdf760e01b5f525f60045260245ffd5b5f80fd5b601f909101601f19168101906001600160401b0382119082101761039f57604052565b51906001600160a01b03821682036104ac5756fe60806040526004361015610011575f80fd5b5f3560e01c806301ae12951461025a578063099420b6146102555780631541e4de14610250578063202d5fc4146102465780632118f9c41461024b5780634411b3eb146102465780634dcf743b146102415780634e62b52f1461023c57806351982f5e1461023757806354cd6fa81461023257806356a1c7011461022d578063641a0f3314610228578063712860dc14610223578063715018a61461021e578063750379da146102195780637563fc161461021457806385f07bbe146101ec57806387ad53ca1461020f5780638d06c6491461020a5780638da5cb5b146102055780638e6e3a0814610200578063a0e773d7146101fb578063a16353bf146101f6578063a568622a146101f1578063b3575131146101ec578063c1d4c642146101e7578063da45b383146101e2578063db4c1ff1146101dd578063e391daf9146101d8578063e893aa1a146101d3578063e8e1a27b146101ce578063eb5bd160146101c9578063f0182e34146101c4578063f2fde38b146101bf578063f5777cec146101ba578063f74d5480146101b55763f934af87146101b0575f80fd5b611a16565b6119ee565b611979565b61176c565b611749565b611702565b6116e7565b611553565b611503565b61146b565b6113c9565b611325565b610e61565b61130a565b6112ee565b61106d565b610f0e565b610ee7565b610ecc565b610e7c565b610de2565b610d85565b610d2e565b610cf3565b610b4f565b610b08565b610820565b6107ba565b6105bc565b61059f565b6104cb565b61051f565b6103dd565b610318565b34610314576020366003190112610314576004356002546001600160a01b0316331415806102ef575b6102e157806102da6102d260076102a56102df955f52600560205260405f2090565b6102cb60036102bc600984015460ff9060a01c1690565b6102c58161133f565b14611a31565b0154611a88565b421015611aa9565b611ffd565b005b6282b42960e81b5f5260045ffd5b505f5461030c906001600160a01b03165b6001600160a01b031690565b331415610283565b5f80fd5b34610314575f3660031901126103145760206040516107088152f35b805180835260209291819084018484015e5f828201840152601f01601f1916010190565b6103da906020815261012061010061037c8551836020860152610140850190610334565b94602081015160408501526040810151606085015260608101516080850152608081015160a085015260a081015160c085015260c081015160e08501526103d160e08201518386019060018060a01b03169052565b01511515910152565b90565b34610314576020366003190112610314576004355f61010060405161040181611841565b606081528260208201528260408201528260608201528260808201528260a08201528260c08201528260e082015201525f5260036020526104c760405f206104bb6104b1600761044f611aeb565b9361045981611883565b855260018101546020860152600281015460408601526003810154606086015260048101546080860152600581015460a0860152600681015460c086015201546001600160a01b03811660e085015260a01c60ff1690565b1515610100830152565b60405191829182610358565b0390f35b34610314575f36600319011261031457602060405160048152f35b60206040818301928281528451809452019201905f5b8181106105095750505090565b82518452602093840193909201916001016104fc565b34610314575f3660031901126103145760405180602060045491828152019060045f527f8a35acfbc15ff81a39ae7d344fd709f28e8600b4aa8c65c6b64bfe7fe36bd19b905f5b818110610589576104c78561057d81870382611862565b604051918291826104e6565b8254845260209093019260019283019201610566565b34610314575f366003190112610314576020600454604051908152f35b34610314576020366003190112610314576004356105d86121ca565b6105ea815f52600360205260405f2090565b6105fc825f52600560205260405f2090565b60078201546106139060a01c60ff161590565b1590565b6107ab57600981015460019060a01c60ff1661062e8161133f565b0361079c576001810180546005840154111561078d57335f9081526006602052604090205461077e576001546001600160a01b03166003840180546040516323b872dd60e01b60208201908152336024830152306044830152606482019290925291925f9283929083906106af81608481015b03601f198101835282611862565b51925af16106bb611b16565b501561076f576004926106ce3384611b45565b8154335f9081526002830160205260409020556106f2600683549201918254611a9c565b9055335f90815260066020526040902085905554847f65525cf08411b7a61d237681a43890956ad2e2ede88afd947f58eb4158c37f956040518061073c3395829190602083019252565b0390a3549101541115610760575b6102df60015f51602061296d5f395f51905f5255565b61076990612252565b5f61074a565b6312171d8360e31b5f5260045ffd5b632a4034cd60e21b5f5260045ffd5b63017b928960e21b5f5260045ffd5b63ba26162b60e01b5f5260045ffd5b6301b4df1d60e51b5f5260045ffd5b34610314575f366003190112610314576001546040516001600160a01b039091168152602090f35b6001600160a01b0381160361031457565b9181601f84011215610314578235916001600160401b038311610314576020838186019501011161031457565b3461031457608036600319011261031457600435602435610840816107e2565b6044356001600160401b0381116103145761085f9036906004016107f3565b90919060643561086d6121ca565b61087981421115611b8c565b60025461088e906001600160a01b0316610300565b33148015610ae6575b6108a090611bcc565b6108b2855f52600360205260405f2090565b936108c5865f52600560205260405f2090565b936108db61060f600788015460ff9060a01c1690565b6107ab57600985015460019060a01c60ff166108f68161133f565b0361079c57600185019384546005880154111561078d576001600160a01b0382165f9081526006602052604090205461077e576109d6906109d060038901948554966106a16109838d60405192839160208301958d8c4693899391609495939185526bffffffffffffffffffffffff199060601b1660208501526034840152605483015260748201520190565b5190206040516109c5816106a1602082019485603c917f19457468657265756d205369676e6564204d6573736167653a0a3332000000008252601c8201520190565b519020923691611c07565b9061234e565b6001600160a01b03828116949116849003610ad7576001546040516323b872dd60e01b602082019081526001600160a01b03858116602484015230604484015260648301949094525f93849316918390610a3381608481016106a1565b51925af1610a3f611b16565b501561076f5761073c879283610ac584600499610a7d7f65525cf08411b7a61d237681a43890956ad2e2ede88afd947f58eb4158c37f95978b611b45565b84546001600160a01b0383165f908152600283016020526040902055610aaa600686549201918254611a9c565b90556001600160a01b03165f90815260066020526040902090565b55546040519081529081906020820190565b638baa579f60e01b5f5260045ffd5b505f546108a090610aff906001600160a01b0316610300565b33149050610897565b3461031457602036600319011261031457600435610b25816107e2565b610b2d612416565b600280546001600160a01b0319166001600160a01b0392909216919091179055005b346103145760c0366003190112610314576004356001600160401b03811161031457610b826104c79136906004016107f3565b7f916d941cf97be3533c0fa11c6f714a3cb1bb8a70f783f70d9d54e29a82009355602435604435610cca606435610bc96084359760a43597610bc2612416565b3691611c07565b92600288101580610ce8575b610bde9061243c565b8787101580610cdd575b610bf19061247e565b610bfc8215156124c0565b610c766040516020810190610c18816106a142878c8c88612505565b519020988998610c26611aeb565b878152602081018990526040810185905260608101869052608081019290925260a08201524260c08201523360e08201526001610100820152610c71895f52600360205260405f2090565b612657565b610c7f876126f6565b86610c92815f52600560205260405f2090565b55610cbe6009610caa895f52600560205260405f2090565b01805460ff60a01b1916600160a01b179055565b6040519485948561273f565b0390a26040519081529081906020820190565b506004871115610be8565b506004881115610bd5565b3461031457602036600319011261031457600435610d10816107e2565b60018060a01b03165f526006602052602060405f2054604051908152f35b34610314575f36600319011261031457610d46612416565b5f80546001600160a01b0319811682556001600160a01b03167f8be0079c531659141344cd1fd0a4f28419497f9722a3daafe3b4186f6b6457e08280a3005b34610314576020366003190112610314576004355f5260036020526020600360405f200154604051908152f35b9181601f84011215610314578235916001600160401b038311610314576020808501948460051b01011161031457565b34610314576080366003190112610314576004356024356001600160401b03811161031457610e15903690600401610db2565b916044356001600160401b03811161031457610e35903690600401610db2565b90606435946001600160401b03861161031457610e596102df963690600401610db2565b959094611c3d565b34610314575f36600319011261031457602060405160028152f35b34610314576040366003190112610314576020610ec3602435600435610ea1826107e2565b5f5260058352600360405f20019060018060a01b03165f5260205260405f2090565b54604051908152f35b34610314575f36600319011261031457602060405160018152f35b34610314575f366003190112610314575f546040516001600160a01b039091168152602090f35b3461031457602036600319011261031457600435610f2a6121ca565b610f3c815f52600560205260405f2090565b335f9081526006602052604090209091908190540361105e57600982015460019060a01c60ff16610f6c8161133f565b0361079c57335f818152600284016020819052604082205494600693909291610fab91610f9990876127a7565b335f9081526020919091526040902090565b5501610fb8838254611fc5565b9055335f908152600660205260408120556001545f9081906001600160a01b031660405163a9059cbb60e01b602082019081523360248301526044820187905290839061100881606481016106a1565b51925af1611014611b16565b501561076f5760405191825233917fcf0d7a42a42baf449dbf1a7c4b7b9a7f4bac3a411564ef0d46979e7fb9a59bfd90602090a36102df60015f51602061296d5f395f51905f5255565b634427223160e01b5f5260045ffd5b346103145760803660031901126103145760043560243561108d816107e2565b604435906064356001600160401b038111610314576110b09036906004016107f3565b9290916110bb6121ca565b6110cd855f52600560205260405f2090565b9260036110e2600986015460ff9060a01c1690565b6110eb8161133f565b036112df576001600160a01b0382165f9081526006602052604090208690540361105e57600484019461113861113184889060018060a01b03165f5260205260405f2090565b5460ff1690565b6112d0576040805160208101898152606086901b6bffffffffffffffffffffffff19169282019290925260548101869052466074820152611186936109d092909161098381609481016106a1565b60025461119b906001600160a01b0316610300565b6001600160a01b0390911603610ad7577f17e3dd5795d9c42e69290bf23f2cbc4ec86ecb77a8b1eca31236a14755c4d3ce61123382846111ef8995600389019060018060a01b03165f5260205260405f2090565b556001600160a01b0381165f908152602088905260409020611219905b805460ff19166001179055565b6040519485526001600160a01b0316939081906020820190565b0390a360019160015f92018054925b838110611271575b50505050611268576102df60015f51602061296d5f395f51905f5255565b61076990611ffd565b6112b561060f61113161129c61128785876114ee565b905460039190911b1c6001600160a01b031690565b6001600160a01b03165f90815260208790526040902090565b6112c157600101611242565b50505050505f5f80808061124a565b639fbfc58960e01b5f5260045ffd5b633a5f7b5760e01b5f5260045ffd5b34610314575f3660031901126103145760206040516103848152f35b34610314575f36600319011261031457602060405160058152f35b34610314575f3660031901126103145760206040515f8152f35b6005111561134957565b634e487b7160e01b5f52602160045260245ffd5b9290959493919560a084019060a085528051809252602060c086019101915f5b8181106113aa57505060ff9150961660208401526040830152606082015260058210156113495760800152565b83516001600160a01b031683526020938401939092019160010161137d565b34610314576020366003190112610314576004355f52600560205260405f20600181019060ff6005820154169060068101549060ff6009600783015492015460a01c16906040519283602087549182815201965f5260205f20905f5b81811061144c57505050611440846104c79596970386611862565b6040519586958661135d565b82546001600160a01b0316895260209098019760019283019201611425565b34610314576040366003190112610314576004356024359081151580920361031457611495612416565b5f9081526003602052604090206007018054909160ff60a01b1990911660a09190911b60ff60a01b16179055005b634e487b7160e01b5f52603260045260245ffd5b8054156114e9575f5260205f20905f90565b6114c3565b80548210156114e9575f5260205f2001905f90565b34610314576020366003190112610314576004356004548110156103145760209060045f527f8a35acfbc15ff81a39ae7d344fd709f28e8600b4aa8c65c6b64bfe7fe36bd19b0154604051908152f35b34610314576040366003190112610314576004356024356001600160401b038111610314576115869036906004016107f3565b60025490919061159e906001600160a01b0316610300565b331415806116ca575b6102e157906115be835f52600560205260405f2090565b925f916002600186019501925b855481101561168b57806115e4611287600193896114ee565b6001600160a01b0381165f908152602087905260409020548061160a575b5050016115cb565b83545f92611683929091849182916001600160a01b031660405163a9059cbb60e01b602082019081526001600160a01b03871660248301526044820193909352909190839061165c81606481016106a1565b51925af150611669611b16565b506001600160a01b03165f90815260066020526040902090565b555f80611602565b6102df83807fd48b0c9992d8d4b8967d1584dc8c1955390d9ff30639a7da9c77e7f0db86c3d885896116c260405192839283611fd6565b0390a2612846565b505f546116df906001600160a01b0316610300565b3314156115a7565b34610314575f36600319011261031457602060405160038152f35b346103145760203660031901126103145760043561171f816107e2565b611727612416565b600180546001600160a01b0319166001600160a01b0392909216919091179055005b34610314575f3660031901126103145760206040516802b5e3af16b18800008152f35b3461031457602036600319011261031457600435611789816107e2565b611791612416565b6001600160a01b031680156117e2575f80546001600160a01b03198116831782556001600160a01b0316907f8be0079c531659141344cd1fd0a4f28419497f9722a3daafe3b4186f6b6457e09080a3005b631e4fbdf760e01b5f525f60045260245ffd5b90600182811c92168015611823575b602083101461180f57565b634e487b7160e01b5f52602260045260245ffd5b91607f1691611804565b634e487b7160e01b5f52604160045260245ffd5b61012081019081106001600160401b0382111761185d57604052565b61182d565b90601f801991011681019081106001600160401b0382111761185d57604052565b9060405191825f825492611896846117f5565b808452936001811690811561190157506001146118bd575b506118bb92500383611862565b565b90505f9291925260205f20905f915b8183106118e55750509060206118bb928201015f6118ae565b60209193508060019154838589010152019101909184926118cc565b9050602092506118bb94915060ff191682840152151560051b8201015f6118ae565b979491999895926119436101009895926101208b526101208b0190610334565b60208a019b909b5260408901526060880152608087015260a086015260c08501526001600160a01b031660e08401521515910152565b34610314576020366003190112610314576004355f52600360205260405f206119a181611883565b6001820154600283015460038401546004850154600586015460068701546007909701546040519788976104c79760a084901c60ff16976001600160a01b0390941696929593918a611923565b34610314575f366003190112610314576002546040516001600160a01b039091168152602090f35b34610314575f36600319011261031457602060405160068152f35b15611a3857565b60405162461bcd60e51b815260206004820152601460248201527347616d65206e6f7420696e2070726f677265737360601b6044820152606490fd5b634e487b7160e01b5f52601160045260245ffd5b906107088201809211611a9757565b611a74565b91908201809211611a9757565b15611ab057565b60405162461bcd60e51b8152602060048201526013602482015272151a5b595bdd5d081b9bdd081c995858da1959606a1b6044820152606490fd5b604051906118bb61012083611862565b6001600160401b03811161185d57601f01601f191660200190565b3d15611b40573d90611b2782611afb565b91611b356040519384611862565b82523d5f602084013e565b606090565b90815491600160401b83101561185d5782611b689160016118bb950181556114ee565b81546001600160a01b0393841660039290921b91821b9390911b1916919091179055565b15611b9357565b60405162461bcd60e51b815260206004820152601160248201527014da59db985d1d5c9948195e1c1a5c9959607a1b6044820152606490fd5b15611bd357565b60405162461bcd60e51b815260206004820152600c60248201526b155b985d5d1a1bdc9a5e995960a21b6044820152606490fd5b929192611c1382611afb565b91611c216040519384611862565b829481845281830111610314578281602093845f960137010152565b959491909293611c4b6121ca565b80821480611f1d575b611c5d90611f26565b600254611c72906001600160a01b0316610300565b33148015611efb575b611c8790969396611bcc565b611c99875f52600560205260405f2090565b93611cb160036102bc600988015460ff9060a01c1690565b6004850194600301935f5b848110611ceb57505050505050505050611cd590611ffd565b6118bb60015f51602061296d5f395f51905f5255565b80888b898989858f8a8a8d9288611d29611d10611d0b60019f8a88611f6a565b611f7a565b6001600160a01b03165f90815260066020526040902090565b5403611eec57611d5c611131611d43611d0b888a88611f6a565b6001600160a01b03165f90815260208b90526040902090565b611eec576109d0610bc286611e13948d8d611dc8611d8b858c8f611d0b838f92611d8593611f6a565b95611f6a565b604080516020810194855260609590951b6bffffffffffffffffffffffff19169085015235605484015246607484015290919081609481016106a1565b519020604051611e0a816106a1602082019485603c917f19457468657265756d205369676e6564204d6573736167653a0a3332000000008252601c8201520190565b51902094611f84565b600254611e28906001600160a01b0316610300565b908b8060a01b031603611edf57611d0b83611eba95611eb493611eaf61120c7f17e3dd5795d9c42e69290bf23f2cbc4ec86ecb77a8b1eca31236a14755c4d3ce9b611ed59b8f611e7c888c611ea093611f6a565b3591611e8c611d0b8a8a8a611f6a565b60018060a01b03165f5260205260405f2090565b55611e8c611d0b878787611f6a565b611f6a565b96611f6a565b3593604051918291888060a01b031695829190602083019252565b0390a35b01611cbc565b5050505050505050611ed9565b50505050505050505050611ed9565b505f54611c8790611f14906001600160a01b0316610300565b33149050611c7b565b50808614611c54565b15611f2d57565b60405162461bcd60e51b8152602060048201526015602482015274082e4e4c2f240d8cadccee8d040dad2e6dac2e8c6d605b1b6044820152606490fd5b91908110156114e95760051b0190565b356103da816107e2565b91908110156114e95760051b81013590601e19813603018212156103145701908135916001600160401b038311610314576020018236038113610314579190565b91908203918211611a9757565b9055565b90918060409360208452816020850152848401375f828201840152601f01601f1916010190565b61200f815f52600560205260405f2090565b916001830190612021611287836114d7565b936003810161204086829060018060a01b03165f5260205260405f2090565b548454919060015b83811061214d5750505050600981018054600160a21b6001600160a81b03199091166001600160a01b0388161717905560069042600882015501546001549093905f9081906001600160a01b031660405163a9059cbb60e01b602082019081526001600160a01b038a166024830152604482018990529083906120ce81606481016106a1565b51925af16120da611b16565b501561076f575f5b835481101561210657805f6120ff611d10611287600195896114ee565b55016120e2565b5060405193845290936118bb939192506001600160a01b03169082907fd1abccae8934d5ff9b57f5f0a1bebe781f8f34d4c1c7b20e7634381deebc8db590602090a3612846565b8161217761215e611287848b6114ee565b6001600160a01b03165f90815260208690526040902090565b5411612186575b600101612048565b9750506121b261219961128789886114ee565b6001600160a01b03165f90815260208390526040902090565b5460016121c26112878a896114ee565b98905061217e565b60025f51602061296d5f395f51905f5254146121f35760025f51602061296d5f395f51905f5255565b633ee5aeb560e01b5f5260045ffd5b60609060ff604082019316815260406020820152835480935201915f5260205f20905f5b8181106122335750505090565b82546001600160a01b0316845260209093019260019283019201612226565b805f52600560205260405f20815f52600360205260405f20600182019060048254910154116122f7576122e37fdae2ad5233fcdbcc22a12b9ff2e86d7d9132900253b3cb8b69b824ddc88324d3926122a8612928565b906122c16005820192839060ff1660ff19825416179055565b60098101805460ff60a01b1916600360a01b1790556007429101555460ff1690565b6122f260405192839283612202565b0390a2565b60405162461bcd60e51b81526020600482015260126024820152714e6f7420656e6f75676820706c617965727360701b6044820152606490fd5b60ff601b9116019060ff8211611a9757565b6040513d5f823e3d90fd5b60418251036123d1576020915f91838201519160606040820151910151841a92601b84106123ba575b906123a291604051948594859094939260ff6060936080840197845216602083015260408201520152565b838052039060015afa156123b5575f5190565b612343565b92906123c86123a292612331565b93909150612377565b60405162461bcd60e51b815260206004820152601860248201527f496e76616c6964207369676e6174757265206c656e67746800000000000000006044820152606490fd5b5f546001600160a01b0316330361242957565b63118cdaa760e01b5f523360045260245ffd5b1561244357565b60405162461bcd60e51b8152602060048201526013602482015272496e76616c6964206d696e20706c617965727360681b6044820152606490fd5b1561248557565b60405162461bcd60e51b8152602060048201526013602482015272496e76616c6964206d617820706c617965727360681b6044820152606490fd5b156124c757565b60405162461bcd60e51b81526020600482015260166024820152755374616b65206d75737420626520706f73697469766560501b6044820152606490fd5b602090606095939492805192839101825e01928352602083015260408201520190565b5f5b82811061253657505050565b5f8282015560010161252a565b91601f821161255157505050565b80821161255d57505050565b6118bb925f5260205f20916020601f830160051c9210612588575b601f82910160051c039101612528565b5f9150612578565b91909182516001600160401b03811161185d576125b7816125b184546117f5565b84612543565b6020601f82116001146125f2578190611fd29394955f926125e7575b50508160011b915f199060031b1c19161790565b015190505f806125d3565b601f19821690612605845f5260205f2090565b915f5b81811061263f57509583600195969710612627575b505050811b019055565b01515f1960f88460031b161c191690555f808061261d565b9192602060018192868b015181550194019201612608565b906126d761010060076118bb9461266f855182612590565b6020850151600182015560408501516002820155606085015160038201556080850151600482015560a0850151600582015560c0850151600682015560e0850151910180546001600160a01b0319166001600160a01b03909216919091178155920151151590565b908054909160ff60a01b1990911690151560a01b60ff60a01b16179055565b600454600160401b81101561185d57600181016004556004548110156114e95760045f527f8a35acfbc15ff81a39ae7d344fd709f28e8600b4aa8c65c6b64bfe7fe36bd19b0155565b9092612758606093969594608084526080840190610334565b95602083015260408201520152565b80548015612793575f19019061277d82826114ee565b81549060018060a01b039060031b1b1916905555565b634e487b7160e01b5f52603160045260245ffd5b5f52600560205260405f2060015f9101905b815480821015612823576127cd82846114ee565b905460039190911b1c6001600160a01b03908116908516146127f257506001016127b9565b9092505f198101908111611a97576118bb92611b6861281761128761281e94866114ee565b91846114ee565b612767565b50505050565b80545f825580612837575050565b6118bb915f5260205f20612528565b612858905f52600560205260405f2090565b60048101916002820190600383019060018401905f5b82548110156128e757806128e16128d761288a600194876114ee565b9054858060a01b039160031b1c165f6128b3828b9060018060a01b03165f5260205260405f2090565b556001600160a01b03165f90815260208881526040808320839055908c9052902090565b805460ff19169055565b0161286e565b509450600992506118bb9391506128fd90612829565b5f600682018190556007820181905560088201550180546001600160a81b031916600160a01b179055565b6007545f198114611a97576006600160ff9201806007556040516020810191428352446040830152606082015260608152612964608082611862565b51902006169056fe9b779b17422d0df92223018b32b4d1fa46e071723d6817e2486d003becc55f00a2646970667358221220045f61b0c7d8cb7a7725d55264cef7f34095f0b9c6876b35f3b53a2e9af95ea664736f6c63430008210033","linkReferences":{}},"methodIdentifiers":{"DEFAULT_STAKE()":"f0182e34","GAME_COLOR_SEQUENCE()":"e8e1a27b","GAME_MATH_CHALLENGE()":"b3575131","GAME_MEMORY_MATCH()":"8d06c649","GAME_PATTERN_LOCK()":"a568622a","GAME_TIC_TAC_TOE()":"c1d4c642","GAME_TIMEOUT()":"099420b6","GAME_WORD_SCRAMBLE()":"202d5fc4","LOBBY_TIMEOUT()":"a16353bf","MAX_PLAYERS()":"4411b3eb","MIN_PLAYERS()":"85f07bbe","NUM_GAME_TYPES()":"f934af87","apToken()":"51982f5e","batchSettleGame(bytes32,address[],uint256[],bytes[])":"7563fc16","cancelGame(bytes32,string)":"e893aa1a","createStation(string,int256,int256,uint256,uint256,uint256)":"641a0f33","forceCompleteGame(bytes32)":"01ae1295","getAllStations()":"2118f9c4","getMinimumStake(bytes32)":"750379da","getPlayerScore(bytes32,address)":"87ad53ca","getSessionInfo(bytes32)":"da45b383","getStation(bytes32)":"1541e4de","getStationCount()":"4dcf743b","joinStation(bytes32)":"4e62b52f","joinWithSignature(bytes32,address,bytes,uint256)":"54cd6fa8","leaveStation(bytes32)":"8e6e3a08","owner()":"8da5cb5b","playerCurrentStation(address)":"712860dc","renounceOwnership()":"715018a6","setAPToken(address)":"eb5bd160","setTrustedSigner(address)":"56a1c701","stationIds(uint256)":"e391daf9","stations(bytes32)":"f5777cec","submitScore(bytes32,address,uint256,bytes)":"a0e773d7","toggleStation(bytes32,bool)":"db4c1ff1","transferOwnership(address)":"f2fde38b","trustedSigner()":"f74d5480"},"id":0}