{"abi":[{"type":"constructor","inputs":[{"name":"_apToken","type":"address","internalType":"address"},{"name":"_trustedSigner","type":"address","internalType":"address"}],"stateMutability":"nonpayable"},{"type":"function","name":"DEFAULT_STAKE","inputs":[],"outputs":[{"name":"","type":"uint256","internalType":"uint256"}],"stateMutability":"view"},{"type":"function","name":"GAME_COLOR_SEQUENCE","inputs":[],"outputs":[{"name":"","type":"uint8","internalType":"uint8"}],"stateMutability":"view"},{"type":"function","name":"GAME_MATH_CHALLENGE","inputs":[],"outputs":[{"name":"","type":"uint8","internalType":"uint8"}],"stateMutability":"view"},{"type":"function","name":"GAME_MEMORY_MATCH","inputs":[],"outputs":[{"name":"","type":"uint8","internalType":"uint8"}],"stateMutability":"view"},{"type":"function","name":"GAME_PATTERN_LOCK","inputs":[],"outputs":[{"name":"","type":"uint8","internalType":"uint8"}],"stateMutability":"view"},{"type":"function","name":"GAME_TIC_TAC_TOE","inputs":[],"outputs":[{"name":"","type":"uint8","internalType":"uint8"}],"stateMutability":"view"},{"type":"function","name":"GAME_TIMEOUT","inputs":[],"outputs":[{"name":"","type":"uint256","internalType":"uint256"}],"stateMutability":"view"},{"type":"function","name":"GAME_WORD_SCRAMBLE","inputs":[],"outputs":[{"name":"","type":"uint8","internalType":"uint8"}],"stateMutability":"view"},{"type":"function","name":"LOBBY_TIMEOUT","inputs":[],"outputs":[{"name":"","type":"uint256","internalType":"uint256"}],"stateMutability":"view"},{"type":"function","name":"MAX_PLAYERS","inputs":[],"outputs":[{"name":"","type":"uint256","internalType":"uint256"}],"stateMutability":"view"},{"type":"function","name":"MIN_PLAYERS","inputs":[],"outputs":[{"name":"","type":"uint256","internalType":"uint256"}],"stateMutability":"view"},{"type":"function","name":"NUM_GAME_TYPES","inputs":[],"outputs":[{"name":"","type":"uint8","internalType":"uint8"}],"stateMutability":"view"},{"type":"function","name":"apToken","inputs":[],"outputs":[{"name":"","type":"address","internalType":"address"}],"stateMutability":"view"},{"type":"function","name":"cancelGame","inputs":[{"name":"stationId","type":"bytes32","internalType":"bytes32"},{"name":"reason","type":"string","internalType":"string"}],"outputs":[],"stateMutability":"nonpayable"},{"type":"function","name":"createStation","inputs":[{"name":"name","type":"string","internalType":"string"},{"name":"latitude","type":"int256","internalType":"int256"},{"name":"longitude","type":"int256","internalType":"int256"},{"name":"stakeAmount","type":"uint256","internalType":"uint256"},{"name":"minPlayers","type":"uint256","internalType":"uint256"},{"name":"maxPlayers","type":"uint256","internalType":"uint256"}],"outputs":[{"name":"","type":"bytes32","internalType":"bytes32"}],"stateMutability":"nonpayable"},{"type":"function","name":"forceCompleteGame","inputs":[{"name":"stationId","type":"bytes32","internalType":"bytes32"}],"outputs":[],"stateMutability":"nonpayable"},{"type":"function","name":"getAllStations","inputs":[],"outputs":[{"name":"","type":"bytes32[]","internalType":"bytes32[]"}],"stateMutability":"view"},{"type":"function","name":"getPlayerScore","inputs":[{"name":"stationId","type":"bytes32","internalType":"bytes32"},{"name":"player","type":"address","internalType":"address"}],"outputs":[{"name":"","type":"uint256","internalType":"uint256"}],"stateMutability":"view"},{"type":"function","name":"getSessionInfo","inputs":[{"name":"stationId","type":"bytes32","internalType":"bytes32"}],"outputs":[{"name":"players","type":"address[]","internalType":"address[]"},{"name":"selectedGame","type":"uint8","internalType":"uint8"},{"name":"totalPool","type":"uint256","internalType":"uint256"},{"name":"startedAt","type":"uint256","internalType":"uint256"},{"name":"status","type":"uint8","internalType":"enum MultiplayerStation.StationStatus"}],"stateMutability":"view"},{"type":"function","name":"getStation","inputs":[{"name":"stationId","type":"bytes32","internalType":"bytes32"}],"outputs":[{"name":"","type":"tuple","internalType":"struct MultiplayerStation.Station","components":[{"name":"name","type":"string","internalType":"string"},{"name":"latitude","type":"int256","internalType":"int256"},{"name":"longitude","type":"int256","internalType":"int256"},{"name":"stakeAmount","type":"uint256","internalType":"uint256"},{"name":"minPlayers","type":"uint256","internalType":"uint256"},{"name":"maxPlayers","type":"uint256","internalType":"uint256"},{"name":"createdAt","type":"uint256","internalType":"uint256"},{"name":"creator","type":"address","internalType":"address"},{"name":"isActive","type":"bool","internalType":"bool"}]}],"stateMutability":"view"},{"type":"function","name":"getStationCount","inputs":[],"outputs":[{"name":"","type":"uint256","internalType":"uint256"}],"stateMutability":"view"},{"type":"function","name":"joinStation","inputs":[{"name":"stationId","type":"bytes32","internalType":"bytes32"}],"outputs":[],"stateMutability":"nonpayable"},{"type":"function","name":"leaveStation","inputs":[{"name":"stationId","type":"bytes32","internalType":"bytes32"}],"outputs":[],"stateMutability":"nonpayable"},{"type":"function","name":"owner","inputs":[],"outputs":[{"name":"","type":"address","internalType":"address"}],"stateMutability":"view"},{"type":"function","name":"playerCurrentStation","inputs":[{"name":"","type":"address","internalType":"address"}],"outputs":[{"name":"","type":"bytes32","internalType":"bytes32"}],"stateMutability":"view"},{"type":"function","name":"renounceOwnership","inputs":[],"outputs":[],"stateMutability":"nonpayable"},{"type":"function","name":"setAPToken","inputs":[{"name":"_apToken","type":"address","internalType":"address"}],"outputs":[],"stateMutability":"nonpayable"},{"type":"function","name":"setTrustedSigner","inputs":[{"name":"_signer","type":"address","internalType":"address"}],"outputs":[],"stateMutability":"nonpayable"},{"type":"function","name":"stationIds","inputs":[{"name":"","type":"uint256","internalType":"uint256"}],"outputs":[{"name":"","type":"bytes32","internalType":"bytes32"}],"stateMutability":"view"},{"type":"function","name":"stations","inputs":[{"name":"","type":"bytes32","internalType":"bytes32"}],"outputs":[{"name":"name","type":"string","internalType":"string"},{"name":"latitude","type":"int256","internalType":"int256"},{"name":"longitude","type":"int256","internalType":"int256"},{"name":"stakeAmount","type":"uint256","internalType":"uint256"},{"name":"minPlayers","type":"uint256","internalType":"uint256"},{"name":"maxPlayers","type":"uint256","internalType":"uint256"},{"name":"createdAt","type":"uint256","internalType":"uint256"},{"name":"creator","type":"address","internalType":"address"},{"name":"isActive","type":"bool","internalType":"bool"}],"stateMutability":"view"},{"type":"function","name":"submitScore","inputs":[{"name":"stationId","type":"bytes32","internalType":"bytes32"},{"name":"player","type":"address","internalType":"address"},{"name":"score","type":"uint256","internalType":"uint256"},{"name":"signature","type":"bytes","internalType":"bytes"}],"outputs":[],"stateMutability":"nonpayable"},{"type":"function","name":"toggleStation","inputs":[{"name":"stationId","type":"bytes32","internalType":"bytes32"},{"name":"isActive","type":"bool","internalType":"bool"}],"outputs":[],"stateMutability":"nonpayable"},{"type":"function","name":"transferOwnership","inputs":[{"name":"newOwner","type":"address","internalType":"address"}],"outputs":[],"stateMutability":"nonpayable"},{"type":"function","name":"trustedSigner","inputs":[],"outputs":[{"name":"","type":"address","internalType":"address"}],"stateMutability":"view"},{"type":"event","name":"GameCancelled","inputs":[{"name":"stationId","type":"bytes32","indexed":true,"internalType":"bytes32"},{"name":"reason","type":"string","indexed":false,"internalType":"string"}],"anonymous":false},{"type":"event","name":"GameCompleted","inputs":[{"name":"stationId","type":"bytes32","indexed":true,"internalType":"bytes32"},{"name":"winner","type":"address","indexed":true,"internalType":"address"},{"name":"prizeAmount","type":"uint256","indexed":false,"internalType":"uint256"}],"anonymous":false},{"type":"event","name":"GameStarted","inputs":[{"name":"stationId","type":"bytes32","indexed":true,"internalType":"bytes32"},{"name":"selectedGame","type":"uint8","indexed":false,"internalType":"uint8"},{"name":"players","type":"address[]","indexed":false,"internalType":"address[]"}],"anonymous":false},{"type":"event","name":"OwnershipTransferred","inputs":[{"name":"previousOwner","type":"address","indexed":true,"internalType":"address"},{"name":"newOwner","type":"address","indexed":true,"internalType":"address"}],"anonymous":false},{"type":"event","name":"PlayerJoined","inputs":[{"name":"stationId","type":"bytes32","indexed":true,"internalType":"bytes32"},{"name":"player","type":"address","indexed":true,"internalType":"address"},{"name":"stakedAmount","type":"uint256","indexed":false,"internalType":"uint256"}],"anonymous":false},{"type":"event","name":"PlayerLeft","inputs":[{"name":"stationId","type":"bytes32","indexed":true,"internalType":"bytes32"},{"name":"player","type":"address","indexed":true,"internalType":"address"},{"name":"refundAmount","type":"uint256","indexed":false,"internalType":"uint256"}],"anonymous":false},{"type":"event","name":"ScoreSubmitted","inputs":[{"name":"stationId","type":"bytes32","indexed":true,"internalType":"bytes32"},{"name":"player","type":"address","indexed":true,"internalType":"address"},{"name":"score","type":"uint256","indexed":false,"internalType":"uint256"}],"anonymous":false},{"type":"event","name":"StationCreated","inputs":[{"name":"stationId","type":"bytes32","indexed":true,"internalType":"bytes32"},{"name":"name","type":"string","indexed":false,"internalType":"string"},{"name":"latitude","type":"int256","indexed":false,"internalType":"int256"},{"name":"longitude","type":"int256","indexed":false,"internalType":"int256"},{"name":"stakeAmount","type":"uint256","indexed":false,"internalType":"uint256"}],"anonymous":false},{"type":"error","name":"AlreadyInStation","inputs":[]},{"type":"error","name":"AlreadySubmitted","inputs":[]},{"type":"error","name":"GameAlreadyStarted","inputs":[]},{"type":"error","name":"GameNotStarted","inputs":[]},{"type":"error","name":"InsufficientStake","inputs":[]},{"type":"error","name":"InvalidSignature","inputs":[]},{"type":"error","name":"NotEnoughPlayers","inputs":[]},{"type":"error","name":"NotInStation","inputs":[]},{"type":"error","name":"OwnableInvalidOwner","inputs":[{"name":"owner","type":"address","internalType":"address"}]},{"type":"error","name":"OwnableUnauthorizedAccount","inputs":[{"name":"account","type":"address","internalType":"address"}]},{"type":"error","name":"ReentrancyGuardReentrantCall","inputs":[]},{"type":"error","name":"StationDoesNotExist","inputs":[]},{"type":"error","name":"StationFull","inputs":[]},{"type":"error","name":"StationNotActive","inputs":[]},{"type":"error","name":"TransferFailed","inputs":[]},{"type":"error","name":"Unauthorized","inputs":[]}],"bytecode":{"object":"0x608080604052346104ac5760408161270c803803809161001f82856104b0565b8339810103126104ac5761003e6020610037836104d3565b92016104d3565b3315610499575f8054336001600160a01b0319821681178355604051949290916001600160a01b0316907f8be0079c531659141344cd1fd0a4f28419497f9722a3daafe3b4186f6b6457e09080a360017f9b779b17422d0df92223018b32b4d1fa46e071723d6817e2486d003becc55f0081905580546001600160a01b039283166001600160a01b03199182161790915560028054939092169216919091179055604081018181106001600160401b0382111761039f57604052600c815260208101906b4c4e4d494954204172656e6160a01b82526040516020810190610152606060208386518089885e810163019a616c83820152630484d1b460408201524284820152030160408101845201826104b0565b51902060405190929061012081016001600160401b0381118282101761039f576040528281526020810163019a616c81526040820191630484d1b48352606081016802b5e3af16b18800008152608082016002815260a08301906004825260c084019242845260e0850196338852610100860196600188528b5f52600360205260405f20965180519060018060401b03821161039f578854600181811c9116801561048f575b602082101461047b57601f811161042a575b50602090601f83116001146103be5760079998979695949392915f91836103b3575b50508160011b915f199060031b1c19161787555b516001870155516002860155516003850155516004808501919091559051600584015590516006830155935191018054925160ff60a01b90151560a01b166001600160a01b039092166001600160a81b031990931692909217179055546801000000000000000081101561039f57600181018060045581101561038b577f8a35acfbc15ff81a39ae7d344fd709f28e8600b4aa8c65c6b64bfe7fe36bd19b018390555f8381526005602052604090819020848155600901805460ff60a01b1916600160a01b17905551608080825292519281018390527f916d941cf97be3533c0fa11c6f714a3cb1bb8a70f783f70d9d54e29a8200935592909160a091839181908385015e5f82820184015263019a616c6020830152630484d1b460408301526802b5e3af16b18800006060830152601f01601f19168101030190a260405161222490816104e88239f35b634e487b7160e01b5f52603260045260245ffd5b634e487b7160e01b5f52604160045260245ffd5b015190505f8061022c565b90601f198316918a5f52815f20925f5b818110610412575091600193918560079d9c9b9a9998979694106103fa575b505050811b018755610240565b01515f1960f88460031b161c191690555f80806103ed565b929360206001819287860151815501950193016103ce565b8281111561020a57895f5260205f20601f840160051c9060208510610473575b81601f9101920160051c03905f5b82811061046657505061020a565b5f82820155600101610458565b5f915061044a565b634e487b7160e01b5f52602260045260245ffd5b90607f16906101f8565b631e4fbdf760e01b5f525f60045260245ffd5b5f80fd5b601f909101601f19168101906001600160401b0382119082101761039f57604052565b51906001600160a01b03821682036104ac5756fe60806040526004361015610011575f80fd5b5f3560e01c806301ae12951461022a578063099420b6146102255780631541e4de14610220578063202d5fc4146102165780632118f9c41461021b5780634411b3eb146102165780634dcf743b146102115780634e62b52f1461020c57806351982f5e1461020757806356a1c70114610202578063641a0f33146101fd578063712860dc146101f8578063715018a6146101f357806385f07bbe146101cb57806387ad53ca146101ee5780638d06c649146101e95780638da5cb5b146101e45780638e6e3a08146101df578063a0e773d7146101da578063a16353bf146101d5578063a568622a146101d0578063b3575131146101cb578063c1d4c642146101c6578063da45b383146101c1578063db4c1ff1146101bc578063e391daf9146101b7578063e893aa1a146101b2578063e8e1a27b146101ad578063eb5bd160146101a8578063f0182e34146101a3578063f2fde38b1461019e578063f5777cec14610199578063f74d5480146101945763f934af871461018f575f80fd5b611656565b61162e565b6115b9565b6113ae565b61138b565b611348565b61132d565b611198565b611148565b6110b0565b611046565b610fa2565b610a83565b610f87565b610f6b565b610c8c565b610b2d565b610b06565b610aeb565b610a9e565b610a2c565b6109f4565b61084f565b6107de565b61078a565b61058c565b61056f565b61049b565b6104ef565b6103ad565b6102e8565b346102e45760203660031901126102e4576004356002546001600160a01b0316331415806102bf575b6102b157806102aa6102a260076102756102af955f52600560205260405f2090565b61029b600361028c600984015460ff9060a01c1690565b61029581610fbc565b14611671565b01546116c8565b4210156116e9565b61187b565b005b6282b42960e81b5f5260045ffd5b505f546102dc906001600160a01b03165b6001600160a01b031690565b331415610253565b5f80fd5b346102e4575f3660031901126102e45760206040516107088152f35b805180835260209291819084018484015e5f828201840152601f01601f1916010190565b6103aa906020815261012061010061034c8551836020860152610140850190610304565b94602081015160408501526040810151606085015260608101516080850152608081015160a085015260a081015160c085015260c081015160e08501526103a160e08201518386019060018060a01b03169052565b01511515910152565b90565b346102e45760203660031901126102e4576004355f6101006040516103d18161147f565b606081528260208201528260408201528260608201528260808201528260a08201528260c08201528260e082015201525f52600360205261049760405f2061048b610481600761041f61172b565b93610429816114c3565b855260018101546020860152600281015460408601526003810154606086015260048101546080860152600581015460a0860152600681015460c086015201546001600160a01b03811660e085015260a01c60ff1690565b1515610100830152565b60405191829182610328565b0390f35b346102e4575f3660031901126102e457602060405160048152f35b60206040818301928281528451809452019201905f5b8181106104d95750505090565b82518452602093840193909201916001016104cc565b346102e4575f3660031901126102e45760405180602060045491828152019060045f527f8a35acfbc15ff81a39ae7d344fd709f28e8600b4aa8c65c6b64bfe7fe36bd19b905f5b818110610559576104978561054d818703826114a1565b604051918291826104b6565b8254845260209093019260019283019201610536565b346102e4575f3660031901126102e4576020600454604051908152f35b346102e45760203660031901126102e4576004356105a8611a61565b6105ba815f52600360205260405f2090565b6105cc825f52600560205260405f2090565b60078201546105e39060a01c60ff161590565b1590565b61077b57600981015460019060a01c60ff166105fe81610fbc565b0361076c576001810180546005840154111561075d57335f9081526006602052604090205461074e576001546001600160a01b03166003840180546040516323b872dd60e01b60208201908152336024830152306044830152606482019290925291925f92839290839061067f81608481015b03601f1981018352826114a1565b51925af161068b611757565b501561073f5760049261069e3384611786565b8154335f9081526002830160205260409020556106c26006835492019182546116dc565b9055335f90815260066020526040902085905554847f65525cf08411b7a61d237681a43890956ad2e2ede88afd947f58eb4158c37f956040518061070c3395829190602083019252565b0390a3549101541115610730575b6102af60015f5160206121cf5f395f51905f5255565b61073990611ab3565b5f61071a565b6312171d8360e31b5f5260045ffd5b632a4034cd60e21b5f5260045ffd5b63017b928960e21b5f5260045ffd5b63ba26162b60e01b5f5260045ffd5b6301b4df1d60e51b5f5260045ffd5b346102e4575f3660031901126102e4576001546040516001600160a01b039091168152602090f35b600435906001600160a01b03821682036102e457565b602435906001600160a01b03821682036102e457565b346102e45760203660031901126102e4576107f76107b2565b6107ff611b92565b600280546001600160a01b0319166001600160a01b0392909216919091179055005b9181601f840112156102e45782359167ffffffffffffffff83116102e457602083818601950101116102e457565b346102e45760c03660031901126102e45760043567ffffffffffffffff81116102e457610883610497913690600401610821565b7f916d941cf97be3533c0fa11c6f714a3cb1bb8a70f783f70d9d54e29a820093556024356044356109cb6064356108ca6084359760a435976108c3611b92565b36916117cd565b926002881015806109e9575b6108df90611bb8565b87871015806109de575b6108f290611bfa565b6108fd821515611c3c565b61097760405160208101906109198161067142878c8c88611c81565b51902098899861092761172b565b878152602081018990526040810185905260608101869052608081019290925260a08201524260c08201523360e08201526001610100820152610972895f52600360205260405f2090565b611dd4565b61098087611e73565b86610993815f52600560205260405f2090565b556109bf60096109ab895f52600560205260405f2090565b01805460ff60a01b1916600160a01b179055565b60405194859485611ebc565b0390a26040519081529081906020820190565b5060048711156108e9565b5060048811156108d6565b346102e45760203660031901126102e4576001600160a01b03610a156107b2565b165f526006602052602060405f2054604051908152f35b346102e4575f3660031901126102e457610a44611b92565b5f80546001600160a01b0319811682556001600160a01b03167f8be0079c531659141344cd1fd0a4f28419497f9722a3daafe3b4186f6b6457e08280a3005b346102e4575f3660031901126102e457602060405160028152f35b346102e45760403660031901126102e4576020610ae2600435610abf6107c8565b905f5260058352600360405f20019060018060a01b03165f5260205260405f2090565b54604051908152f35b346102e4575f3660031901126102e457602060405160018152f35b346102e4575f3660031901126102e4575f546040516001600160a01b039091168152602090f35b346102e45760203660031901126102e457600435610b49611a61565b610b5b815f52600560205260405f2090565b335f90815260066020526040902090919081905403610c7d57600982015460019060a01c60ff16610b8b81610fbc565b0361076c57335f818152600284016020819052604082205494600693909291610bca91610bb89087611f24565b335f9081526020919091526040902090565b5501610bd7838254611803565b9055335f908152600660205260408120556001545f9081906001600160a01b031660405163a9059cbb60e01b6020820190815233602483015260448201879052908390610c278160648101610671565b51925af1610c33611757565b501561073f5760405191825233917fcf0d7a42a42baf449dbf1a7c4b7b9a7f4bac3a411564ef0d46979e7fb9a59bfd90602090a36102af60015f5160206121cf5f395f51905f5255565b634427223160e01b5f5260045ffd5b346102e45760803660031901126102e457600435610ca86107c8565b6044359060643567ffffffffffffffff81116102e457610ccc903690600401610821565b929091610cd7611a61565b610ce9855f52600560205260405f2090565b926003610cfe600986015460ff9060a01c1690565b610d0781610fbc565b03610f5c576001600160a01b0382165f90815260066020526040902086905403610c7d576004840194610d54610d4d84889060018060a01b03165f5260205260405f2090565b5460ff1690565b610f4d576040805160208101898152606086901b6bffffffffffffffffffffffff19169282019290925260548101869052466074820152610df593610def929091610da28160948101610671565b519020604051610de481610671602082019485603c917f19457468657265756d205369676e6564204d6573736167653a0a3332000000008252601c8201520190565b5190209236916117cd565b90611fc3565b600254610e0a906001600160a01b03166102d0565b6001600160a01b0390911603610f3e577f17e3dd5795d9c42e69290bf23f2cbc4ec86ecb77a8b1eca31236a14755c4d3ce610ea18284610e5e8995600389019060018060a01b03165f5260205260405f2090565b556001600160a01b0381165f908152602088905260409020610e8790805460ff19166001179055565b6040519485526001600160a01b0316939081906020820190565b0390a360019160015f92018054925b838110610edf575b50505050610ed6576102af60015f5160206121cf5f395f51905f5255565b6107399061187b565b610f236105df610d4d610f0a610ef58587611133565b905460039190911b1c6001600160a01b031690565b6001600160a01b03165f90815260208790526040902090565b610f2f57600101610eb0565b50505050505f5f808080610eb8565b638baa579f60e01b5f5260045ffd5b639fbfc58960e01b5f5260045ffd5b633a5f7b5760e01b5f5260045ffd5b346102e4575f3660031901126102e45760206040516103848152f35b346102e4575f3660031901126102e457602060405160058152f35b346102e4575f3660031901126102e45760206040515f8152f35b60051115610fc657565b634e487b7160e01b5f52602160045260245ffd5b9290959493919560a084019060a085528051809252602060c086019101915f5b81811061102757505060ff915096166020840152604083015260608201526005821015610fc65760800152565b83516001600160a01b0316835260209384019390920191600101610ffa565b346102e45760203660031901126102e4576004355f52600560205260405f20600161049760ff6005840154169260068101546007820154906110a460ff600985015460a01c169361109d6040518098819301611810565b03866114a1565b60405195869586610fda565b346102e45760403660031901126102e457600435602435908115158092036102e4576110da611b92565b5f9081526003602052604090206007018054909160ff60a01b1990911660a09190911b60ff60a01b16179055005b634e487b7160e01b5f52603260045260245ffd5b80541561112e575f5260205f20905f90565b611108565b805482101561112e575f5260205f2001905f90565b346102e45760203660031901126102e4576004356004548110156102e45760209060045f527f8a35acfbc15ff81a39ae7d344fd709f28e8600b4aa8c65c6b64bfe7fe36bd19b0154604051908152f35b346102e45760403660031901126102e45760043560243567ffffffffffffffff81116102e4576111cc903690600401610821565b6002549091906111e4906001600160a01b03166102d0565b33141580611310575b6102b15790611204835f52600560205260405f2090565b925f916002600186019501925b85548110156112d1578061122a610ef560019389611133565b6001600160a01b0381165f9081526020879052604090205480611250575b505001611211565b83545f926112c9929091849182916001600160a01b031660405163a9059cbb60e01b602082019081526001600160a01b0387166024830152604482019390935290919083906112a28160648101610671565b51925af1506112af611757565b506001600160a01b03165f90815260066020526040902090565b555f80611248565b6102af83807fd48b0c9992d8d4b8967d1584dc8c1955390d9ff30639a7da9c77e7f0db86c3d8858961130860405192839283611854565b0390a26120a8565b505f54611325906001600160a01b03166102d0565b3314156111ed565b346102e4575f3660031901126102e457602060405160038152f35b346102e45760203660031901126102e4576113616107b2565b611369611b92565b600180546001600160a01b0319166001600160a01b0392909216919091179055005b346102e4575f3660031901126102e45760206040516802b5e3af16b18800008152f35b346102e45760203660031901126102e4576113c76107b2565b6113cf611b92565b6001600160a01b03168015611420575f80546001600160a01b03198116831782556001600160a01b0316907f8be0079c531659141344cd1fd0a4f28419497f9722a3daafe3b4186f6b6457e09080a3005b631e4fbdf760e01b5f525f60045260245ffd5b90600182811c92168015611461575b602083101461144d57565b634e487b7160e01b5f52602260045260245ffd5b91607f1691611442565b634e487b7160e01b5f52604160045260245ffd5b610120810190811067ffffffffffffffff82111761149c57604052565b61146b565b90601f8019910116810190811067ffffffffffffffff82111761149c57604052565b9060405191825f8254926114d684611433565b808452936001811690811561154157506001146114fd575b506114fb925003836114a1565b565b90505f9291925260205f20905f915b8183106115255750509060206114fb928201015f6114ee565b602091935080600191548385890101520191019091849261150c565b9050602092506114fb94915060ff191682840152151560051b8201015f6114ee565b979491999895926115836101009895926101208b526101208b0190610304565b60208a019b909b5260408901526060880152608087015260a086015260c08501526001600160a01b031660e08401521515910152565b346102e45760203660031901126102e4576004355f52600360205260405f206115e1816114c3565b6001820154600283015460038401546004850154600586015460068701546007909701546040519788976104979760a084901c60ff16976001600160a01b0390941696929593918a611563565b346102e4575f3660031901126102e4576002546040516001600160a01b039091168152602090f35b346102e4575f3660031901126102e457602060405160068152f35b1561167857565b60405162461bcd60e51b815260206004820152601460248201527347616d65206e6f7420696e2070726f677265737360601b6044820152606490fd5b634e487b7160e01b5f52601160045260245ffd5b9061070882018092116116d757565b6116b4565b919082018092116116d757565b156116f057565b60405162461bcd60e51b8152602060048201526013602482015272151a5b595bdd5d081b9bdd081c995858da1959606a1b6044820152606490fd5b604051906114fb610120836114a1565b67ffffffffffffffff811161149c57601f01601f191660200190565b3d15611781573d906117688261173b565b9161177660405193846114a1565b82523d5f602084013e565b606090565b90815491600160401b83101561149c57826117a99160016114fb95018155611133565b81546001600160a01b0393841660039290921b91821b9390911b1916919091179055565b9291926117d98261173b565b916117e760405193846114a1565b8294818452818301116102e4578281602093845f960137010152565b919082039182116116d757565b90602082549182815201915f5260205f20905f5b8181106118315750505090565b82546001600160a01b0316845260209093019260019283019201611824565b9055565b90918060409360208452816020850152848401375f828201840152601f01601f1916010190565b61188d815f52600560205260405f2090565b91600183019061189f610ef58361111c565b93600381016118be86829060018060a01b03165f5260205260405f2090565b548454919060015b8381106119e45750505050600981018054600160a21b6001600160a81b03199091166001600160a01b0388161717905560069042600882015501546001549093905f9081906001600160a01b031660405163a9059cbb60e01b602082019081526001600160a01b038a1660248301526044820189905290839061194c8160648101610671565b51925af1611958611757565b501561073f575f5b835481101561199d57805f61199661197d610ef560019589611133565b6001600160a01b03165f90815260066020526040902090565b5501611960565b5060405193845290936114fb939192506001600160a01b03169082907fd1abccae8934d5ff9b57f5f0a1bebe781f8f34d4c1c7b20e7634381deebc8db590602090a36120a8565b81611a0e6119f5610ef5848b611133565b6001600160a01b03165f90815260208690526040902090565b5411611a1d575b6001016118c6565b975050611a49611a30610ef58988611133565b6001600160a01b03165f90815260208390526040902090565b546001611a59610ef58a89611133565b989050611a15565b60025f5160206121cf5f395f51905f525414611a8a5760025f5160206121cf5f395f51905f5255565b633ee5aeb560e01b5f5260045ffd5b60409060ff6103aa94931681528160208201520190611810565b805f52600560205260405f20815f52600360205260405f2060018201906004825491015411611b5857611b447fdae2ad5233fcdbcc22a12b9ff2e86d7d9132900253b3cb8b69b824ddc88324d392611b0961218a565b90611b226005820192839060ff1660ff19825416179055565b60098101805460ff60a01b1916600360a01b1790556007429101555460ff1690565b611b5360405192839283611a99565b0390a2565b60405162461bcd60e51b81526020600482015260126024820152714e6f7420656e6f75676820706c617965727360701b6044820152606490fd5b5f546001600160a01b03163303611ba557565b63118cdaa760e01b5f523360045260245ffd5b15611bbf57565b60405162461bcd60e51b8152602060048201526013602482015272496e76616c6964206d696e20706c617965727360681b6044820152606490fd5b15611c0157565b60405162461bcd60e51b8152602060048201526013602482015272496e76616c6964206d617820706c617965727360681b6044820152606490fd5b15611c4357565b60405162461bcd60e51b81526020600482015260166024820152755374616b65206d75737420626520706f73697469766560501b6044820152606490fd5b602090606095939492805192839101825e01928352602083015260408201520190565b5f5b828110611cb257505050565b5f82820155600101611ca6565b91601f8211611ccd57505050565b808211611cd957505050565b6114fb925f5260205f20916020601f830160051c9210611d04575b601f82910160051c039101611ca4565b5f9150611cf4565b919091825167ffffffffffffffff811161149c57611d3481611d2e8454611433565b84611cbf565b6020601f8211600114611d6f5781906118509394955f92611d64575b50508160011b915f199060031b1c19161790565b015190505f80611d50565b601f19821690611d82845f5260205f2090565b915f5b818110611dbc57509583600195969710611da4575b505050811b019055565b01515f1960f88460031b161c191690555f8080611d9a565b9192602060018192868b015181550194019201611d85565b90611e5461010060076114fb94611dec855182611d0c565b6020850151600182015560408501516002820155606085015160038201556080850151600482015560a0850151600582015560c0850151600682015560e0850151910180546001600160a01b0319166001600160a01b03909216919091178155920151151590565b908054909160ff60a01b1990911690151560a01b60ff60a01b16179055565b600454600160401b81101561149c576001810160045560045481101561112e5760045f527f8a35acfbc15ff81a39ae7d344fd709f28e8600b4aa8c65c6b64bfe7fe36bd19b0155565b9092611ed5606093969594608084526080840190610304565b95602083015260408201520152565b80548015611f10575f190190611efa8282611133565b81549060018060a01b039060031b1b1916905555565b634e487b7160e01b5f52603160045260245ffd5b5f52600560205260405f2060015f9101905b815480821015611fa057611f4a8284611133565b905460039190911b1c6001600160a01b0390811690851614611f6f5750600101611f36565b9092505f1981019081116116d7576114fb926117a9611f94610ef5611f9b9486611133565b9184611133565b611ee4565b50505050565b60ff601b9116019060ff82116116d757565b6040513d5f823e3d90fd5b6041825103612046576020915f91838201519160606040820151910151841a92601b841061202f575b9061201791604051948594859094939260ff6060936080840197845216602083015260408201520152565b838052039060015afa1561202a575f5190565b611fb8565b929061203d61201792611fa6565b93909150611fec565b60405162461bcd60e51b815260206004820152601860248201527f496e76616c6964207369676e6174757265206c656e67746800000000000000006044820152606490fd5b80545f825580612099575050565b6114fb915f5260205f20611ca4565b6120ba905f52600560205260405f2090565b60048101916002820190600383019060018401905f5b825481101561214957806121436121396120ec60019487611133565b9054858060a01b039160031b1c165f612115828b9060018060a01b03165f5260205260405f2090565b556001600160a01b03165f90815260208881526040808320839055908c9052902090565b805460ff19169055565b016120d0565b509450600992506114fb93915061215f9061208b565b5f600682018190556007820181905560088201550180546001600160a81b031916600160a01b179055565b6007545f1981146116d7576006600160ff92018060075560405160208101914283524460408301526060820152606081526121c66080826114a1565b51902006169056fe9b779b17422d0df92223018b32b4d1fa46e071723d6817e2486d003becc55f00a2646970667358221220a128e88d6714eec7144c6af48d37c21076ef520c3071708a23de099c38d8120464736f6c63430008210033","linkReferences":{}},"methodIdentifiers":{"DEFAULT_STAKE()":"f0182e34","GAME_COLOR_SEQUENCE()":"e8e1a27b","GAME_MATH_CHALLENGE()":"b3575131","GAME_MEMORY_MATCH()":"8d06c649","GAME_PATTERN_LOCK()":"a568622a","GAME_TIC_TAC_TOE()":"c1d4c642","GAME_TIMEOUT()":"099420b6","GAME_WORD_SCRAMBLE()":"202d5fc4","LOBBY_TIMEOUT()":"a16353bf","MAX_PLAYERS()":"4411b3eb","MIN_PLAYERS()":"85f07bbe","NUM_GAME_TYPES()":"f934af87","apToken()":"51982f5e","cancelGame(bytes32,string)":"e893aa1a","createStation(string,int256,int256,uint256,uint256,uint256)":"641a0f33","forceCompleteGame(bytes32)":"01ae1295","getAllStations()":"2118f9c4","getPlayerScore(bytes32,address)":"87ad53ca","getSessionInfo(bytes32)":"da45b383","getStation(bytes32)":"1541e4de","getStationCount()":"4dcf743b","joinStation(bytes32)":"4e62b52f","leaveStation(bytes32)":"8e6e3a08","owner()":"8da5cb5b","playerCurrentStation(address)":"712860dc","renounceOwnership()":"715018a6","setAPToken(address)":"eb5bd160","setTrustedSigner(address)":"56a1c701","stationIds(uint256)":"e391daf9","stations(bytes32)":"f5777cec","submitScore(bytes32,address,uint256,bytes)":"a0e773d7","toggleStation(bytes32,bool)":"db4c1ff1","transferOwnership(address)":"f2fde38b","trustedSigner()":"f74d5480"},"id":4}