{"abi":[{"type":"function","name":"gramps","inputs":[],"outputs":[{"name":"","type":"string","internalType":"string"}],"stateMutability":"view"},{"type":"function","name":"initialize","inputs":[],"outputs":[],"stateMutability":"nonpayable"},{"type":"function","name":"initialize","inputs":[{"name":"value","type":"string","internalType":"string"}],"outputs":[],"stateMutability":"nonpayable"},{"type":"function","name":"isHuman","inputs":[],"outputs":[{"name":"","type":"bool","internalType":"bool"}],"stateMutability":"view"},{"type":"event","name":"Initialized","inputs":[{"name":"version","type":"uint64","indexed":false,"internalType":"uint64"}],"anonymous":false},{"type":"error","name":"InvalidInitialization","inputs":[]},{"type":"error","name":"NotInitializing","inputs":[]}],"bytecode":{"object":"0x60808060405234601557610637908161001a8239f35b5f80fdfe6080806040526004361015610012575f80fd5b5f3560e01c9081634a6c9db614610510575080638129fc1c14610444578063f62d18881461013d5763fa39851f14610048575f80fd5b34610139575f36600319011261013957604051600154905f61006983610550565b80835260208301936001811690811561011e57506001146100c0575b509061009581604093038261052e565b8151928391602083525180918160208501528484015e5f828201840152601f01601f19168101030190f35b91905060015f527fb10e2d527612073b26eecdfd717e6a320cf44b4afac2b0732d9fcbe2b7fa0cf6915f905b80821061010457509091508101602001610095610085565b9192600181602092548385880101520191019092916100ec565b60ff1916855250151560051b82016020019050610095610085565b5f80fd5b346101395760203660031901126101395760043567ffffffffffffffff8111610139573660238201121561013957806004013567ffffffffffffffff81116103d65760405191610197601f8301601f19166020018461052e565b818352366024838301011161013957815f9260246020930183860137830101525f5160206105e25f395f51905f525467ffffffffffffffff60ff8260401c161591168015908161043c575b6001149081610432575b159081610429575b5061041a5780610202610588565b6103ea575b61020f6105b6565b6102176105b6565b61021f6105b6565b600160ff195f5416175f556102326105b6565b815167ffffffffffffffff81116103d65761024e600154610550565b601f8111610368575b50602092601f82116001146102e957928192935f926102de575b50508160011b915f199060031b1c1916176001555b61028c57005b60ff60401b195f5160206105e25f395f51905f5254165f5160206105e25f395f51905f52557fc7f505b2f371ae2175ee4913f4499e1f2633a7b5936321eed1cdaeb6115181d2602060405160018152a1005b015190508380610271565b601f1982169360015f527fb10e2d527612073b26eecdfd717e6a320cf44b4afac2b0732d9fcbe2b7fa0cf6915f5b8681106103505750836001959610610338575b505050811b01600155610286565b01515f1960f88460031b161c1916905583808061032a565b91926020600181928685015181550194019201610317565b818111156102575760015f52601f820160051c90602083106103ce575b601f82910160051c03905f5b82811061039f575050610257565b5f8282017fb10e2d527612073b26eecdfd717e6a320cf44b4afac2b0732d9fcbe2b7fa0cf60155600101610391565b5f9150610385565b634e487b7160e01b5f52604160045260245ffd5b600160401b60ff60401b195f5160206105e25f395f51905f525416175f5160206105e25f395f51905f5255610207565b63f92ee8a960e01b5f5260045ffd5b905015836101f4565b303b1591506101ec565b8291506101e2565b34610139575f366003190112610139575f5160206105e25f395f51905f525467ffffffffffffffff60ff8260401c1615911680159081610508575b60011490816104fe575b1590816104f5575b5061041a578061049f610588565b6104c5575b6104ac6105b6565b6104b46105b6565b600160ff195f5416175f5561028c57005b600160401b60ff60401b195f5160206105e25f395f51905f525416175f5160206105e25f395f51905f52556104a4565b90501582610491565b303b159150610489565b82915061047f565b34610139575f3660031901126101395760209060ff5f541615158152f35b90601f8019910116810190811067ffffffffffffffff8211176103d657604052565b90600182811c9216801561057e575b602083101461056a57565b634e487b7160e01b5f52602260045260245ffd5b91607f169161055f565b600167ffffffffffffffff195f5160206105e25f395f51905f525416175f5160206105e25f395f51905f5255565b60ff5f5160206105e25f395f51905f525460401c16156105d257565b631afcd79f60e31b5f5260045ffdfef0c57e16840df040f15088dc2f81fe391c3923bec73e23a9662efc9c229c6a00a2646970667358221220e38d8335f9fcbbab28346d2bcfd340a216bc2b0c260d7d9072cb4910e9b06f8164736f6c63430008210033","linkReferences":{}},"methodIdentifiers":{"gramps()":"fa39851f","initialize()":"8129fc1c","initialize(string)":"f62d1888","isHuman()":"4a6c9db6"},"id":163}