{"abi":[{"type":"constructor","inputs":[{"name":"_token","type":"address","internalType":"address"},{"name":"_trustedSigner","type":"address","internalType":"address"}],"stateMutability":"nonpayable"},{"type":"function","name":"claimDrop","inputs":[{"name":"dropId","type":"bytes32","internalType":"bytes32"},{"name":"amount","type":"uint256","internalType":"uint256"},{"name":"latitude","type":"int256","internalType":"int256"},{"name":"longitude","type":"int256","internalType":"int256"},{"name":"timestamp","type":"uint256","internalType":"uint256"},{"name":"nonce","type":"uint256","internalType":"uint256"},{"name":"signature","type":"bytes","internalType":"bytes"}],"outputs":[],"stateMutability":"nonpayable"},{"type":"function","name":"claimedDrops","inputs":[{"name":"","type":"bytes32","internalType":"bytes32"}],"outputs":[{"name":"","type":"bool","internalType":"bool"}],"stateMutability":"view"},{"type":"function","name":"depositDrops","inputs":[{"name":"amount","type":"uint256","internalType":"uint256"}],"outputs":[],"stateMutability":"nonpayable"},{"type":"function","name":"dropExpiryDuration","inputs":[],"outputs":[{"name":"","type":"uint256","internalType":"uint256"}],"stateMutability":"view"},{"type":"function","name":"getBalance","inputs":[],"outputs":[{"name":"","type":"uint256","internalType":"uint256"}],"stateMutability":"view"},{"type":"function","name":"getNonce","inputs":[{"name":"user","type":"address","internalType":"address"}],"outputs":[{"name":"","type":"uint256","internalType":"uint256"}],"stateMutability":"view"},{"type":"function","name":"isDropClaimed","inputs":[{"name":"dropId","type":"bytes32","internalType":"bytes32"}],"outputs":[{"name":"","type":"bool","internalType":"bool"}],"stateMutability":"view"},{"type":"function","name":"nonces","inputs":[{"name":"","type":"address","internalType":"address"}],"outputs":[{"name":"","type":"uint256","internalType":"uint256"}],"stateMutability":"view"},{"type":"function","name":"owner","inputs":[],"outputs":[{"name":"","type":"address","internalType":"address"}],"stateMutability":"view"},{"type":"function","name":"renounceOwnership","inputs":[],"outputs":[],"stateMutability":"nonpayable"},{"type":"function","name":"setDropExpiryDuration","inputs":[{"name":"_duration","type":"uint256","internalType":"uint256"}],"outputs":[],"stateMutability":"nonpayable"},{"type":"function","name":"setTrustedSigner","inputs":[{"name":"_trustedSigner","type":"address","internalType":"address"}],"outputs":[],"stateMutability":"nonpayable"},{"type":"function","name":"token","inputs":[],"outputs":[{"name":"","type":"address","internalType":"contract IERC20"}],"stateMutability":"view"},{"type":"function","name":"transferOwnership","inputs":[{"name":"newOwner","type":"address","internalType":"address"}],"outputs":[],"stateMutability":"nonpayable"},{"type":"function","name":"trustedSigner","inputs":[],"outputs":[{"name":"","type":"address","internalType":"address"}],"stateMutability":"view"},{"type":"function","name":"withdrawDrops","inputs":[{"name":"amount","type":"uint256","internalType":"uint256"}],"outputs":[],"stateMutability":"nonpayable"},{"type":"event","name":"DropClaimed","inputs":[{"name":"dropId","type":"bytes32","indexed":true,"internalType":"bytes32"},{"name":"claimer","type":"address","indexed":true,"internalType":"address"},{"name":"amount","type":"uint256","indexed":false,"internalType":"uint256"},{"name":"latitude","type":"int256","indexed":false,"internalType":"int256"},{"name":"longitude","type":"int256","indexed":false,"internalType":"int256"},{"name":"timestamp","type":"uint256","indexed":false,"internalType":"uint256"}],"anonymous":false},{"type":"event","name":"DropsDeposited","inputs":[{"name":"depositor","type":"address","indexed":true,"internalType":"address"},{"name":"amount","type":"uint256","indexed":false,"internalType":"uint256"}],"anonymous":false},{"type":"event","name":"DropsWithdrawn","inputs":[{"name":"owner","type":"address","indexed":true,"internalType":"address"},{"name":"amount","type":"uint256","indexed":false,"internalType":"uint256"}],"anonymous":false},{"type":"event","name":"OwnershipTransferred","inputs":[{"name":"previousOwner","type":"address","indexed":true,"internalType":"address"},{"name":"newOwner","type":"address","indexed":true,"internalType":"address"}],"anonymous":false},{"type":"event","name":"TrustedSignerUpdated","inputs":[{"name":"oldSigner","type":"address","indexed":true,"internalType":"address"},{"name":"newSigner","type":"address","indexed":true,"internalType":"address"}],"anonymous":false},{"type":"error","name":"DropAlreadyClaimed","inputs":[]},{"type":"error","name":"DropExpired","inputs":[]},{"type":"error","name":"ECDSAInvalidSignature","inputs":[]},{"type":"error","name":"ECDSAInvalidSignatureLength","inputs":[{"name":"length","type":"uint256","internalType":"uint256"}]},{"type":"error","name":"ECDSAInvalidSignatureS","inputs":[{"name":"s","type":"bytes32","internalType":"bytes32"}]},{"type":"error","name":"InsufficientBalance","inputs":[]},{"type":"error","name":"InvalidNonce","inputs":[]},{"type":"error","name":"InvalidSignature","inputs":[]},{"type":"error","name":"OwnableInvalidOwner","inputs":[{"name":"owner","type":"address","internalType":"address"}]},{"type":"error","name":"OwnableUnauthorizedAccount","inputs":[{"name":"account","type":"address","internalType":"address"}]},{"type":"error","name":"ReentrancyGuardReentrantCall","inputs":[]},{"type":"error","name":"SafeERC20FailedOperation","inputs":[{"name":"token","type":"address","internalType":"address"}]}],"bytecode":{"object":"0x60a03461013457601f610c5c38819003918201601f19168301916001600160401b0383118484101761013857808492604094855283398101031261013457610052602061004b8361014c565b920161014c565b60017f9b779b17422d0df92223018b32b4d1fa46e071723d6817e2486d003becc55f00553315610121575f8054336001600160a01b0319821681178355604051949290916001600160a01b0316907f8be0079c531659141344cd1fd0a4f28419497f9722a3daafe3b4186f6b6457e09080a3620151806004556001600160a01b03908116608052600180546001600160a01b03191692909116919091179055610afb9081610161823960805181818160e1015281816102e2015281816106d0015281816107bb01526108380152f35b631e4fbdf760e01b5f525f60045260245ffd5b5f80fd5b634e487b7160e01b5f52604160045260245ffd5b51906001600160a01b03821682036101345756fe6080806040526004361015610012575f80fd5b5f3560e01c9081630670e767146108ad5750806312065fe01461080d5780632d0335ab14610587578063352907361461079857806350448136146106ba57806356a1c701146106495780635cb23cc11461061a578063715018a6146105c35780637ecebe00146105875780638da5cb5b14610560578063aea978e814610543578063ba6a0f19146101e6578063de62145e146101c5578063f2fde38b1461013c578063f74d5480146101145763fc0c546a146100cc575f80fd5b34610110575f366003190112610110576040517f00000000000000000000000000000000000000000000000000000000000000006001600160a01b03168152602090f35b5f80fd5b34610110575f366003190112610110576001546040516001600160a01b039091168152602090f35b34610110576020366003190112610110576004356001600160a01b038116908190036101105761016a61090e565b80156101b2575f80546001600160a01b03198116831782556001600160a01b0316907f8be0079c531659141344cd1fd0a4f28419497f9722a3daafe3b4186f6b6457e09080a3005b631e4fbdf760e01b5f525f60045260245ffd5b34610110576020366003190112610110576101de61090e565b600480359055005b346101105760e03660031901126101105760243560043560843560643560443560c43560a43567ffffffffffffffff821161011057366023830112156101105781600401359067ffffffffffffffff82116101105736602483850101116101105760027f9b779b17422d0df92223018b32b4d1fa46e071723d6817e2486d003becc55f0054146105345760027f9b779b17422d0df92223018b32b4d1fa46e071723d6817e2486d003becc55f0055865f52600360205260ff60405f20541661052557335f52600260205260405f20548103610516576004548601808711610495574211610507576040516370a0823160e01b81523060048201527f000000000000000000000000000000000000000000000000000000000000000093906020816024816001600160a01b0389165afa80156104fc578a915f916104c7575b50106104b8576103de926103d59260405160208101918b83523360601b60408301528c60548301528860748301528960948301528a60b483015260d48201524660f482015260f48152610379610114826108d8565b5190207f19457468657265756d205369676e6564204d6573736167653a0a3332000000005f52601c525f6020603c822092806024604051966103c485601f19601f86011601896108d8565b828852018387013784010152610995565b909291926109cf565b6001546001600160a01b039081169116036104a957845f52600360205260405f20600160ff19825416179055335f52600260205260405f20908154905f1982146104955761043492600189930190553390610934565b6040519485526020850152604084015260608301527ff1a427445052f9d8a9267516183db87a55f64cc1d88982138c630d4baf2cb3b160803393a360017f9b779b17422d0df92223018b32b4d1fa46e071723d6817e2486d003becc55f0055005b634e487b7160e01b5f52601160045260245ffd5b638baa579f60e01b5f5260045ffd5b631e9acf1760e31b5f5260045ffd5b9150506020813d6020116104f4575b816104e3602093836108d8565b81010312610110578990518b610324565b3d91506104d6565b6040513d5f823e3d90fd5b63b1efd33560e01b5f5260045ffd5b633ab3447f60e11b5f5260045ffd5b631e65ff1f60e01b5f5260045ffd5b633ee5aeb560e01b5f5260045ffd5b34610110575f366003190112610110576020600454604051908152f35b34610110575f366003190112610110575f546040516001600160a01b039091168152602090f35b34610110576020366003190112610110576004356001600160a01b03811690819003610110575f526002602052602060405f2054604051908152f35b34610110575f366003190112610110576105db61090e565b5f80546001600160a01b0319811682556001600160a01b03167f8be0079c531659141344cd1fd0a4f28419497f9722a3daafe3b4186f6b6457e08280a3005b34610110576020366003190112610110576004355f526003602052602060ff60405f2054166040519015158152f35b34610110576020366003190112610110576004356001600160a01b038116908190036101105761067761090e565b600180546001600160a01b0319811683179091556001600160a01b03167f4a297cf5d32586f80d2b0708a39d2da1f46e6ae7722171e1c51dfd685b5b8aa85f80a3005b34610110576020366003190112610110576004357f000000000000000000000000000000000000000000000000000000000000000090604051916323b872dd60e01b5f5233600452306024528160445260205f60648180855af160015f5114811615610779575b836040525f60605215610759575081527fb4c757fa47e2d0432dee4f75ad8742ce91528aff42702cdd8d16cfa24ccf85bb60203392a2005b635274afe760e01b5f9081526001600160a01b0391909116600452602490fd5b600181151661078f57813b15153d151616610721565b833d5f823e3d90fd5b34610110576020366003190112610110576004356107b461090e565b6107df81337f0000000000000000000000000000000000000000000000000000000000000000610934565b6040519081527fd008fd4b146bcfba4576c960eab9e1fb7eb3d00c9cf7e52323ab1863ef50676160203392a2005b34610110575f366003190112610110576040516370a0823160e01b81523060048201526020816024817f00000000000000000000000000000000000000000000000000000000000000006001600160a01b03165afa80156104fc575f9061087a575b602090604051908152f35b506020813d6020116108a5575b81610894602093836108d8565b81010312610110576020905161086f565b3d9150610887565b34610110576020366003190112610110576020906004355f526003825260ff60405f20541615158152f35b90601f8019910116810190811067ffffffffffffffff8211176108fa57604052565b634e487b7160e01b5f52604160045260245ffd5b5f546001600160a01b0316330361092157565b63118cdaa760e01b5f523360045260245ffd5b916040519163a9059cbb60e01b5f5260018060a01b031660045260245260205f60448180865af19060015f5114821615610974575b604052156107595750565b90600181151661098c57823b15153d15161690610969565b503d5f823e3d90fd5b81519190604183036109c5576109be9250602082015190606060408401519301515f1a90610a43565b9192909190565b50505f9160029190565b6004811015610a2f57806109e1575050565b600181036109f85763f645eedf60e01b5f5260045ffd5b60028103610a13575063fce698f760e01b5f5260045260245ffd5b600314610a1d5750565b6335e2f38360e21b5f5260045260245ffd5b634e487b7160e01b5f52602160045260245ffd5b91907f7fffffffffffffffffffffffffffffff5d576e7357a4501ddfe92f46681b20a08411610aba579160209360809260ff5f9560405194855216868401526040830152606082015282805260015afa156104fc575f516001600160a01b03811615610ab057905f905f90565b505f906001905f90565b5050505f916003919056fea26469706673582212202399bf9fbf46da2d501cbe03fce64104099577ed673d00cca2d14509d4e4598864736f6c63430008210033","linkReferences":{}},"methodIdentifiers":{"claimDrop(bytes32,uint256,int256,int256,uint256,uint256,bytes)":"ba6a0f19","claimedDrops(bytes32)":"0670e767","depositDrops(uint256)":"50448136","dropExpiryDuration()":"aea978e8","getBalance()":"12065fe0","getNonce(address)":"2d0335ab","isDropClaimed(bytes32)":"5cb23cc1","nonces(address)":"7ecebe00","owner()":"8da5cb5b","renounceOwnership()":"715018a6","setDropExpiryDuration(uint256)":"de62145e","setTrustedSigner(address)":"56a1c701","token()":"fc0c546a","transferOwnership(address)":"f2fde38b","trustedSigner()":"f74d5480","withdrawDrops(uint256)":"35290736"},"id":1}