{"abi":[{"type":"function","name":"decimals","inputs":[],"outputs":[{"name":"","type":"uint256","internalType":"uint256"}],"stateMutability":"pure"}],"bytecode":{"object":"0x608080604052346013576074908160188239f35b5f80fdfe60808060405260043610156011575f80fd5b5f3560e01c63313ce567146023575f80fd5b34603a575f366003190112603a575f198152602090f35b5f80fdfea2646970667358221220504e464e4d68b874df0c2657c6fdc7fd031d1ce6429d29428355ad08033739d864736f6c63430008210033","linkReferences":{}},"methodIdentifiers":{"decimals()":"313ce567"},"id":244}