{"abi":[{"type":"constructor","inputs":[{"name":"_paymentToken","type":"address","internalType":"address"}],"stateMutability":"nonpayable"},{"type":"function","name":"completeGame","inputs":[{"name":"player","type":"address","internalType":"address"},{"name":"score","type":"uint256","internalType":"uint256"}],"outputs":[],"stateMutability":"nonpayable"},{"type":"function","name":"gameCost","inputs":[],"outputs":[{"name":"","type":"uint256","internalType":"uint256"}],"stateMutability":"view"},{"type":"function","name":"owner","inputs":[],"outputs":[{"name":"","type":"address","internalType":"address"}],"stateMutability":"view"},{"type":"function","name":"paymentToken","inputs":[],"outputs":[{"name":"","type":"address","internalType":"contract IERC20"}],"stateMutability":"view"},{"type":"function","name":"recordPurchase","inputs":[{"name":"player","type":"address","internalType":"address"},{"name":"amount","type":"uint256","internalType":"uint256"},{"name":"cost","type":"uint256","internalType":"uint256"}],"outputs":[],"stateMutability":"nonpayable"},{"type":"function","name":"renounceOwnership","inputs":[],"outputs":[],"stateMutability":"nonpayable"},{"type":"function","name":"setGameCost","inputs":[{"name":"_cost","type":"uint256","internalType":"uint256"}],"outputs":[],"stateMutability":"nonpayable"},{"type":"function","name":"startGame","inputs":[{"name":"player","type":"address","internalType":"address"},{"name":"gameType","type":"string","internalType":"string"}],"outputs":[],"stateMutability":"nonpayable"},{"type":"function","name":"transferOwnership","inputs":[{"name":"newOwner","type":"address","internalType":"address"}],"outputs":[],"stateMutability":"nonpayable"},{"type":"event","name":"CreditsPurchased","inputs":[{"name":"player","type":"address","indexed":true,"internalType":"address"},{"name":"amount","type":"uint256","indexed":false,"internalType":"uint256"},{"name":"cost","type":"uint256","indexed":false,"internalType":"uint256"}],"anonymous":false},{"type":"event","name":"GameCompleted","inputs":[{"name":"player","type":"address","indexed":true,"internalType":"address"},{"name":"score","type":"uint256","indexed":false,"internalType":"uint256"},{"name":"timestamp","type":"uint256","indexed":false,"internalType":"uint256"}],"anonymous":false},{"type":"event","name":"GameStarted","inputs":[{"name":"player","type":"address","indexed":true,"internalType":"address"},{"name":"gameType","type":"string","indexed":false,"internalType":"string"},{"name":"timestamp","type":"uint256","indexed":false,"internalType":"uint256"}],"anonymous":false},{"type":"event","name":"OwnershipTransferred","inputs":[{"name":"previousOwner","type":"address","indexed":true,"internalType":"address"},{"name":"newOwner","type":"address","indexed":true,"internalType":"address"}],"anonymous":false},{"type":"error","name":"OwnableInvalidOwner","inputs":[{"name":"owner","type":"address","internalType":"address"}]},{"type":"error","name":"OwnableUnauthorizedAccount","inputs":[{"name":"account","type":"address","internalType":"address"}]}],"bytecode":{"object":"0x60803460d957601f6104d438819003918201601f19168301916001600160401b0383118484101760dd5780849260209460405283398101031260d957516001600160a01b0381169081900360d957331560c6575f8054336001600160a01b0319821681178355604051939290916001600160a01b0316907f8be0079c531659141344cd1fd0a4f28419497f9722a3daafe3b4186f6b6457e09080a3674563918244f40000600255600180546001600160a01b0319169190911790556103e290816100f28239f35b631e4fbdf760e01b5f525f60045260245ffd5b5f80fd5b634e487b7160e01b5f52604160045260245ffdfe6080806040526004361015610012575f80fd5b5f3560e01c9081633013ce291461034d57508063715018a6146102f65780637f17b79d146102d55780638da5cb5b146102ae578063c9c33f031461024a578063cab896dc1461022d578063edfeef30146101cb578063f2fde38b146101465763fe0054711461007f575f80fd5b3461014257604036600319011261014257610098610370565b6024359067ffffffffffffffff821161014257366023830112156101425781600401359167ffffffffffffffff83116101425736602484830101116101425760606024917f21c479457a97886a87f7cecb9b405e087b65c59184ba22b48cf3b7a94554e4d793610106610386565b856040519485936040855282604086015201848401375f8287018401524260208301526001600160a01b031694601f01601f19168101030190a2005b5f80fd5b346101425760203660031901126101425761015f610370565b610167610386565b6001600160a01b031680156101b8575f80546001600160a01b03198116831782556001600160a01b0316907f8be0079c531659141344cd1fd0a4f28419497f9722a3daafe3b4186f6b6457e09080a3005b631e4fbdf760e01b5f525f60045260245ffd5b34610142576040366003190112610142576101e4610370565b6101ec610386565b6040805160243581524260208201526001600160a01b03909216917fe3b774cfd7ea28729e7829411c6dfb5be69d56f78c5ce78ad8a0a26668aeff1f9190a2005b34610142575f366003190112610142576020600254604051908152f35b3461014257606036600319011261014257610263610370565b61026b610386565b60408051602435815260443560208201526001600160a01b03909216917ffb82fc1c5adf84899709e87563b69dd5f4ac33320f1c60dbca744bec717eb90f9190a2005b34610142575f366003190112610142575f546040516001600160a01b039091168152602090f35b34610142576020366003190112610142576102ee610386565b600435600255005b34610142575f3660031901126101425761030e610386565b5f80546001600160a01b0319811682556001600160a01b03167f8be0079c531659141344cd1fd0a4f28419497f9722a3daafe3b4186f6b6457e08280a3005b34610142575f366003190112610142576001546001600160a01b03168152602090f35b600435906001600160a01b038216820361014257565b5f546001600160a01b0316330361039957565b63118cdaa760e01b5f523360045260245ffdfea2646970667358221220a133b10edc6e1ac0cf5ed74a2165dd19fca11fa96bc4d6b626910e29f29353ea64736f6c63430008210033","linkReferences":{}},"methodIdentifiers":{"completeGame(address,uint256)":"edfeef30","gameCost()":"cab896dc","owner()":"8da5cb5b","paymentToken()":"3013ce29","recordPurchase(address,uint256,uint256)":"c9c33f03","renounceOwnership()":"715018a6","setGameCost(uint256)":"7f17b79d","startGame(address,string)":"fe005471","transferOwnership(address)":"f2fde38b"},"id":2}